:020000040800F2
:10000000701F002005010008311D0008C7150008F9
:100010002D1D0008C5020008D129000800000000BD
:100020000000000000000000000000006D26000835
:10003000ED0C000800000000B52400086529000848
:100040001F0100081F0100081F0100081F01000810
:100050001F0100081F0100081F010008F10C000823
:100060001F0100081F0100081F0100081F010008F0
:100070001F0100081F0100081F0100081F010008E0
:100080001F0100081F0100081F0100081F010008D0
:100090001F0100081F0100081F0100081F010008C0
:1000A0001F0100081F0100081F0100081F010008B0
:1000B0001F0100081F0100081F0100081F010008A0
:1000C0001F0100081F0100081F0100081F01000890
:1000D0001F0100081F0100081F0100081F01000880
:1000E0001F0100081F0100081F010008DFF810D0E1
:1000F00000F08CF800480047714D0008AFF3008015
:10010000701F00200648804706480047FEE7FEE7CC
:10011000FEE7FEE7FEE7FEE7FEE7FEE7FEE7FEE7B7
:1001200071290008ED00000840EA01039B0703D095
:1001300009E008C9121F08C0042AFAD203E011F826
:10014000013B00F8013B521EF9D27047D2B201E0E8
:1001500000F8012B491EFBD270470022F6E710B5CC
:1001600013460A4604461946FFF7F0FF204610BD25
:10017000421C10F8011B0029FBD1801A704730B5D2
:1001800004460020034600E05B1C934203D2E05C7F
:10019000CD5C401BF8D030BD034611F8012B00F8B0
:1001A000012B002AF9D1184670472DE9F05F05466A
:1001B000002092469B4688460646814640241BE026
:1001C000284641464746224600F041F853465A46E3
:1001D000C01A914110D311461846224600F028F863
:1001E0002D1A67EB01084F4622460120002100F03E
:1001F0001FF817EB00094E41201EA4F10104DFDCBB
:10020000484631462A464346BDE8F09F064C074D16
:1002100006E0E06840F0010394E8070098471034D6
:10022000AC42F6D3FFF766FFAC7A0008CC7A000840
:10023000202A04DB203A00FA02F1002070479140A6
:10024000C2F1200320FA03F3194390407047202A9B
:1002500004DB203A21FA02F00021704721FA02F370
:10026000D040C2F12002914008431946704770B552
:100270008C1810F8015B15F0070301D110F8013B51
:100280002A1106D110F8012B03E010F8016B01F8D8
:10029000016B5B1EF9D12B0705D40023521E0DD430
:1002A00001F8013BFAE710F8013BCB1A921C03E07E
:1002B00013F8015B01F8015B521EF9D5A142D8D3B6
:1002C000002070BD00BFFEE710B5044604B910BDA4
:1002D00000F030F8204603F053FC00F021F800BF96
:1002E000F5E7000008B50121082002F0F5F84FF409
:1002F0008070ADF8000010208DF8030003208DF809
:1003000002004FF48071054801F05BF9694603482B
:1003100001F0CAF800F004F808BD0000000C01402C
:1003200010B54FF48071024801F04BF910BD000088
:10033000000C014010B54FF48071024801F03FF904
:1003400010BD0000000C01400348007808B90120EE
:1003500070470020FCE70000B700002008B501212D
:100360000C2002F0B9F840F20340ADF8000048203C
:100370008DF8030002208DF802006946294801F03B
:1003800093F8002028490870284908702849087007
:1003900028490870284908702849087028490880A9
:1003A0002849088028490880284908802849088069
:1003B00028490870284908702849088002202849DF
:1003C0000870FF2027490870002027490880274926
:1003D00088804880088026498880488008804FF4BB
:1003E000E061244801F0EBF84FF4E060ADF8000064
:1003F00018208DF8030069461E4801F055F804F0F6
:10040000EDFA08480830006800F003001A49087047
:10041000044808300068C0F3802018490870184963
:10042000087008BD000C0140B6000020B500002097
:10043000B2000020B1000020B0000020B800002071
:10044000C2000020C0000020BE000020BC00002030
:10045000BA000020C4000020C5000020D200002007
:10046000D4000020D5000020D6000020C6000020C7
:10047000CC00002000080140B3000020B4000020A0
:10048000B700002070B5034600224FF08040962B45
:1004900001DD962304E013F1960F01DA6FF0950366
:1004A000962901DD962104E011F1960F01DA6FF033
:1004B000950103FB03F501FB015400E08008A04215
:1004C000FCD809E01518A54204D81518641B00EBE8
:1004D000520200E0520880080028F3D1962A01D980
:1004E000962500E01546014E358070BDD2000020F3
:1004F0000149087070470000B2000020052801DAA9
:10050000014600E00021014A11707047D40000202C
:100510000146052901DA084600E0002000EB400012
:10052000024A02EB800040687047000078790008BA
:1005300000BFEFF31080014672B605480278002034
:10054000034B1870084680F3108800BF10467047B0
:10055000B100002000BFEFF31080014672B60648DC
:1005600090F900200020044B1870084680F3108892
:1005700000BF104670470000B000002070B54A4828
:10058000006800F003054948007885423FD047489D
:1005900000786840032803D10020454908700BE02B
:1005A0004248007845EA80004249085C40490978A1
:1005B000084440B23E4908703C4805703C4890F9F8
:1005C000000004280EDB3C4890F90000142805DAEE
:1005D00039480078401C40B237490870002034493F
:1005E000087014E0324890F9000010F1040F0EDC9E
:1005F000314890F9000010F1140F05DD2E48007805
:10060000401E40B22C490870002029490870264835
:100610000068C0F3802429480078844205D0274828
:10062000047000202649087008E025480078142846
:1006300004DA23480078401C2149087020480078DB
:10064000142815D11F480078844211D01D48047029
:100650002CB900201C4908801C49087008E01B4880
:10066000007828B91A48007840F00100184908704D
:1006700014480078A0B91548007888B91248008855
:10068000401C80B210490880B0F5487F08DB104854
:10069000007840F002000E49087001200B490870F4
:1006A00004F0F0F970BD0000080C0140B300002018
:1006B000B8000020B4790008B0000020B400002089
:1006C000B5000020B7000020BA000020B6000020CE
:1006D000B10000200348007808B1012070470020D5
:1006E000FCE70000E200002070B503460C4615460A
:1006F00018785E7830449E783044DE783044C0B25A
:100700001E79B04201D0012070BD5878092804DC60
:10071000D87800F07F00092801DD0220F4E758783E
:100720001E7806EB860600EB4602D87800F07F00C4
:100730009E7806EB860600EB4601D87800F0800034
:1007400008B1484201B2B2F57A7F05DC11F1C80F59
:1007500002DBB1F5167F01DD0220D5E721802A807A
:100760000020D1E700487047BC0900203EB5044690
:1007700014212548FFF7F1FC002024490870244982
:100780000870244908700121052001F0A5FE02210E
:10079000214800F016FF482003F092F801210020C4
:1007A00000F062FE0220019000208DF808000C206D
:1007B0008DF8090001208DF80A0001A800F02AFB3D
:1007C0001648006820F0020014490860022000F07A
:1007D00007FB4FF4A06001F0E5FA07208DF8000058
:1007E00001208DF8010000208DF8020001208DF815
:1007F0000300684601F09EFA04F5FA6008490860B3
:100800000020014948723EBDBC090020E2000020E2
:10081000DE000020DF00002000080140000401404D
:10082000E40000207CB504465E48007860BB5E486A
:100830000068201A28D45D48006820F002005B4957
:10084000086000205A4908705A4908705A480068E0
:10085000C0F340005949C87208468089401C88810D
:10086000142003F02DF802215348083800F0A7FEA9
:1008700004F114005249086004F6C4104A490860A3
:100880000120484908707EE046480078012828D1B8
:100890004B480068201A24D44A48002101600171A5
:1008A00000204449087048490870022000F098FA76
:1008B00001203F4908703D48006840F002003B4974
:1008C000086002213C48083800F07BFE482002F016
:1008D000F7FF04F10A003A49086002203149087024
:1008E00051E03048007802284DD13248007818B9DC
:1008F00033480068201A46D42C48006820F00200D3
:100900002A49086000202A4908702F4800782B499E
:10091000887228480078012800D100E0002027498B
:10092000C87424480078012816D100250AE025481B
:10093000405D0DF805001DF8051020480E304155AA
:10094000681CC5B2052DF2DB1C4A921C911E68463C
:10095000FFF7CAFE06460BE01648007808B10420EF
:1009600005E01648C07A08B1032000E005200646DD
:100970001248467226B901201049087208464460A0
:100980000020084908700D48007A48B10B484068BB
:10099000201A41F27071884202D90020074908727A
:1009A0007CBD0000E2000020E400002000040140C3
:1009B000DF000020DE00002008080140BC09002004
:1009C000E8000020D8000020DD0000202DE9F041E3
:1009D0008EB0044620780A2802DB0EB0BDE8F08114
:1009E00001F0EAF92078C0B100207749087020783A
:1009F000032812D02078022802D02078092803D1B9
:100A0000607808B171A003E02078724951F82000A5
:100A100002460121042001F021FD207818B920466A
:100A200003F028FEA5E02078012802D102F0AEFEF6
:100A30009FE02078022803D1204603F00DFC98E0C7
:100A40002078032803D1204606F028F991E0207889
:100A5000042803D1204605F04FFE8AE020780528BF
:100A600003D1204606F00CFA83E02078062803D153
:100A7000204602F035FF7CE02078072803D120468D
:100A800006F086F875E0207808286FD100F00CFA9F
:100A90005149884201D9084601E000F005FA0646AE
:100AA00032464EA106A802F0E3F806A90E2002F095
:100AB000F7FD3C21A069B0FBF1F201FB1206B0FB8F
:100AC000F1F0B0FBF1F201FB12074FF46161A06994
:100AD000B0FBF1F01821B0FBF1F201FB12083B462C
:100AE000424641A106A8009602F0C2F806AA1B21C0
:100AF000112001F06DFC4149A069B0FBF1F6E06BFB
:100B000008B1E06B00E03EA0034632463DA106A8D6
:100B100002F0AEF806A92D2002F0C2FD00F0ACFAFA
:100B2000012815DD02A9012000F056FA80B90398CA
:100B300048B13C210398B0FBF1F6324636A106A835
:100B400002F096F80CE038A106A802F091F807E050
:100B500000F092FA0646324638A106A802F088F85C
:100B600006A93A2002F09CFD03E0FFE7204603F0CF
:100B7000EDF8E06930B3207838B9002008237F22EF
:100B800001460090402001F057FAE069FFF7F0FAC3
:100B900000EB4000042101EB4000C5B27C2D00DDDC
:100BA0007C250120C5F180010090C8B208237F2276
:100BB000002101F041FAC5F18201C8B20121E269C8
:100BC00001F057FC00BF08E74E01002042524F578A
:100BD00053450000540100203F420F00424F4F5444
:100BE0002023256C750000002530326C753A2530C5
:100BF000326C753A2530326C75000000805101006E
:100C00003F0000004441595320256C752020524577
:100C1000534554202573000050524556203E3D2038
:100C2000256C75204D494E0050524556204E4F20A0
:100C3000434845434B504F494E540000534553538E
:100C4000494F4E532025750000200549087005497D
:100C50000870054908700549086005490870704723
:100C60003E0100203D0100203C0100204001002009
:100C70004E0100202DE9F04704460F469046994664
:100C80001848007820B901201649087016480460F9
:100C900015480068201A01D5BDE8F08712480068A1
:100CA000201A6421B0FBF1F0461C012505E000226A
:100CB0001146104606F000FA6D1CB54201D2782D9F
:100CC000F5D34A464146384606F0F6F906EBC6002B
:100CD00000EB06100449096801EB80000249086036
:100CE00000BFD9E73E01002040010020704700000E
:100CF0002DE9F041022000F079F808B9BDE8F08153
:100D0000022000F06DF83048007800B9F6E702F0F4
:100D10002DFF06462D490988701A85B22B490E8091
:100D20002B48007818B9012029490870E6E72848BF
:100D3000007801280ED1782D01DBD22D06DD0020B0
:100D40002149087002202349087002E0022020494E
:100D50000870D3E7372D01DB962D06DD00201A49F8
:100D6000087002201B490870C8E719480078801EE7
:100D7000C4B22146E21704EB5272D210164B9A5CB1
:100D8000642D01DB012300E0002343EA42022046F8
:100D9000E31704EB5373DB100F4FFA540C48007841
:100DA000401CC0B20A4908702A280BD1002006490D
:100DB00008700120074908700848006820F0020008
:100DC0000649086000BF99E7DF000020E00000202E
:100DD000DD000020DE000020D800002000040140DB
:100DE00001490860704700001404014001460020DA
:100DF0000022074B1B6803EA0102054B14331B68F2
:100E00000B4013B10AB1012000E000207047000040
:100E100000040140002123498279002A3AD00A4681
:100E2000126803689A430B461A600A1D1268036829
:100E30009A430B1D1A60027911440A6803681A4329
:100E40000A60184A0832126803689A43154B08333F
:100E50001A601A1D126803689A43124B0C331A6009
:100E60004279102A0ED11A1F126803681A430D4BDB
:100E700008331A601A1D126803681A43094B0C33B1
:100E80001A600DE00749427911440A6803681A4361
:100E90000A6005E0027911440A6803689A430A600F
:100EA00070470000000401400148006870470000DE
:100EB000300100200148007870470000190100202F
:100EC0000948007803280BD007480078042807D089
:100ED00005480078052803D003480078062801D18A
:100EE000012070470020FCE71401002070B5054682
:100EF0000E460020254908702549087025490870CC
:100F00002549087025490870254908802549088029
:100F100025490880254908802549088025490880F9
:100F20002549086025490860254800210160416085
:100F30008160C16000240AE04FF0FF30214941F890
:100F400024000020204941F82400601C84B2FF2CBA
:100F5000F2D91E4806704EF6602028441C490860ED
:100F600000F07EFC022804D101F04EFDB0F5903F68
:100F700000D270BD01F048FDA0F590301549086021
:100F800001200249087000BFF3E7000014010020AF
:100F90001901002018010020170100201501002070
:100FA0002401002022010020200100201E01002039
:100FB0001C0100201A010020300100202C0100201B
:100FC000041900200411002004150020160100203F
:100FD0003801002028010020F0B589B005460C46F4
:100FE0005CB11B480088854207DA1A48007802285D
:100FF00003D100F035FC022802D0012009B0F0BD79
:10100000154931F8150002F019F90746202201A907
:1010100001F0F8FD20B108200E4908700120EDE72D
:10102000214601A802F00CFD10B1207B012801D05F
:101030000120E3E7267A094850F82600A168884293
:1010400003D1074850F8260060600020D6E7000072
:101050002401002014010020040B002004110020B2
:10106000041500200348008864214843C0F307208A
:10107000704700001A0100200148008870470000F6
:10108000240100200148007870470000140100206E
:101090002DE9F0438DB004468946E248007838B126
:1010A000E0480078072803D0DE480078082802D1FD
:1010B0000DB0BDE8F08300F0D3FB022800D0F7E7C5
:1010C00001F088FC0546022D03D10820D54908709F
:1010D000EEE7D4480078012878D105B1E8E7D24896
:1010E000008802F0ABF80746202205A901F08AFD2E
:1010F00018B10820CB490870DAE705A802F0D6F845
:1011000058BB01A905A802F09BFC38B306A803F060
:1011100097F807469DF81000012804D13946C248C7
:10112000008802F041F801A806F00CF8BF480078EA
:1011300020B1BF480068381A00280EDD0120BB49E5
:101140000870BB480760B8480088BA490880BA48A8
:1011500001A991E80E10A0E80E1008E005A803F020
:101160006FF8B649884202D00120B5490870AE48F0
:101170000088401C80B2AC490880B0F5807F23D144
:10118000AF48007818B10720A649087090E7A74833
:10119000007818B1A8488068AA490860A348007878
:1011A00020B1A4480088401C80B200E00020A6497D
:1011B0000880A4480068401CA24908600120A34997
:1011C000087002209749087072E7FFE79548007899
:1011D000032810D13DB19E480068201A02D408208F
:1011E0009049087064E79B4800889B490880042068
:1011F0008C4908705CE78B480078042839D1964800
:10120000008802F01BF80746202205A901F0FAFC2D
:1012100018B905A802F04AF818B9082081490870E1
:1012200046E78D480088401C81B28B480180894880
:1012300000888030814200D23AE786480088C0F3B7
:10124000C71002F005FD8348008801F0F7FF07464C
:101250001F22824901F098FC18B1082071490870DA
:1012600026E705206F49087004F1320078490860CC
:101270001EE76C480078052837D13DB174480068F6
:10128000201A02D408206749087011E771480088C5
:1012900001F0D4FF0746202205A901F0B3FC28B9CC
:1012A0001F226E4905A8FEF76AFF18B108205D49A4
:1012B0000870FDE6A5208DF814006648008801F04E
:1012C000BDFF00F11F07012205A9384601F05CFCB3
:1012D00018B1082053490870EAE606205149087001
:1012E00004F132005A490860E2E64E4800780628C8
:1012F00047D13DB156480068201A02D40820494918
:101300000870D5E65348008801F098FF0746202270
:1013100005A901F077FC20B901A905A802F090FB0E
:1013200018B908203F490870C2E606A802F088FFF5
:101330003F490860474800883E4908803E4801A967
:101340008EC98EC00120394908709DF8100001280F
:1013500001D1434908709DF81000012805D1344897
:1013600001683C48008801F01FFF01A805F0EAFE73
:1013700030480088401C3449088002202949087000
:1013800096E638480068201A0AD43048007838B900
:1013900002202E4908704EF6602020443149086032
:1013A0002A48007800B105B182E6284890F800800C
:1013B00002F092F9064606B97AE64946404605F03B
:1013C00027F9022E13D12348008801F037FF074682
:1013D00001F020FB18B108201249087068E60320CC
:1013E0001049087004F2DC501949086014E01948EB
:1013F000008801F023FF07461F22184901F0C4FBB3
:1014000018B108200749087052E605200549087000
:1014100004F132000E49086000200C49087000BF3A
:1014200046E60000140100201A01002018010020E7
:101430002C0100201C0100200419002045565431C5
:10144000170100203001002020010020150100209C
:10145000340100201E01002022010020E40A0020A7
:10146000190100203801002030B500228B071C0F25
:101470000F2303FA04F20B4B8C1053F824309343E0
:10148000084C8D1044F8253023468C1053F8243036
:101490008C07240F00FA04F42343024C8D1044F807
:1014A000253030BD080001402DE9F04102460025FD
:1014B0000026002000230024002791F803C00CF030
:1014C0000F0591F803C00CF0100CBCF1000F03D015
:1014D00091F802C04CEA050591F800C0BCF1000F7C
:1014E00031D0146800202BE04FF0010C0CFA00F30F
:1014F000B1F800C00CEA03069E4220D183004FF0F1
:101500000F0C0CFA03F7BC4305FA03FC4CEA040485
:1015100091F803C0BCF1280F06D14FF0010C0CFA72
:1015200000FCC2F814C00AE091F803C0BCF1480FF7
:1015300005D14FF0010C0CFA00FCC2F810C0401CA1
:101540000828D1D31460B1F800C0BCF1FF0F34DD1E
:10155000546800202EE000F1080C4FF0010808FA52
:101560000CF3B1F800C00CEA03069E4221D18300BF
:101570004FF00F0C0CFA03F7BC4305FA03FC4CEADE
:10158000040491F803C0BCF1280F05D100F1080C48
:1015900008FA0CF8C2F8148091F803C0BCF1480FA7
:1015A00007D100F1080C4FF0010808FA0CF8C2F856
:1015B0001080401C0828CED35460BDE8F081416102
:1015C00070470161704700BFFEE7000008B50121C8
:1015D000102000F081FF4FF40050ADF80000102003
:1015E0008DF8030003208DF8020069460248FFF7DA
:1015F0005BFF00F003F808BD0010014010B54FF488
:1016000000510248FFF7DDFF10BD0000001001404F
:1016100010B54FF400510248FFF7D1FF10BD000094
:1016200000100140014800887047000002010020BE
:1016300070B504460D46204602F0F6FD1E4988426C
:1016400013D1E07FA52810D104F1180002F0ECFDC1
:1016500006461821204602F0F3F8864205D104F12F
:10166000140002F0E1FD032801D9012070BD201D06
:1016700002F0DAFD286004F1080002F0D5FD686090
:1016800004F10C0002F0CAFD00B2288104F10E0042
:1016900002F0C4FDE88104F1100002F0BFFD00B2C9
:1016A000688104F1120002F0B9FD00B2A881207D2A
:1016B00028740020DAE700004C4F473110B504468B
:1016C000002015490870154908701549087015491A
:1016D00008801549088015490880154908602021AF
:1016E0001448FEF73AFD01F0BFF920B901F08CF97A
:1016F000B0F5803F00D210BD01F086F9A0F5803032
:101700000D49086001200449087004F5FA600B498E
:10171000086000BFEFE70000F8000020FA0000209A
:10172000F90000200001002002010020FC00002040
:1017300008010020F00900200C0100201001002009
:1017400001480068704700000801002070B588B0AB
:1017500004460D461348007884420BDA124800789C
:10176000012807D010480078032803D00E480078DD
:10177000042802D1012008B070BD0C4931F81400D2
:1017800001F054FD06462022694601F03BFA20B1E3
:101790000420054908700120EDE729466846FFF757
:1017A00047FFE8E7FA000020F8000020100A0020B8
:1017B0000148007870470000FA00002010B5044688
:1017C0001A480078022803D1207C00F0030008B9F1
:1017D000012010BD142221461548FEF7A5FC15482E
:1017E0000068401C124908601349098811B9114961
:1017F000096849B111490988481CC11700EB5151CA
:10180000C912A0EBC12100E000210D4A1180002087
:101810000C49088001200C49087003200349087016
:10182000034802F04FFA0020D3E70000F800002040
:10183000D00A002008010020020100200001002041
:10184000FE00002004010020F90000200348008869
:1018500064214843C0F3C72070470000FC0000200B
:101860000148007870470000F800002070B58EB085
:101870000446C8480078012805D0C64800780328E7
:1018800001D00EB070BD01F0A5F80546022D03D1C0
:101890000420C0490870F4E7BE480078012863D1ED
:1018A0003DB1BD480068201A02D40420B94908702F
:1018B000E7E7BA48008801F0B9FC0646202206A9ED
:1018C00001F0A0F918B10420B2490870D9E706A8C0
:1018D00001F0DEFCD8BB06A802F0A6FCB0498842A5
:1018E00003D00520AB490870CBE701A906A8FFF794
:1018F0009FFE60BBAB48008828B1AB4901980968DE
:10190000401A002806DDA84901980860A34800880D
:10191000A6490880A3480088401CA24908809F4926
:101920000888C11700EB5161C911A14A32F81110A2
:10193000491C9A4A1088C21700EB5262D2119C4B84
:1019400023F8121095480088019901F0EDFB9348A7
:101950000088401C80B291490880B0F5006F02D128
:1019600002208C4908708CE792480078012808D042
:101970003DB189480068201A02D4042085490870C6
:101980007FE78C48007801285ED105B179E78A4964
:101990000888C11700EB5161C911A0EBC11199B9B9
:1019A0008548008801F042FC064601F033F818B182
:1019B00004207849087064E702207E49087004F228
:1019C000DC50754908605CE77B48008801F02EFC1C
:1019D0000646202206A901F015F918B104206D4928
:1019E00008704EE706A801F053FCB8B9724909889F
:1019F000481CC11700EB5151C912A0EBC1216E4A1E
:101A000011806E480088401C80B26C490880B0F597
:101A1000006F02DB04205F49087032E766480088E7
:101A200001F004FC06461F22654901F0ADF818B12B
:101A300004205849087024E703205E49087004F127
:101A4000320055490860A3E05A480078022830D196
:101A50005948008801F0EAFB0646202206A901F059
:101A6000D1F818B906A801F013FC18B904204949A7
:101A7000087006E750490E88F11706EB5161C1F373
:101A8000C71002F0A9F84C48008801F0CFFB0646C9
:101A90001F224B4901F078F818B104203D49087025
:101AA000EFE603204349087004F132003A49086028
:101AB0006EE04048007803282ED13F48008801F0AE
:101AC000B5FB0646202206A901F09CF828B91F2282
:101AD0003B4906A8FEF753FB18B104202D490870B6
:101AE000CFE6A5208DF818003348008801F09EFB52
:101AF00000F11F06012206A9304601F045F818B191
:101B0000042024490870BCE604202A49087004F126
:101B10003200214908603BE02748008801F086FB3D
:101B20000646202206A901F06DF820B901A906A8F1
:101B3000FFF77EFD18B1042016490870A1E61E4883
:101B400000881A4908801F4800681749086015482E
:101B50000088401C1349088017490888C11700EB0A
:101B60005161C911124A32F81110491C124A1088E9
:101B7000C21700EB5262D2110D4B23F8121011481C
:101B800001680D48008801F0CFFA02200149087071
:101B900000BF76E6F800002010010020FC000020C5
:101BA0004C4F4731020100200801002000010020B5
:101BB000F0090020F9000020FE00002004010020B0
:101BC000D0090020D00A002038B580226B2168207F
:101BD00000F0BAFE08B1012038BD642001F0D0FF4A
:101BE00001226B21682000F0AFFE08B10120F3E76D
:101BF0000A2001F0C5FF04221921682000F0A4FE8C
:101C000008B10120E8E703221A21682000F09CFEB9
:101C100008B10120E0E700221B21682000F094FEBB
:101C200008B10120D8E700221C21682000F08CFEBA
:101C300008B10120D0E70A2001F0A2FF00F068F807
:101C4000682801D00120C7E7002410E00A48015DA0
:101C50006A46682000F0F0FD28B90848005D9DF84C
:101C60000010884201D00120B6E7601CC4B2052CE8
:101C7000ECDB0020B0E70000CA780008CF7800084D
:101C80007FB504460D4616460E236A463B21682062
:101C900000F0DEFD10B1012004B070BD9DF8010020
:101CA0009DF8001040EA012000B220809DF803005A
:101CB0009DF8021040EA012000B260809DF8050006
:101CC0009DF8041040EA012000B2A0809DF80700B2
:101CD0009DF8061040EA012000B230809DF809000E
:101CE0009DF8081040EA012000B228809DF80B0002
:101CF0009DF80A1040EA012000B268809DF80D00AE
:101D00009DF80C1040EA012000B2A8800020C3E733
:101D100008B5002000906A467521682000F08CFD0F
:101D200008B1FF2008BD9DF80000FBE700BFFEE7FB
:101D30007047000070B5002100230F22C47804B35F
:101D4000154C246804F4E064C4F5E064210AC1F190
:101D50000403CA40447804FA03F184781440214310
:101D600009010E4C0678A155047804F01F050124E2
:101D7000AC4005786D11AD0005F1E025C5F80041D6
:101D800009E0047804F01F050124AC40044D0678F6
:101D9000761145F8264070BD0CED00E000E400E04F
:101DA00080E100E002490143024A116070470000EF
:101DB0000000FA050CED00E000200CE0002106E038
:101DC0000022064B03EBC0135A544A1CD1B280299F
:101DD000F6DB421CD0B20828F0DB7047BC010020C3
:101DE0002DE9F04706460F4690469A4600244546A0
:101DF0004FEA4800C0F103094AE07A19D1B232191A
:101E0000D0B2524600F0C6F87A19D1B2321BD0B225
:101E1000524600F0BFF87A1BD1B23219D0B2524606
:101E200000F0B8F87A1BD1B2321BD0B2524600F0A3
:101E3000B1F83A19D1B27219D0B2524600F0AAF8EC
:101E40003A19D1B2721BD0B2524600F0A3F83A1B35
:101E5000D1B27219D0B2524600F09CF83A1BD1B2FE
:101E6000721BD0B2524600F095F8B9F1000F05DAB6
:101E7000A000801D48440FFA80F907E0601B800035
:101E80000A3048440FFA80F9681E05B2601C04B29B
:101E9000AC42B2DDBDE8F0872DE9F0430746884645
:101EA0001446994665421BE0664215E006FB06F1C2
:101EB00005FB051104EBD472521012B204FB04228C
:101EC000914207DC08EB0502D1B2BA19D0B24A46FA
:101ED00000F060F8701C06B2A642E7DD681C05B28F
:101EE000A542E1DDBDE8F0832DE9FF4F04460D4634
:101EF00016461F46A046AA46A64201DD301B00E05A
:101F0000A01B8346AF4201DD781B00E0E81B039075
:101F1000B44201DA012001E04FF0FF300290BD42EF
:101F200001DA012001E04FF0FF3001900398ABEBA4
:101F300000000FFA80F928E00AF0FF0108F0FF0026
:101F40000D9A00F027F8B04502D1BA4500D11DE046
:101F50004FEA490000B20090039949420098884234
:101F600008DD0398A9EB00000FFA80F902984044BD
:101F70000FFA80F80098584507DA09EB0B000FFAC2
:101F800080F9019850440FFA80FAD5E700BFBDE808
:101F9000FF8F000070B50B4614467F2801DC3F2BF5
:101FA00000DD70BDD91003F0070264B10C4D05EBE4
:101FB000C1152D5C01269640F6B23543084E06EB5E
:101FC000C11635540AE0064D05EBC1152E5C0125FE
:101FD0009540AE43024D05EBC1152E5400BFE0E71E
:101FE000BC0100202DE9F0430746884615461E46F1
:101FF000DDF81C903C460BE0E0B24A464146FFF754
:10200000C9FFE0B24A463146FFF7C4FF601C84B204
:10201000AC42F1DD44460BE0E1B24A463846FFF7F8
:10202000B9FFE1B24A462846FFF7B4FF601C84B20C
:10203000B442F1DDBDE8F0832DE9F04706460F46D6
:1020400090469946DDF820A034460CE03D4606E077
:10205000E9B2E0B25246FFF79DFF681C85B24D45DC
:10206000F6DD601C84B24445F0DDBDE8F087000079
:1020700010B5CF201649087016490870002016497F
:102080000860164908701649087016490870164904
:10209000087016490870164908701649087000241F
:1020A0000EE01548025D04EB4400144BC1183C20BF
:1020B00000F01EFC10B103F01FFC03E0601CC4B272
:1020C000102CEED300BFFFF777FE00F019F810BD1B
:1020D0009D0000209C000020A0000020A400002003
:1020E000A7000020A6000020A5000020AA000020D4
:1020F000A9000020A8000020FC770008CC77000889
:1021000010B500F0C1F901E000F00CF800F004F89F
:102110000028F9D110BD0000014800787047000088
:10212000A5000020F0B58BB042A103C9CDE909019B
:102130004248007808B90BB0F0BD69E04049087822
:10214000C11700EB91718D103D490878C11700EB64
:1021500091718910A0EB810149070E0E3948007872
:1021600008B9012000E00020074600240EE03648B0
:1021700000EBC5103119405C344901EBC51132192F
:10218000895C884200D00127601CC4B2202CEEDBA1
:102190002B480078401C2A49087007B938E08DF8B0
:1021A000266006F11F00C0B28DF827008DF82A5076
:1021B0008DF8295040208DF80000002408E02348C5
:1021C00000EBC5103119415C601C0DF80010C4B261
:1021D000202CF4DB072209A93C2000F089FB28B958
:1021E000212269463C2000F083FB10B103F084FB00
:1021F000A1E7002409E0601C1DF80000124901EB72
:10220000C51132198854601CC4B2202CF3DB03E0E2
:102210000B480078202891DB00BF0948007820286F
:1022200005D100200549087001200649087000BF4B
:1022300081E700000021000022000000A50000202E
:10224000A6000020A7000020BC050020BC01002043
:1022500038B5044647A00068009047480078002839
:1022600041D04648007838B904F5FA70444908600E
:1022700001204249087038BD41480068201A00D545
:10228000F9E74048404B1B78C25C3F48007800EBC0
:1022900040003E4BC1183C2000F02AFB48B1002012
:1022A0003949087004F5FA703549086000F054FAAD
:1022B000E1E73348046034480078401CC0B232493A
:1022C000087010280ED100202C4908702A49087087
:1022D000CF202F49087000202E4908702E49087021
:1022E00000F0D2F8C7E72D48007860B92848007898
:1022F0002B490978884206D02648007820B1294821
:102300000068201A00D5B6E72548007820490978EA
:10231000884202DD224800780DE01D4800782049FF
:102320000978401A082803DD19480078083801E0C8
:102330001B480078C0B205468DF80250032269465A
:102340003C2000F0D5FA48B103F0D6FA04F5FA7053
:102350000B4908600120094908708CE70C4805709A
:1023600004F128000F49086001200A49087000BFE5
:1023700081E7000000810000A8000020AA000020E2
:10238000AC000020FC770008A9000020CC770008F2
:102390009C000020A4000020A7000020A500002031
:1023A0009D000020A000002008B1282200E0CF22DC
:1023B0001146054A1278914204D0034A1170002256
:1023C000024B1A70704700009D000020A4000020FE
:1023D0002DE9F05F06468846174636E000242EE0D9
:1023E0003878214604F006FB8346002523E04FF0B1
:1023F00000091BE04FF0000A11E04BFA05F303F06F
:10240000010208EB45035344D9B206EB44034B44A5
:10241000D8B2FFF7BFFD0AF1010000F0FF0ABAF1E0
:10242000020FEADB09F1010000F0FF09B9F1020F28
:10243000E0DB681CC5B2072DD9DB601CC4B2062CDA
:10244000CEDB06F10C00C6B27F1C387820B1742EAA
:1024500002DCB8F1320FC1DDBDE8F09F70B5044673
:102460000D461646002332462946204604F014FB4A
:1024700070BD70B504460D46164601233246294606
:10248000204604F009FB70BD0748007810B90748E2
:10249000007800B17047002005490870012002490A
:1024A000087000BFF6E70000A5000020A80000208B
:1024B000A60000207047000029B1064AD2690243F5
:1024C000044BDA6104E0034AD2698243014BDA61CA
:1024D000704700000010024029B1064A9269024389
:1024E000044B9A6104E0034A92698243014B9A616A
:1024F000704700000010024029B1064AD26802432A
:10250000044BDA6004E0034AD2688243014BDA608C
:1025100070470000001002400348406A40F080709D
:1025200001494862704700000010024030B50021A8
:102530000022002400232D4D6D6805F00C0121B10F
:10254000042905D0082923D105E0294D056022E0A2
:10255000274D05601FE0254D6D6805F47012234D71
:102560006D6805F48034022505EB92421CB9214DBB
:10257000554305600BE01D4D6D6805F400351DB138
:102580001C4D5543056002E0194D5543056002E0BE
:10259000174D056000BF00BF144D6D6805F0F001D8
:1025A0000909154D6B5C0568DD4045600F4D6D6890
:1025B00005F4E061090A104D6B5C4568DD408560FB
:1025C0000A4D6D6805F46051C90A0B4D6B5C456896
:1025D000DD40C560054D6D6805F44041890B074D30
:1025E0006B5CC568B5FBF3F5056130BD00100240BA
:1025F00000127A0000093D007C0100208C010020BF
:1026000021B1028842F04002028004E002884FF6C5
:10261000BF731A400280704710B50022028802F48E
:1026200041520B884C8823438C882343CC88234316
:102630000C8923434C8923438C892343CC8923432E
:102640001A430280838B4FF2FF74234083830B8AEB
:10265000038210BD0021018041808180C180018101
:1026600041818181C181072101827047704710B586
:1026700000F002F810BD00000CB5002001900090A1
:102680003348006840F480303149086000BF30486A
:10269000006800F4003000900198401C0190009800
:1026A00018B90198B0F5A06FF1D12948006800F47D
:1026B000003010B10120009001E00020009000984F
:1026C000012843D12348006840F0100021490860E8
:1026D0000846006820F0030008600846006840F0E3
:1026E000020008601A484068194948600846406876
:1026F00048600846406840F480604860084640688A
:1027000020F47C1048600846406840F4E8104860B7
:102710000846006840F08070086000BF0C48006800
:1027200000F000700028F9D00948406820F003004C
:10273000074948600846406840F00200486000BF12
:102740000348406800F00C000828F9D10CBD0000D7
:10275000001002400020024010B580211948FEF709
:1027600030FF40211748FEF72CFF01F055FE1548B9
:1027700008300068C0F3C01088B900240DE0402183
:102780001048FEF71CFF01F047FE40210D48FEF700
:1027900018FF01F041FE601CC4B2092CEFDB802160
:1027A0000848FEF70CFF01F037FE40210548FEF710
:1027B00008FF01F031FE80210248FEF702FF01F020
:1027C0002BFE10BD000C014008B501210820FFF7C9
:1027D00083FEC020ADF8000014208DF80300032014
:1027E0008DF8020069460648FEF75EFE4021044867
:1027F000FEF7E7FE80210248FEF7E3FE08BD000079
:10280000000C014070B5044601F0B6FE18B101F0AD
:10281000E5FE002070BD6106080E01F05DFE054674
:1028200001F0DCFE25B90348007808B90120F1E782
:102830000020EFE79800002070B504460D461646CC
:10284000012332462946204600F002F870BD000000
:102850002DE9F04105460F4690461E4601F08CFEDC
:1028600020B101F0BBFE0120BDE8F0816906080E31
:1028700001F032FE18B101F0B1FE0120F4E7384654
:1028800001F02AFE18B101F0A9FE0120ECE701F0E9
:1028900073FE18B101F0A2FE0120E5E7012101EB72
:1028A0004501C8B201F018FE18B101F097FE0120F1
:1028B000DAE7002413E0711EA14201DD012100E0EE
:1028C0000021084601F0B4FD08F80400074800782C
:1028D00018B101F083FE0120C6E7601C84B2B44247
:1028E000E9DB01F07BFE01480078BDE7980000209D
:1028F0002DE9F04105460E46174601F03DFE20B198
:1029000001F06CFE0120BDE8F0816906080E01F0BF
:10291000E3FD18B101F062FE0120F4E7002409E0B4
:10292000305D01F0D9FD18B101F058FE0120EAE751
:10293000601C84B2BC42F3DB01F050FE0148007819
:10294000E1E7000098000020F8B506460C46154661
:102950008DF800408DF80150022269463046FFF79D
:10296000C7FFF8BD10B501F017F9FDF707FE10BD60
:1029700010B51348006840F001001149086008468E
:102980004068104908400E494860084600680E49F2
:1029900008400B4908600846006820F48020086061
:1029A0000846406820F4FE0048604FF41F0088602D
:1029B000FFF75DFE4FF000600449086010BD0000A5
:1029C000001002400000FFF8FFFFF6FE08ED00E0F7
:1029D00000BFFEE710B50A48006810B1094800784A
:1029E00008B1022010BD04F0A1F8044605480078A3
:1029F00008B9FF2C01D10220F4E704F00100F1E74F
:102A0000F0000020F400002001480068704700003A
:102A1000F000002010B504460E48006848B10D488B
:102A20000068844205D2C4F30B0010B904F0B8FB6F
:102A300008B1012010BD012003F0CCFF202004F0DC
:102A4000E5F9204600F002FC002003F0C3FF024835
:102A50000078EFE7F0000020F40000200148006853
:102A600070470000EC00002070B586B0002041499E
:102A700008604149086041490870012141F20400A1
:102A8000FFF72AFD10213E48FEF79BFD1020ADF810
:102A900014008DF8170003208DF8160005A938489A
:102AA000FEF702FDA020ADF8140018208DF81700E5
:102AB00005A93348FEF7F8FC4020ADF814000420C7
:102AC0008DF8170005A92E48FEF7EEFC6846FFF7C3
:102AD000C1FD4FF48270ADF802004FF40070ADF804
:102AE0000A001820ADF80C0069462648FFF794FD4F
:102AF00001212448FFF784FD012003F06BFFAB2088
:102B000004F084F9002003F065FF0A2001F04CF87E
:102B1000012003F05FFF9F2004F078F9FF2004F00C
:102B200075F90646FF2004F071F90546FF2004F010
:102B30006DF90446002003F04DFF300440EA052003
:102B400020430C4908600D48007848B9EF2E07D1A2
:102B5000402D01D0702D03D1122C01DB182C02DD89
:102B6000012006B070BD0120A0400349086000208C
:102B7000F7E70000EC000020F0000020F400002047
:102B800000080140003001402DE9F04105460F46A4
:102B900014461A48006888B184B1B4F5807F0DDC12
:102BA000E8B22044B0F5807F08D814480068854218
:102BB00004D212480068401BA04202D20120BDE8A6
:102BC000F08104F0EDFA08B10120F8E7012003F0EC
:102BD00001FF022004F01AF9284600F037FB002616
:102BE00004E0B85D04F012F9701C86B2A642F8DB6E
:102BF000002003F0EFFE02480078E0E7F00000203C
:102C0000F40000202DE9F04106460F461446164810
:102C1000006860B15CB114480068864207D212486F
:102C20000068801BA04202D3FFF7D4FE10B1012040
:102C3000BDE8F081012003F0CDFE032004F0E6F8AA
:102C4000304600F003FB002505E0FF2004F0DEF82D
:102C50007855681C85B2A542F7DB002003F0BAFE68
:102C600002480078E4E70000F0000020F4000020B3
:102C70000FB4084B10B504A902AA039800F01CF881
:102C8000044602A9002000F042FA204610BC5DF87C
:102C900014FB00000F31000802E008C8121F08C131
:102CA000002AFAD170477047002001E001C1121FCD
:102CB000002AFBD1704700002DE9FF4F8DB00F4671
:102CC0000546002606E025280BD0DDE90F129047C7
:102CD0006D1C761C28780028F5D111B03046BDE86F
:102CE000F08F0024A246A1460122E94900E00443F6
:102CF00015F8013F203B02FA03F00842F7D128788B
:102D00002A2810D06FF02F022878A0F1300109296D
:102D100014D80AEB8A0102EB410144F0020400EBF3
:102D2000010A6D1CF0E701CF5FEA000A03D544F405
:102D30000054CAF1000A44F002046D1C28782E28C1
:102D400017D115F8010F44F004042A280ED06FF0B3
:102D50002F022878A0F1300109290AD809EB89014E
:102D600002EB410100EB01096D1CF2E757F8049BEF
:102D70006D1C28786C280FD006DC4C2817D06828EA
:102D80000DD06A2814D104E0742810D07A280FD10D
:102D90000DE044F400140AE044F4801401E044F42B
:102DA00040146978814202D104F580146D1C6D1CB9
:102DB00028786E281ED00CDC632830D004DC002874
:102DC0008BD0582811D19FE0642867D069280CD196
:102DD00064E073282DD004DC6F2872D0702804D1F1
:102DE00094E075286ED078286DD0DDE90F129047F9
:102DF000761C4BE1C4F30250022806D0032809D008
:102E0000042801CF09D0066040E101CFF117C0E9E5
:102E100000613BE101CF068038E1067036E117F82A
:102E2000040B8DF8000000208DF80100EB46012016
:102E300003E057F804BB4FF0FF3061074FF000018B
:102E400002D40DE008F10101884649450FDA8045BA
:102E5000F8DB1BF808100029F4D108E008F10101A3
:102E600088468142FADB1BF808100029F6D1DDE91B
:102E70000F23AAEB08008146214600F031F93044C7
:102E800000EB080604E0DDE90F121BF8010B904788
:102E9000B8F10108F7D221464846F2E00A21C4F30E
:102EA00002524FF0000B0891022A04D001CFC11743
:102EB000032A09D00AE0FF1D27F00707F7E80201FF
:102EC00008E02CE01EE01FE000B2C117042A01D187
:102ED00040B2C117021E71F1000206DA0023D0EBE6
:102EE000030063EB01012D2202E0220504D52B2211
:102EF0008DF82420012203E0E20701D02022F7E729
:102F0000904653E00A210BE0102109E010214FF018
:102F1000000B44F004044FF00809089103E0082175
:102F20004FF0000B0891C4F30252022A04D001CFE3
:102F30000021032A06D006E0FF1D27F00707F7E867
:102F4000020103E080B2042A00D1C0B24FF00008B1
:102F500022072BD52A78702A07D0DDF820C08CF004
:102F6000100C5CEA0B0C05D00EE040228DF82420FA
:102F7000012208E050EA010306D030238DF8243006
:102F80008DF8252002229046089B83F0080353EA1F
:102F90000B030BD150EA010201D1620706D53022A2
:102FA0008DF824204FF00108A9F101092A78582A48
:102FB00004D038A20B9208AA0A920BE03AA2F9E7D1
:102FC0005B46089AFDF7F1F80B9B9B5C0A9A521E30
:102FD0000A92137050EA0102F2D10A98ADEB000098
:102FE00000F1200B600702D524F4803401E04FF09B
:102FF0000109D94502DDA9EB0B0000E0002000EB40
:103000000B0141440890AAEB010AE00306D4DDE974
:103010000F232146504600F063F806444FF00009A4
:1030200008E009A911F80900DDE90F12904709F13C
:103030000109761CC145F4DBE0030CD5DDE90F2363
:103040002146504600F04CF8064404E0DDE90F123A
:1030500030209047761C0899481E08900029F5DC1E
:1030600008E00A980A990078491C0A91DDE90F12D4
:103070009047761CBBF10001ABF1010BF1DC21465E
:103080005046DDE90F2300F019F806446D1C21E6D7
:10309000092801003031323334353637383961622E
:1030A00063646566000000003031323334353637F2
:1030B0003839414243444546000000002DE9F041C3
:1030C000044600251E461746880404D405E0394608
:1030D0002020B0476D1C641EF9D52846BDE8F0815C
:1030E0002DE9F041044600251E469046C80301D54F
:1030F000302700E02027880404D505E04146384603
:10310000B0476D1C641EF9D52846BDE8F0810A68F9
:10311000531C0B60107070470146002901DA4842C9
:1031200070470846FCE7000030B503460A46002019
:1031300001E0441CE0B2194C2478A04205DA184C96
:1031400054F82040141B002CF3DD202800D130BDA2
:10315000124C2478202C04DA104C2478641C0F4D77
:103160002C700E4C2478641EE1B20DE04C1E0C4D08
:1031700055F8244045F821404C1E0A4D35F81440BE
:1031800025F811404C1EE1B28142EFDC044C44F8BA
:103190002020044C24F8103000BFD8E7FA000020AB
:1031A000500A0020100A002030B503460A460020CD
:1031B00001E0441CA0B21A4C2488A04205DA194C44
:1031C00054F82040141B002CF3DDB0F5807F00D1B3
:1031D00030BD134C2488FF2C04D8114C2488641C67
:1031E0000F4D2C800E4C2488641EA1B20DE04C1EA5
:1031F0000C4D55F8244045F821404C1E0A4D35F839
:10320000144025F811404C1EA1B28142EFDC054C60
:1032100044F82020044C24F8103000BFD8E7000008
:1032200024010020040D0020040B00200146024868
:10323000006800EB411070470C0100200146024875
:10324000006800EB411070472801002010B50446CB
:10325000C4F3074003F0DAFDC4F3072003F0D6FD02
:10326000E0B203F0D3FD10BD70B505460C4604B9BD
:1032700070BDFDF75FF80120034908702819034964
:10328000086000BFF4E70000100000201C000020D0
:103290000246002106E0505CFF2801D00020704764
:1032A000481CC1B22029F6DB0120F8E702460021C4
:1032B00006E0505CFF2801D000207047481CC1B2D6
:1032C0002029F6DB0120F8E72DE9F04105460C4600
:1032D0001646204604EBD071C1F34F07BD4201DA18
:1032E000284600E0601B1FFA80F83946404600F08F
:1032F000DCFCA6F10E01090248434FF4606101EBCA
:10330000902080B2BDE8F0810146002906DB01F182
:103310008003D81703EB1060001206E0C1F18002B1
:10332000D01702EB10600012404240B2704700001C
:103330002DE9F04706460D469046994640F6B830CE
:10334000864201DD064603E01748864200DA06465B
:1033500040F6B830854201DD054603E0124885425B
:1033600000DA054606FB06F005FB0507384603F0C4
:1033700079FA044604FB04F0B84200D2641C962C8F
:1033800000D2962405EB8500800290FBF4F0C8F88B
:103390000000704200EB8000800290FBF4F0C9F85E
:1033A0000000BDE8F087000048F4FFFF7CB505464B
:1033B0006B4601AAD5E90201FFF7BAFF3048007851
:1033C00098B93049019808602F4900980860012099
:1033D0002B4908700198FFF797FF2C490870009857
:1033E000FFF792FF2A49087046E02A49686C09688D
:1033F000441A642C00D96424224901980968401AAF
:10340000604304F12D0190FBF1F01E490968084466
:103410001C4908601C4900980968401A604304F17F
:103420002D0190FBF1F0184909680844164908601D
:10343000164890F9000013490968A1EB0026A02E58
:1034400002DC16F1A00F05DA0E480068FFF75CFFFA
:103450000E4908700E4890F900000B490968A1EB6D
:103460000026A02E02DC16F1A00F05DA064800683F
:10347000FFF74AFF064908700649686C08607CBD82
:103480004E01002044010020480100204C01002092
:103490004D01002050010020014601220F4B1A70FF
:1034A00000220F4B1A700F4B1A700F4B1A700F4AF5
:1034B000116000200EE000220D4B43F8202047F65B
:1034C000FF720C4B23F81020521C0B4B23F81020DA
:1034D000421CD0B20328EEDB704700002000002021
:1034E00024000020230000202200002034000020BF
:1034F000B0010020260000202C0000202DE9F04122
:1035000006460D4617465748007828B156480168C8
:10351000304600F0C5FB08B9BDE8F08106F10A00AD
:103520005149086051480078401C504908705FB309
:103530004F480078401C4E490870002422E04D4856
:1035400050F8240035F9141008444A4941F8240081
:1035500035F91400484931F91410884204DA35F875
:103560001400454921F8140035F91400434931F994
:103570001410884204DD35F81400404921F8140085
:10358000601CC4B2032CDADB38480078642800DA07
:10359000C2E7374800785A2801DB012000E000200C
:1035A0008046B8F1000F1CD000240DE0334830F9FC
:1035B0001400314931F91410401AB0F5966F01DD4D
:1035C0004FF00008601CC4B2032CEFDB2948806870
:1035D0002749097890FBF1F0B0F5FA5F01DA4FF076
:1035E000000800201F490870B8F1000F30D02148B2
:1035F00000681F49097890FBF1F0214908601D48D7
:1036000040681B49097890FBF1F01E490860194891
:1036100080681749097890FBF1F01B490860002485
:103620000CE0144850F824001149097890FBF1F09F
:103630000002164941F82400601CC4B2032CF0DBE0
:103640000120134908701349087001F04DF906E094
:1036500001201149087006F57A701049086000BF12
:103660005AE7000020000020340000202300002042
:1036700024000020B0010020260000202C000020A3
:10368000000000200400002008000020A401002009
:10369000210000200C000020220000203800002023
:1036A0002DE9F04105460C462046FCF761FD00EB94
:1036B00040004006060E802E05DAC6F1800707EBB3
:1036C000D771491000E00021C8B222462946FEF712
:1036D000C5FEBDE8F081000030B589B0264800780D
:1036E00068B926480088B0F5807F05D107202449B5
:1036F0000870002009B030BD4FF4807411E02148FB
:103700000088012101EBD0104FF6FF7101EAC014CF
:103710001A480088A04204DBE0B21B49088002205E
:10372000E8E716480088FFF789FD0546202201A931
:10373000FFF768FA20B10820114908700020D9E786
:1037400001A8FFF7B3FD28B10C4800880E49088096
:103750000120CFE709480088401C08490880084636
:103760000088A04205DB0448007810B9072004490E
:1037700008700020BEE70000180100202001002092
:10378000140100201C0100201E0100201FB5FCF7C1
:10379000E9FF044620A211210620FEF75FFE20A2C9
:1037A00011214A20FEF75AFE207A98B1B4F9001090
:1037B000684600F037FF6A461F210320FEF708FE27
:1037C0006188684600F02EFF6A461F214420FEF7FC
:1037D000FFFD09E014A21F210F20FEF7F9FD12A240
:1037E0001F215320FEF7F4FD10A234210820FEF71C
:1037F00035FE0FA234214C20FEF730FE607A48B12E
:10380000207A08B10BA000E00BA002460121622043
:10381000FEF724FE1FBD000054454D50000000007F
:1038200048554D49440000002D2D00004300000084
:10383000255248004F4C44005741495400000000B5
:1038400030B503460C464FF0FF31002211E0985C82
:103850004140002509E001F0010008B1074800E0FF
:10386000002080EA5101681CC5B2082DF3DB501C12
:10387000C2B2A242EBDBC84330BD00002083B8EDEA
:1038800030B503460C464FF0FF31002211E0985C42
:103890004140002509E001F0010008B1074800E0BF
:1038A000002080EA5101681CC5B2082DF3DB501CD2
:1038B000C2B2A242EBDBC84330BD00002083B8EDAA
:1038C00038B504460220ADF800008DF803408DF8AD
:1038D000020069460148FDF7E7FD38BD00080140D8
:1038E00070B58EB00546FCF73DFF0446E07C60B144
:1038F000A07C617C227CCDE900210290E37BA27B4D
:103900002FA104A8FFF7B4F903E034A104A8FFF73E
:10391000AFF904AA0E210420FEF7A0FDA0894FF400
:103920007A7190FBF1F201FB1206E07ACDE9000614
:10393000A37A627A2EA104A8FFF79AF904AA1721A4
:103940000420FEF78BFD2F48008800902D48001FB3
:103950000388001F02882CA104A8FFF789F904AA94
:1039600020210420FEF77AFDFCF7EEFC0646A88E27
:10397000698ECDE900102848006800F00302334644
:1039800026A104A8FFF774F904AA29210420FEF750
:1039900065FD288F0090EB8E42F20F71286C8842F3
:1039A00001D9084600E0286C024621A104A8FFF7CF
:1039B0005FF904AA35210420FEF750FD0EB070BD5A
:1039C000443A25303258202530325820253032589C
:1039D000202530325820253032580000443A4E4FCE
:1039E00020434F4D504C455445204652414D4500D3
:1039F000452575204E257520502575205452592592
:103A0000750000003C2C01405225347520472534B8
:103A10007520422534750000080C0140414225758F
:103A2000204B257520532575204625750000000084
:103A300045256C7520472575204C25750000000034
:103A400070B504460D46204600F0FAFB194988423D
:103A500019D1E07FA52816D104F1180000F0F0FB81
:103A6000064618212046FFF70BFF86420BD1207D2A
:103A7000012805D0207D022802D0207D032802D114
:103A8000607D012801DD002070BD201D00F0D8FB05
:103A9000286004F10C0000F0D3FB686004F1100012
:103AA00000F0CEFBA860207D2873A07D6873012004
:103AB000EAE700004556543170B586B001A8FEF71C
:103AC00035FD039CDDE90210884200D0640001212D
:103AD0000846FEF7F1FC00204FF0804108801E48A8
:103AE000B4FBF0F0401E08854FF6FF70888501207A
:103AF00088820020088288840120088000201749DD
:103B00000860174800684FF47A72B0FBF2F1B1F127
:103B1000807F00D31DE021F07F40401E4FF0E02267
:103B2000506150170F22002807DA13071E0E0D4BA5
:103B300000F00F052D1F5E5503E013071D0E0A4B05
:103B40001D5400BF00204FF0E0229061072010615B
:103B500000BF06B070BD000040420F00940000207E
:103B60009001002018ED00E000E400E04FF08040FC
:103B7000808C704701480068704700009400002066
:103B800000B50146FFF7F6FF024600BFFFF7F2FF60
:103B9000801A8842FAD300BD02480068401C0149DF
:103BA000086070479400002013E04EF660239842AE
:103BB00000D900E0034699B24FF080439A8C00BFD1
:103BC0004FF080439B8C9B1A9BB28B42F8DB401AD0
:103BD00000BF0028E9D1704710B501460022174BFD
:103BE00033F81130164C2488E31A154C2380002337
:103BF000124C24F81130002018E0124C34F8103028
:103C0000DC1703EB5464B1EBE41F0DD00D4B33F81C
:103C100010300C4C24F812300B4B53F820300A4C67
:103C200044F82230531CDAB2431CD8B2074B1B783D
:103C30009842E2DB054B1A7010BD0000F00900202D
:103C400002010020100A0020500A0020FA00002083
:103C500010B502460021002015E00E4B33F810305D
:103C6000B2EBD31F0DD00B4B33F81030094C24F8B6
:103C70001130094B53F82030074C44F821304B1CCD
:103C800099B2431C98B2054B1B889842E5DB034B65
:103C9000198010BD040B0020040D00202401002019
:103CA0000246501AC017401C704710B502469002D9
:103CB000B0FBF1F303FB03F05C00C4F54064604328
:103CC000000D10BD70B5044620211E48FCF745FAD2
:103CD0001D491C4802F0E8FC1A48001D216802F04A
:103CE000E3FC18480830616802F0DEFC208981B2EC
:103CF00014480C3002F0D4FCE18912480E3002F076
:103D0000CFFC608981B20F48103002F0C9FCA08955
:103D100081B20C48123002F0C3FC207C00F0030199
:103D20000848143002F0C0FC18210648FFF788FD4F
:103D3000054629460348183002F0B6FCFF20014929
:103D4000C87770BDD00900204C4F47312DE9F047AE
:103D500090B00546FDF790F906468EB963A215218D
:103D60000420FEF735FBFDF78DF9804600F06AF977
:103D7000074639462E20FFF793FC10B0BDE8F087C8
:103D8000A8780CA9FDF728F968B1FDF77BF9082898
:103D900001D159A000E05BA007463A461521042056
:103DA000FEF716FBE9E7A878421C334657A102A8A4
:103DB000FEF75EFF02A8FCF7DBF900EB40007E2176
:103DC000A1EB4000C7B202AA01213846FEF746FB2C
:103DD00050490E98884201D9084600E00E980246E4
:103DE0004DA102A8FEF744FF02A91120FFF758FCDD
:103DF000FDF75AF80E99884201D1A8690D900D9CE3
:103E0000FDF752F80E99884220D13C20B4FBF0F126
:103E100000FB1147B4FBF0F03C21B0FBF1F201FBD9
:103E200012084FF46160B4FBF0F01821B0FBF1F21E
:103E300001FB12093B48B4FBF0FA4B4652463AA14B
:103E400002A8CDE90087FEF713FF25E004B33C206C
:103E5000B4FBF0F100FB1147B4FBF0F03C21B0FBE8
:103E6000F1F201FB12084FF46160B4FBF0F018218D
:103E7000B0FBF1F201FB12092A48B4FBF0FA4B4601
:103E8000524630A102A8CDE90087FEF7F1FE03E01B
:103E900033A102A8FEF7ECFE02A92220FFF700FCE6
:103EA0009DF83D0000F09EF807461A490C9888429C
:103EB00001D9084600E00C9803463A462CA102A816
:103EC000FEF7D6FE02A93120FFF7EAFBFCF7ECFF74
:103ED0000E99884201D12AA000E02DA0074639465C
:103EE0003C20FFF7DDFB00BF47E700004E4F2045B9
:103EF00056454E545300000052454144204552520D
:103F00004F52000052454144494E470025752F2528
:103F1000750000003F420F00424F4F542023256C94
:103F2000750000008051010052554E20256C7544EB
:103F3000202530326C753A2530326C753A25303296
:103F40006C7500003E3D20256C7544202530326C98
:103F5000753A2530326C753A2530326C75000000A8
:103F60004E4F20434845434B504F494E54000000AC
:103F70005245534554202573202023256C7500009D
:103F800043555252454E542053455353494F4E00CA
:103F90005341564544204D494E494D554D00000072
:103FA00070B504460D460D48007868B120780928A0
:103FB0000AD1607840B9FDF75FF828B10848006879
:103FC000281AB0F5487F01D2002070BD0120607032
:103FD0000020024908700120F7E700005C00002083
:103FE00058000020014601F0200008B10EA07047E3
:103FF00001F0400008B10DA0F9E701F0100008B190
:104000000BA0F4E701F0080008B10AA0EFE701F007
:10401000800008B108A0EAE701F0040008B107A099
:10402000E5E707A0E3E7000049574400575744007D
:1040300053570000504F52004C50570050494E000B
:10404000554E4B000146022901D109A070470129B4
:1040500001D108A0FAE7072901D108A0F6E708294D
:1040600001D108A0F2E709B907A0EFE707A0EDE743
:104070004F4B00005343414E000000004C4F434B58
:1040800000000000455252004E4100004255535975
:104090000000000070B5054604261C48007890B169
:1040A00000240EE01A4951F8242035F91410C2EB0F
:1040B0000120FFF731F8B0F5163F00DD0226601C45
:1040C000C4B2032CEEDB00241AE035F91410080208
:1040D0000E49097819B90E4941F824000EE00C493F
:1040E00051F82410421A0121B14092FBF1F1084A23
:1040F00052F824201144064A42F82410601CC4B22D
:10410000032CE2DB01200149087070BD0C00002087
:10411000A40100202DE9F84307460C461646002C62
:1041200001DA604200E020460546A6B10A20B5FB50
:10413000F0F100FB1158B5FBF0F9CDF80080002C30
:1041400001DA2D2000E02B2002464B460DA1384617
:10415000FEF78EFD13E00A20B5FBF0F100FB1158CD
:10416000B5FBF0F9CDF80080002C01DA08A000E0E2
:1041700008A002464B4608A13846FEF779FDBDE887
:10418000F88300002563256C752E256C75000000F2
:104190002D000000000000002573256C752E256C95
:1041A0007500000010B50446062C0ED2DFE804F0BE
:1041B0000D030507090B0BA010BD0CA0FCE70DA01B
:1041C000FAE70EA0F8E70FA0F6E7FEF747FC38B1D4
:1041D000FEF744FC6FF07F41884201D00BA0EBE773
:1041E0000CA0E9E75343414E000000005245414412
:1041F00059000000534156494E4700004552524F66
:10420000520000004C4F434B45440000554E53555F
:1042100050000000414253454E54000001460878CA
:104220004A7840EA02207047014608784A7840EA16
:1042300002208A7840EA0240CA7840EA0260704769
:10424000014608784A7840EA02208A7840EA02402B
:10425000CA7840EA0260704770B598B00446FDF72E
:10426000A7FA88B946A214210420FEF7B1F8FDF799
:10427000F7FA0646FFF796FF05462A462A210A2046
:10428000FEF7ECF818B070BDA07813A9FDF75EFA40
:1042900068B1FDF7E5FA042801D13CA000E03EA09A
:1042A00005462A4616210420FEF792F8EAE7FDF7B4
:1042B0007FFA0546A078421C2B4639A109A8FEF7D3
:1042C000D7FC09AA01215C20FEF7C8F836A211210B
:1042D0000620FEF7C3F836A211214A20FEF7BEF8E9
:1042E0009DF85C0000F0010050B1BDF9541005A824
:1042F00000F098F9BDF85A1001A800F093F907E012
:104300002DA105A8FBF748FF2BA101A8FBF744FF4F
:1043100005AA1D210320FEF75BF801AA1D214420F8
:10432000FEF756F89DF85C0000F0020090B1BDF970
:104330005610012205A8FFF7EDFEBDF95810012225
:1043400001A8FFF7E7FE01AB05AA1CA109A8FEF72B
:104350008FFC03E01BA109A8FEF78AFC09AA2F2104
:104360000420FEF77BF81AA109A8DDE91323FEF764
:104370007FFC09AA39210420FEF770F800BF81E70D
:104380004E4F205245434F52445300005245414442
:10439000204552524F52000052454144494E470079
:1043A00025752F257500000054454D502043000011
:1043B00048554D20250000002D2D0000502573206C
:1043C000522573004C4556454C202D2D0000000011
:1043D00023256C7520256C755300000010B503462D
:1043E0000B48007858B11878022808D1587830B9AD
:1043F0002AB108480068081AB0F5487F01D20020A9
:1044000010BD012058700020014C20700120F7E7FA
:104410004C0000204800002008B50820009000BF94
:104420009DF80000411EC9B200910028F8D108BDD6
:1044300070B5064600252648007808B1FF2070BDFB
:1044400080212448FDF7BDF800241CE06806050E15
:1044500040212048FDF7B5F802F054FA08B9FF20D2
:10446000EDE7FFF7D9FF1B480830006800F0800037
:1044700008B145F0010540211648FDF7A0F8FFF707
:10448000CBFF601CC4B2082CE0DB26B180211148B0
:10449000FDF795F803E080210E48FDF792F8FFF74D
:1044A000BBFF40210B48FDF78CF802F02BFA08B94E
:1044B000FF20C4E7FFF7B0FF40210648FDF77FF873
:1044C000FFF7AAFF80210348FDF77BF82846B6E7EF
:1044D00098000020000C014070B504462448007884
:1044E00008B1012070BD002522E004F0800020B159
:1044F00080212048FDF765F803E080211D48FDF785
:104500005EF8FFF789FF40211A48FDF75AF802F0DC
:10451000F9F908B90120E5E7FFF77EFF40211548CA
:10452000FDF74DF8FFF778FF6006040E681CC5B272
:10453000082DDADB80210F48FDF743F8FFF76CFF09
:1045400040210C48FDF73DF802F0DCF908B90120E4
:10455000C8E7FFF761FF074808300068C0F3C016DE
:1045600040210448FDF72BF8FFF756FF3046B9E726
:1045700098000020000C014010B50020154908707B
:1045800080211548FDF71DF8FFF746FF402112482E
:10459000FDF717F802F0B6F908B9012010BDFFF7D2
:1045A0003BFF0D480830006800F0800018B901207A
:1045B00008490870F2E780210748FDF700F8FFF787
:1045C0002BFF40210448FCF7FAFFFFF725FF0020EE
:1045D000E4E7000098000020000C014010B58021A5
:1045E0000E48FCF7ECFFFFF717FF40210B48FCF7E4
:1045F000E8FF02F087F9FFF70FFF80210748FCF77B
:10460000E0FFFFF709FF05480830006800F0800070
:1046100010B901200249087010BD0000000C0140D3
:10462000980000202DE9FF4105460F46002239463B
:104630006846FFF76FFD6846FBF79AFDC6B2052E88
:1046400005DD0AA12846FBF7A7FDBDE8FF81C6F1FD
:104650000500C4B2202221462846FBF777FD281921
:104660006946FBF799FD00BFEFE70000204F564574
:10467000520000002DE9F04186B00446E0780028A1
:1046800046D17C4908707CA10920FFF709F8207900
:1046900008B17BA010E0607908B17CA00CE094F830
:1046A0002F00012801D17CA006E094F82F000228F9
:1046B00001D17CA000E07EA001461C20FEF7F0FFA7
:1046C000207910B3A079642801DD642000E0A0798E
:1046D000074601202D236722194600901820FDF778
:1046E00003FC8FB1C7EB071000EB87106421B0FB10
:1046F000F1F0183000F0FF0801202E2342462C2153
:1047000000901820FDF798FC00BF06B0BDE8F081CE
:104710002046FEF74BFE6A4800781F30C5B2694854
:1047200000782030C6B201231C2220211F20FDF773
:1047300057FB012018231A22194600901720FDF775
:10474000D3FB01201B231722182100901046FDF7F0
:10475000CBFB012018232722194600902420FDF7C7
:10476000C3FB01201B232722182100901046FDF7D0
:10477000BBFB012028231A22194600901720FDF7C1
:10478000B3FB012028231722252100901046FDF7B6
:10479000ABFB012028232722194600902420FDF797
:1047A000A3FB012028232722252100901046FDF796
:1047B0009BFB0023072231462846FDF76DFB0123B2
:1047C000062231462846FDF767FB002304223146C6
:1047D0002846FDF761FB0120B21ED3B2D1B2AA1E5A
:1047E0000090D0B22A46FDF77FFB721ED1B2AA1EFE
:1047F000D0B20122FDF7CEFBE07908B11EA000E0A7
:1048000031A0024601214420FDF728FE30A20B21F1
:104810004420FDF723FE02A82169FFF703FF20696A
:10482000B0F57A7F03DA206910F57A7F01DC2AA0DF
:1048300000E002A8024614214220FDF7C9FD28A28B
:1048400026214420FDF70AFE02A86169FFF7EAFE6F
:104850006069B0F57A7F03DA606910F57A7F01DC70
:104860001DA000E002A802462F214220FDF7B0FD66
:1048700000BF4AE74E0100204C4556454C00000061
:10488000484F4C44205354494C4C0000504C414339
:104890004520464C41540000464C495020424F416F
:1048A0005244000054494C542052414E47450000A8
:1048B000434845434B2053454E534F5200000000A0
:1048C0004C0100204D01002054494C5400000000D0
:1048D0005049544348000000204F56455200000004
:1048E000524F4C4C0000000010B5002005490870E4
:1048F000054908700549087005490870FBF710FD67
:1049000010BD0000100000200F0000200E0000204D
:104910000D0000202DE9F04104460D4616462846BC
:10492000FEF7FAFB0A2806DC3046FEF7F5FB0A28FC
:1049300001DC012000E0002007462846FEF7ECFBE2
:10494000142804DA3046FEF7E7FB142801DB0120C7
:1049500000E000208046BFB11B48007820B91B480A
:1049600004600120184908701948007878B9174880
:104970000068201A64280AD30120154908706421B0
:104980002046FEF771FC02E000200F490870B8F1E4
:10499000000F13D00F48007820B90F4804600120A1
:1049A0000C4908700A48007858B10B480068201A72
:1049B000642806D300200649087002E0002005495B
:1049C0000870BDE8F08100000E00002014000020F7
:1049D0000D0000200F0000201800002010B586B048
:1049E00001A8FDF7A3FD049C02990498884200D019
:1049F00064000121C802FDF76FFD0121C802FDF727
:104A00007BFD00214FF40060FDF776FD1B48B4FBF1
:104A1000F0F0401E1A49088040F60F60091D08801A
:104A20000020174914310880091F0880091F0880D9
:104A300046F668001249103908806820091D088070
:104A400040F21110091D088080200D492839088086
:104A500001200B49143908800020091F08804FF4F9
:104A6000004007491C31088005482838008840F07C
:104A7000010003492839088006B010BD00DD6D0033
:104A8000282C01402DE9FC41AA480578AA4807785E
:104A9000002000900190A948008820B1A748008814
:104AA000401EA6490880A6480078032807D1A348DD
:104AB000008820B1022D02D0052D00D00325A0488A
:104AC0000078854220D09E48057000209D490880CE
:104AD000002407E09C4830F814009C4921F8140099
:104AE000601CC4B2032CF5DB032D03D14FF4FA7024
:104AF00092490880022D02D1002095490880052D99
:104B000002D1FF20934908708E480088B0F5967F47
:104B100004D28C480088401C8A4908808E4800884E
:104B2000401C40F6B83190FBF1F201FB12008A49BB
:104B3000088087480088401C4FF4C86190FBF1F260
:104B400001FB120082490880052D1AD181480078A6
:104B5000874205D07F48077000208049088010E018
:104B60007E480088401C80B27C49088007EB4701E2
:104B70007B4A02EB81010989884202DB00207749E8
:104B8000088078480078401CC0B276490870052833
:104B900001DABDE8FC81002072490870052D2CD196
:104BA0006E480188384601F0D1FF0646012E02D139
:104BB0004FF47F4000E000206349088000204880D7
:104BC000022E02D14FF47F4000E000205E49888031
:104BD000012E02D14FF4616000E00020624908809C
:104BE0000020091D0880022E02D14FF4616000E010
:104BF00000205D4908310880CBE7012D09D18C22C6
:104C000040F6B83154480088FEF75EFBADF802006C
:104C100038E0022D09D1AA224FF4C8614C4800881F
:104C2000FEF752FBADF800002CE0032D08D14FF445
:104C3000C840ADF802004FF4F040ADF8040021E0A8
:104C4000042D16D149490888BE2141430902962204
:104C5000B1FBF2F189B2ADF80010C0F196018C22DF
:104C6000514309029622B1FBF2F189B2ADF802106C
:104C700008E0B42240F6B83137480088FEF724FB3C
:104C8000ADF804004FF496712E480088FFF70DF838
:104C90008046002436E0042D1FD12A480088B0F554
:104CA000967F1AD13DF81410274A32F81420881A3A
:104CB000002805DB00F10B010C2291FBF2F104E06E
:104CC000A0F10B010C2291FBF2F11F4A32F81420E3
:104CD00011441D4A22F8141012E03DF814101B4A2A
:104CE00032F81420891A01FB08F0C11700EB91512A
:104CF000164A32F8142002EBA121134A22F81410AC
:104D0000601CC4B2032CC6DB0F49088801F0E4FC28
:104D1000154908800C49488801F0DEFC1249091D3C
:104D200008800949888801F0D7FC0F4908310880BC
:104D300000BF2EE7B2000020D4000020C2000020F7
:104D4000C4000020C0000020C6000020CC000020CD
:104D5000BE000020D5000020BC000020D6000020AE
:104D600078790008C5000020342C0140D2000020D2
:104D7000BEB0002039900125369000263590349041
:104D800033902C902B902A90299026902590229059
:104D90001D901C90189041F28830179000201690BA
:104DA000F748406A0390482104A8FBF7D6F9FBF7BF
:104DB0004BFF039801F026FD1390FDF7ADFBFBF7C9
:104DC00091FAFCF703FCFBF7C9FAFEF775FE3C20ED
:104DD000FBF77AFAFDF7F8FCFDF7BEFC4FF496708E
:104DE000FEF7CEFE3C20FDF70DFD3D906820FDF75F
:104DF00009FD3C9027E0002002900DE0FCF708FC44
:104E00005020FEF7BDFEFCF7F9FB7820FEF7B8FE58
:104E10000298401CC0B202903C9808B1032100E007
:104E2000052102988142E9DC4FF49660FEF7A8FE66
:104E3000FDF792FC3C20FDF7E5FC3D906820FDF776
:104E4000E1FC3C9000BF3D980028D4D0FDF710F95C
:104E50000398010E3BA801F025F83A90C948007864
:104E6000C8B917E0FCF7D4FB0020029002E00298DA
:104E7000401C0290C44902988842F8D3FCF7BEFB5C
:104E80000020029002E00298401C0290BF49029864
:104E90008842F8D3E6E7BE4800783390FEF76AFE12
:104EA000044621944FF47A71B4FBF1F201FB1240F5
:104EB0002090B4FBF1F01F909DF8EC0010B120465B
:104EC000FEF7EAFA1A94A346A046A2461B9404F5FC
:104ED0007A70249023904EF6602020441E90AD48B6
:104EE000274604600020AC490860AC4908608DF892
:104EF00012008DF811008DF8100002208DF840008E
:104F0000F1E3FEF737FE04463A9810B12046FBF76E
:104F100089FC2198201A1990219419992098084405
:104F200020902098B0F57A7F0FD34FF47A712098B3
:104F3000B0FBF1F11F9808441F904FF47A7120984C
:104F4000B0FBF1F201FB120020901B98201A19907F
:104F50001B94BDF84810199881420AD21998B0F5EF
:104F60007A7F02D340F2E73000E0199880B2ADF8C2
:104F700048008B48007850B18A4801682046FEF707
:104F80008FFE20B1FBF7CCF90020854908703998D5
:104F900040B120462299FEF783FE18B1FCF72EFBA4
:104FA0000020399020462399FEF77AFE48B1FCF79D
:104FB0002FFB0120399004F11E00229004F57A7035
:104FC0002390FBF7C7FA3290FBF7B2FA3790379885
:104FD00000F0020090B10020734908707349087016
:104FE000734908708DF812008DF811008DF81000CB
:104FF000A04670A0169004F2DC501D90329848B183
:10500000FCF7D6FB03462246029004A8329900F032
:10501000DDFBA046379800F00100002871D09DF814
:10502000100007280CD19DF8110008B9012000E0FC
:1050300000208DF8110000205C49087016905FE098
:105040009DF81000092815D1FCF716F860B19DF8FD
:10505000110008B9012000E000208DF811000020A7
:105060005149087016904BE054A0169004F5FA6070
:105070001D9045E09DF81000022815D1FCF798FB23
:1050800060B19DF8110008B9012000E000208DF802
:105090001100002046490870169031E04AA0169091
:1050A00004F5FA601D902BE04A48007818B115B954
:1050B0000EB1012000E000200346DDE929211F9800
:1050C00001F0E6FB38B944A0169001203690FCF7B9
:1050D00037FB1C9011E0FBF7F3FE08B140A00BE09A
:1050E000FCF7BEFB08B940A006E0FCF7B9FB0528B9
:1050F00001D140A000E041A0169004F5FA601D9097
:10510000A046FCF755FB02462146029004A8FFF793
:1051100065F900B1A046214604A801F0A3FD00B145
:10512000A046214604A8FEF73BFF00B1A046514629
:105130002046FEF7B5FD002821D01A98201A1990B4
:105140001A94BDF84610199881420AD21998B0F500
:105150007A7F02D340F2E73000E0199880B2ADF8D0
:10516000460004F1050A9DF8EC0038B12DAA2EA9DD
:1051700030A8FCF785FD08B9012046E044E0B5E021
:10518000001002406000002090D0030040420F0059
:105190005F0000203C000020440000204000002070
:1051A000100000201C0000205C00002054000020A3
:1051B0004C000020484F4D45000000004E4F20534A
:1051C000455353494F4E53004E4F205245434F5283
:1051D0004453000021000020534156494E4700002F
:1051E00042555359000000004E4F20464C41534851
:1051F000000000004C4F434B454400004E4F5420EC
:105200005245414459000000002038903898002849
:105210006ED02C98401C80B22C904FF000090FE00B
:1052200030A830F819100CA820F819102EA830F862
:105230001910823820F8191009F1010000F0FF0957
:10524000B9F1030FECDBBDF9B400ADF83C001DB1C2
:105250000020FE490870002530A8FEF71BFFA3467A
:10526000012230A92046FEF749F9F9480078E8B351
:10527000BDF9C40000F064FB3590359808B90120F1
:1052800000E00020064696B3F2490868C11700EB1B
:105290001161F14A1268C2EB212141F2626251436D
:1052A000EE4A126891FBF2F149422891E9494868B7
:1052B000C11700EB1161EA4A1268C2EB212141F2E9
:1052C00062625143E54A126891FBF2F127910A208C
:1052D000289991FBF0F02A900A20279991FBF0F091
:1052E00029902699289801F008FC02E024E010E0BB
:1052F00012E026902599279801F0FFFB2590DDE923
:105300002910FBF7BFF82046DDE92921FFF702FB52
:1053100012E0FFF7E9FA0FE09DF8EC0010B11498E5
:10532000401C14900020CF490870CF49087000221B
:1053300030A92046FEF7E2F8A4EB0B00642819D34D
:105340000DB9FFF7D1FA012520462499FEF7A8FCF4
:1053500080B1FBF7BFF968B9FDF7FEF9FCF734FC43
:1053600008B9012000E000203B90FEF703FC00F5A7
:105370007A702490B648007878B9BC48007860B953
:105380009DF8EC0048B145B9B94801682046FEF7E0
:1053900087FC10B12046FEF77FF8AD48007818B1C1
:1053A00015B90EB1012000E0002003462046DDE9DA
:1053B0002921FBF75FFCE01BB0F57A7F17D34FF490
:1053C0007A712C984843E11BB0FBF1F080B2ADF844
:1053D00042004FF47A712B984843E11BB0FBF1F087
:1053E00080B2ADF8440000202B902C902746204638
:1053F000FCF73CFA339850B9FCF732FA022806D190
:105400000398010E2046FBF771FD0120339033987D
:1054100018B120461F99FBF73BFE20461E99FEF768
:105420003FFC08B3FCF71CFA02281DD1FBF748FD2E
:10543000D0B9FBF797F9007AB0B1FBF793F9407A4E
:1054400090B98348007818B115B90EB1012000E079
:1054500000200346DDE929211F9801F019FA18B947
:105460004EF6602020441E903698B8B1FCF768F9DB
:105470001C99884207D07FA0169004F2DC501D9042
:10548000002036900AE0FCF7EBF9042806D17BA057
:10549000169004F6B8301D9000203690FCF7E0F925
:1054A000042809D1349838B90120349041F2883069
:1054B0001790179820441890349848B3FCF7D0F907
:1054C000042802D0FCF7CCF910BB20461899FEF74F
:1054D000E7FBE8B1FBF7FEF8D0B92046FCF7EEF8A1
:1054E000FEF748FB1799084418904EF6602117986C
:1054F000884207D21798400017901798884201D920
:1055000008461790FCF7ACF9012801D1002034902F
:10551000FCF7A6F9022803D0FCF7A2F9052801D16F
:1055200000203490169830B120461D99FEF7B8FB44
:1055300008B1002016909DF81000072823D0444899
:10554000007800B3FDB9F6B148480078D8B916988C
:10555000C8B99DF81000012803D1FBF703F9407A80
:1055600088B99DF81000022803D09DF81000032888
:1055700007D1FCF775F9042805D0FCF771F9052867
:1055800001D0012000E000200290329820B9379825
:1055900010B9FAF7D9FE08B1012000E0002001900F
:1055A0002998009020462A9BDDE9011201F0DCF9E0
:1055B0009DF81000022808D1FCF7FAF89DF81210A7
:1055C000884202DC00208DF812009DF810000928A6
:1055D00008D1FBF751FD9DF81210884202DC002033
:1055E0008DF812009DF81000072807D19DF84000A3
:1055F000FAF784FF0520FAF77BFF65E0FCF730F946
:10560000032802D1FAF774FF5EE09DF8100038B964
:105610000F48007808B105B916B914480078A0B150
:105620009DF81000012803D1FBF79CF8407A60B97F
:105630009DF81000022803D09DF8100003282ED1F9
:10564000FCF70EF9042826D01EE024E00C00002010
:1056500021000020A40100200000002008000020FC
:10566000040000200F0000200E0000202000002079
:105670003800002053415645440000005341564530
:10568000204552524F520000FCF7EAF8052802D09C
:10569000FCF7E6F818B90220FAF72AFF14E09DF8A3
:1056A000100040B94048007828B125B91EB1042047
:1056B000FAF71EFF08E03D49097809B1012100E031
:1056C00000210846FAF714FFFCF726FDE0BB41462F
:1056D0002046FEF7E5FAB8B33348007820B11DB98B
:1056E00016B1012001E05DE000208DF81300304884
:1056F00000788DF814002F4800788DF815000DB152
:10570000002000E035988DF83F009DF8EC0010B1C6
:105710000DB9012000E000208DF83E0026480078F9
:105720008DF81600214800788DF817002A98069009
:105730002998079026980890259809901F980A9014
:10574000FAF702FE18B100E024E01CA000E0169871
:105750000B9015949DF81000072807D11A4800688F
:10576000201AB0F5FA6F01D2012000E000208DF878
:105770004A0004A8FBF72AF9FCF786FE2B98401C88
:1057800080B22B909DF8100008B9212000E0322053
:1057900000EB0408FAF79EFF10B92046FCF758FD0D
:1057A000FCF7C0FCFFF7ADBB210000200D0000207E
:1057B0002000002022000020230000204B4559201B
:1057C000444F574E00000000500000202DE9F041EA
:1057D00004460E46174698460EB9BDE8F08120787B
:1057E00007281BD16078C8B194F830008519002DC6
:1057F00004DB052D02DA84F83050EEE7002D01DAE3
:10580000062000E00820207000206070A07034495D
:10581000087034490870344908705FE02078022825
:1058200015D1607898B1A0788519002D03DB454526
:1058300001DAA570D1E7002D01DA012000E0032094
:10584000207000206070A0702649087046E0207823
:10585000092814D1607890B1A0788519002D05DB56
:10586000FBF70AFCA84201DDA570B6E7E80FC0000F
:10587000207000206070A070194908702EE0207818
:10588000851902E005F10A0005B2002DFADB0A20B5
:1058900095FBF0F100FB1150207000206070A070AB
:1058A0002078022801D1012000E000200D49087075
:1058B0000E4807602078072801D1012000E0002071
:1058C000094908700A4807602078092801D1012099
:1058D00000E00020024908700648076000BF7CE72E
:1058E0005C0000204C0000205400002048000020F4
:1058F000500000205800002010B500200749087013
:1059000007490870012007490870002006490870FF
:1059100006490870FCF720FF10BD0000A70000201A
:10592000A5000020A8000020AA000020A900002057
:105930000246501A002801DD012070470020FCE7D4
:1059400030B50146002901DA012030BD0C4C236836
:10595000DC1703EB9474A4108C420DDC094CA26894
:10596000D41702EB14642412054D2868C51700EB08
:105970009575AD10AC4201DA0220E6E70020E4E7BD
:1059800008000020A401002000B585B06846FCF79F
:10599000CDFD0C4800680C49884210D1009888421F
:1059A0000DD1019888420AD149100298884206D147
:1059B00049000398884202D1012005B000BD0020B3
:1059C000FBE700009001002000A24A042DE9FF4FF0
:1059D00087B005460E46149FFF2D01D1022003E03B
:1059E000052095FBF0F0C0B28346FCF7E5F90120F5
:1059F00007237F22002100900846FCF71DFBA5A28B
:105A000000210220FCF735FDBBF1000F01D1A6A05B
:105A100005E0BBF1010F01D1A4A000E0A4A0024663
:105A200000216C20FCF725FDFF2D0BD1A14800784B
:105A300008B1A1A000E0A4A002460A210020FCF7C2
:105A40000DFD3BE00A20B6FBF0F03030C0B28DF81F
:105A500010000A20B6FBF0F100FB116030308DF829
:105A6000110000208DF81200681C0A21B0FBF1F033
:105A70003030C0B28DF80C00681CB0FBF1F201FBB5
:105A8000120030308DF80D0000208DF80E0092A22B
:105A9000FCF7E4FC04AA0A212A20FCF7DFFC90A210
:105AA0000A213620FCF7DAFC8EA20A215420FCF7EA
:105AB000D5FC03AA0A216C20FCF7D0FC012012239C
:105AC0007F22194600900020FCF70EFA4FF00008E4
:105AD0008BE00BEB8B004044C4B283A002900B2CF4
