:020000040800F2
:10000000981000200501000829150008ED0D0008D2
:10001000251500086F020008C51F00080000000039
:10002000000000000000000000000000891C000823
:10003000C10A000800000000E51A0008591F000866
:100040001F0100081F0100081F0100081F01000810
:100050001F0100081F0100081F010008C50A000851
:100060001F0100081F0100081F0100081F010008F0
:100070001F0100081F0100081F0100081F010008E0
:100080001F0100081F0100081F0100081F010008D0
:100090001F0100081F0100081F0100081F010008C0
:1000A0001F0100081F0100081F0100081F010008B0
:1000B0001F0100081F0100081F0100081F010008A0
:1000C0001F0100081F0100081F0100081F01000890
:1000D0001F0100081F0100081F0100081F01000880
:1000E0001F0100081F0100081F010008DFF810D0E1
:1000F00000F08CF800480047913B0008AFF3008007
:10010000981000200648804706480047FEE7FEE7B3
:10011000FEE7FEE7FEE7FEE7FEE7FEE7FEE7FEE7B7
:10012000651F0008ED00000840EA01039B0703D0AB
:1001300009E008C9121F08C0042AFAD203E011F826
:10014000013B00F8013B521EF9D27047D2B201E0E8
:1001500000F8012B491EFBD270470022F6E710B5CC
:1001600013460A4604461946FFF7F0FF204610BD25
:10017000421C10F8011B0029FBD1801A704730B5D2
:1001800004460020034600E05B1C934203D2E05C7F
:10019000CD5C401BF8D030BD034611F8012B00F8B0
:1001A000012B002AF9D1184670472DE9F05F05466A
:1001B000002092469B4688460646814640241BE026
:1001C000284641464746224600F041F853465A46E3
:1001D000C01A914110D311461846224600F028F863
:1001E0002D1A67EB01084F4622460120002100F03E
:1001F0001FF817EB00094E41201EA4F10104DFDCBB
:10020000484631462A464346BDE8F09F064C074D16
:1002100006E0E06840F0010394E8070098471034D6
:10022000AC42F6D3FFF766FFA4510008C4510008A2
:10023000202A04DB203A00FA02F1002070479140A6
:10024000C2F1200320FA03F3194390407047202A9B
:1002500004DB203A21FA02F00021704721FA02F370
:10026000D040C2F12002914008431946704700BFB8
:10027000FEE710B5044604B910BD00F02FF8204683
:1002800002F060FE00F020F800BFF5E708B501219C
:10029000082001F039FC4FF48070ADF80000102008
:1002A0008DF8030003208DF802004FF4807105489B
:1002B00000F09AFD6946034800F000FD00F004F8E4
:1002C00008BD0000000C014010B54FF480710248D9
:1002D00000F08AFD10BD0000000C014010B54FF485
:1002E0008071024800F07EFD10BD0000000C01404E
:1002F0000348007808B9012070470020FCE700009F
:100300004B00002008B501210C2001F0FDFB40F25C
:100310000340ADF8000048208DF8030002208DF85E
:1003200002006946254800F0C9FC002024490870F5
:100330002449087024490870244908702449087029
:1003400024490870244908802449088024490880E9
:1003500024490880244908802449087024490870E9
:10036000244908802449888048800880234988805F
:10037000488008804FF4E061214800F033FD4FF4DD
:10038000E060ADF8000018208DF8030069461C48B5
:1003900000F094FC03F090FA08480830006800F080
:1003A000030018490870054808300068C0F3802031
:1003B000154908701549087008BD0000000C01407F
:1003C0004A0000204900002046000020450000208F
:1003D000440000204C000020560000205400002063
:1003E00052000020500000204E0000205800002045
:1003F00059000020660000205A0000206000002004
:100400000008014047000020480000204B00002069
:1004100070B5034600224FF08040962B01DD9623F5
:1004200004E013F1960F01DA6FF09503962901DDD0
:10043000962104E011F1960F01DA6FF0950103FBAC
:1004400003F501FB015400E08008A042FCD809E05C
:100450001518A54204D81518641B00EB520200E0E1
:10046000520880080028F3D1962A01D9962500E089
:100470001546014E358070BD6600002001490870A8
:10048000704700004600002000BFEFF310800146D7
:1004900072B6054802780020034B1870084680F3B6
:1004A000108800BF104670474500002000BFEFF3E2
:1004B0001080014672B6064890F900200020044BD7
:1004C0001870084680F3108800BF1046704700007F
:1004D0004400002070B54A48006800F00305494810
:1004E000007885423FD0474800786840032803D110
:1004F0000020454908700BE04248007845EA80003A
:100500004249085C40490978084440B23E490870B5
:100510003C4805703C4890F9000004280EDB3C483C
:1005200090F90000142805DA39480078401C40B2E0
:100530003749087000203449087014E0324890F9B7
:10054000000010F1040F0EDC314890F9000010F1AA
:10055000140F05DD2E480078401E40B22C4908706B
:1005600000202949087026480068C0F380242948E3
:100570000078844205D0274804700020264908707E
:1005800008E025480078142804DA23480078401C45
:100590002149087020480078142815D11F48007898
:1005A000844211D01D4804702CB900201C490880D9
:1005B0001C49087008E01B48007828B91A480078E0
:1005C00040F001001849087014480078A0B9154897
:1005D000007888B912480088401C80B21049088011
:1005E000B0F5487F08DB1048007840F002000E4963
:1005F000087001200B49087003F0B2F970BD0000CB
:10060000080C0140470000204C0000204851000821
:100610004400002048000020490000204B0000203A
:100620004E0000204A0000204500002003480078CA
:1006300008B1012070470020FCE700007200002094
:1006400070B503460C46154618785E7830449E789F
:100650003044DE783044C0B21E79B04201D001206F
:1006600070BD5878092804DCD87800F07F0009288C
:1006700001DD0220F4E758781E7806EB860600EBD1
:100680004602D87800F07F009E7806EB860600EBE5
:100690004601D87800F0800008B1484201B2B2F5B6
:1006A0007A7F05DC11F1C80F02DBB1F5167F01DDA1
:1006B0000220D5E721802A800020D1E7004870473A
:1006C000180900203EB5044614212548FFF745FDD2
:1006D0000020244908702449087024490870012129
:1006E000052001F011FA0221214800F07DFB48208D
:1006F00002F010FB0121002000F0C0FA022001905E
:1007000000208DF808000C208DF8090001208DF8DC
:100710000A0001A800F068FA1648006820F00200FC
:1007200014490860022000F045FA4FF4A06000F080
:1007300035FF07208DF8000001208DF80100002012
:100740008DF8020001208DF80300684600F0EEFEEF
:1007500004F5FA60084908600020014948723EBD6E
:1007600018090020720000206E0000206F00002099
:100770000008014000040140740000207CB50446DC
:100780005E48007860BB5E480068201A28D45D4847
:10079000006820F002005B49086000205A49087098
:1007A0005A4908705A480068C0F340005949C87255
:1007B00008468089401C8881142002F0ABFA02218F
:1007C0005348083800F00EFB04F114005249086049
:1007D00004F6C4104A4908600120484908707EE0C8
:1007E00046480078012828D14B480068201A24D4B4
:1007F0004A480021016001710020444908704849BD
:100800000870022000F0D6F901203F4908703D48E9
:10081000006840F002003B49086002213C4808386B
:1008200000F0E2FA482002F075FA04F10A003A49B1
:10083000086002203149087051E0304800780228F1
:100840004DD13248007818B933480068201A46D490
:100850002C48006820F002002A49086000202A493C
:1008600008702F4800782B498872284800780128A2
:1008700000D100E000202749C874244800780128EE
:1008800016D100250AE02548405D0DF805001DF849
:10089000051020480E304155681CC5B2052DF2DB0D
:1008A0001C4A921C911E6846FFF7CAFE06460BE0E2
:1008B0001648007808B1042005E01648C07A08B14F
:1008C000032000E0052006461248467226B90120A2
:1008D00010490872084644600020084908700D4815
:1008E000007A48B10B484068201A41F27071884282
:1008F00002D90020074908727CBD00007200002068
:1009000074000020000401406F0000206E000020F1
:100910000808014018090020780000206800002025
:100920006D00002038B504462078072800DB38BD6C
:1009300000F03EFE207890B1002034490870207805
:10094000022803D1607808B131A003E02078324951
:1009500051F8200002460121042001F09DF8207882
:1009600018B9204602F00AFE24E02078012802D1BE
:1009700002F054F91EE02078022803D1204602F04C
:1009800075FC17E02078032803D1204603F02EFEE3
:1009900010E02078042803D1204603F095FC09E0FC
:1009A0002078052803D1204603F0F2FE02E020461D
:1009B00002F0C0F9E06930B3207838B9002008238C
:1009C0007F2201460090402000F008FFE069FFF719
:1009D000CFFB00EB4000042101EB4000C5B27C2DB1
:1009E00000DD7C250120C5F180010090C8B20823FC
:1009F0007F22002100F0F2FEC5F18201C8B2012180
:100A0000E26901F054F800BF91E70000B600002051
:100A100042524F5753450000BC00002000200549BA
:100A200008700549087005490870054908600549BE
:100A300008707047A6000020A5000020A400002038
:100A4000A8000020B60000202DE9F04704460F461C
:100A5000904699461848007820B901201649087038
:100A60001648046015480068201A01D5BDE8F087D3
:100A700012480068201A6421B0FBF1F0461C0125E1
:100A800005E000221146104603F09EFF6D1CB542A2
:100A900001D2782DF5D34A464146384603F094FFFB
:100AA00006EBC60000EB06100449096801EB800064
:100AB0000249086000BFD9E7A6000020A800002076
:100AC000704700002DE9F041022000F079F808B9E4
:100AD000BDE8F081022000F06DF83048007800B9E0
:100AE000F6E702F025FA06462D490988701A85B204
:100AF0002B490E802B48007818B90120294908702D
:100B0000E6E72848007801280ED1782D01DBD22DA8
:100B100006DD00202149087002202349087002E008
:100B2000022020490870D3E7372D01DB962D06DD22
:100B300000201A49087002201B490870C8E71948AC
:100B40000078801EC4B22146E21704EB5272D21024
:100B5000164B9A5C642D01DB012300E0002343EA7D
:100B600042022046E31704EB5373DB100F4FFA5495
:100B70000C480078401CC0B20A4908702A280BD1E2
:100B800000200649087001200749087008480068DD
:100B900020F002000649086000BF99E76F000020BE
:100BA000700000206D0000206E0000206800002012
:100BB000000401400149086070470000140401402E
:100BC000014600200022074B1B6803EA0102054B87
:100BD00014331B680B4013B10AB1012000E0002060
:100BE0007047000000040140002123498279002A57
:100BF0003AD00A46126803689A430B461A600A1DE7
:100C0000126803689A430B1D1A60027911440A683E
:100C100003681A430A60184A0832126803689A4344
:100C2000154B08331A601A1D126803689A43124B59
:100C30000C331A604279102A0ED11A1F1268036809
:100C40001A430D4B08331A601A1D126803681A43C1
:100C5000094B0C331A600DE00749427911440A68C8
:100C600003681A430A6005E0027911440A680368C0
:100C70009A430A60704700000004014030B500222A
:100C80008B071C0F0F2303FA04F20B4B8C1053F845
:100C900024309343084C8D1044F8253023468C10A3
:100CA00053F824308C07240F00FA04F42343024C39
:100CB0008D1044F8253030BD080001402DE9F04189
:100CC000024600250026002000230024002791F87A
:100CD00003C00CF00F0591F803C00CF0100CBCF130
:100CE000000F03D091F802C04CEA050591F800C04E
:100CF000BCF1000F31D0146800202BE04FF0010C44
:100D00000CFA00F3B1F800C00CEA03069E4220D1B1
:100D100083004FF00F0C0CFA03F7BC4305FA03FCF9
:100D20004CEA040491F803C0BCF1280F06D14FF03F
:100D3000010C0CFA00FCC2F814C00AE091F803C0E0
:100D4000BCF1480F05D14FF0010C0CFA00FCC2F8C1
:100D500010C0401C0828D1D31460B1F800C0BCF109
:100D6000FF0F34DD546800202EE000F1080C4FF036
:100D7000010808FA0CF3B1F800C00CEA03069E4221
:100D800021D183004FF00F0C0CFA03F7BC4305FA96
:100D900003FC4CEA040491F803C0BCF1280F05D110
:100DA00000F1080C08FA0CF8C2F8148091F803C09E
:100DB000BCF1480F07D100F1080C4FF0010808FA08
:100DC0000CF8C2F81080401C0828CED35460BDE84F
:100DD000F0810246002093680B400BB1012000E037
:100DE00000207047416170470161704700BFFEE716
:100DF00008B50121102000F087FE4FF40050ADF837
:100E0000000010208DF8030003208DF802006946D1
:100E10000248FFF753FF00F003F808BD001001403F
:100E200010B54FF400510248FFF7DEFF10BD00007F
:100E30000010014010B54FF400510248FFF7D2FFF7
:100E400010BD0000001001400148008870470000FC
:100E50009200002070B504460D46204602F0FAF9D3
:100E60001E49884213D1E07FA52810D104F1180053
:100E700002F0F0F906461821204601F02BFF8642C9
:100E800005D104F1140002F0E5F9032801D901208D
:100E900070BD201D02F0DEF9286004F1080002F0A8
:100EA000D9F9686004F10C0002F0CEF900B2288193
:100EB00004F10E0002F0C8F9E88104F1100002F01C
:100EC000C3F900B2688104F1120002F0BDF900B26A
:100ED000A881207D28740020DAE700004C4F4731BC
:100EE00010B50446002015490870154908701549C9
:100EF000087015490880154908801549088015496A
:100F0000086020211448FFF728F901F0A7F820B95C
:100F100001F074F8B0F5803F00D210BD01F06EF81A
:100F2000A0F580300D49086001200449087004F5DF
:100F3000FA600B49086000BFEFE70000880000205E
:100F40008A000020890000209000002092000020EC
:100F50008C000020980000204C0900209C000020FC
:100F6000A0000020014800687047000098000020A1
:100F700070B588B004460D460D48007884420EDAFC
:100F80000C48007801280AD00B4931F8140001F010
:100F900005FC06462022694601F02EF910B1012019
:100FA00008B070BD29466846FFF754FFF8E7000017
:100FB0008A000020880000206C0900200148007889
:100FC000704700008A00002010B504461A480078D7
:100FD000022803D1207C00F0030008B9012010BDD5
:100FE000142221461548FFF79FF815480068401C59
:100FF000124908601349098811B91149096849B1B2
:1010000011490988481CC11700EB5151C912A0EBC6
:10101000C12100E000210D4A118000200C49088008
:1010200001200C490870032003490870034802F0AE
:1010300003F80020D3E70000880000202C0A0020DD
:101040009800002092000020900000208E000020D8
:1010500094000020890000200148007870470000BB
:101060008800002070B58EB00446C848007801287A
:1010700005D0C6480078032801D00EB070BD00F03E
:10108000A3FF0546022D03D10420C0490870F4E7F0
:10109000BE480078012863D13DB1BD480068201AE0
:1010A00002D40420B9490870E7E7BA48008801F083
:1010B00075FB0646202206A901F09EF818B104200F
:1010C000B2490870D9E706A801F092FBD8BB06A880
:1010D00002F0C0F8B049884203D00520AB4908703F
:1010E000CBE701A906A8FFF7B5FE60BBAB480088B7
:1010F00028B1AB4901980968401A002806DDA849C3
:1011000001980860A3480088A6490880A348008881
:10111000401CA24908809F490888C11700EB516113
:10112000C911A14A32F81110491C9A4A1088C217F5
:1011300000EB5262D2119C4B23F8121095480088A4
:10114000019901F0EBFA93480088401C80B2914964
:101150000880B0F5006F02D102208C4908708CE73E
:1011600092480078012808D03DB189480068201ACB
:1011700002D40420854908707FE78C480078012854
:101180005ED105B179E78A490888C11700EB516142
:10119000C911A0EBC11199B98548008801F0FEFA88
:1011A000064600F031FF18B104207849087064E762
:1011B00002207E49087004F2DC50754908605CE743
:1011C0007B48008801F0EAFA0646202206A901F0D1
:1011D00013F818B104206D4908704EE706A801F015
:1011E00007FBB8B972490988481CC11700EB515177
:1011F000C912A0EBC1216E4A11806E480088401CC4
:1012000080B26C490880B0F5006F02DB04205F49B2
:10121000087032E76648008801F0C0FA06461F22CF
:10122000654900F0ABFF18B104205849087024E765
:1012300003205E49087004F1320055490860A3E0BC
:101240005A480078022830D15948008801F0A6FA9F
:101250000646202206A900F0CFFF18B906A801F023
:10126000C7FA18B904204949087006E750490E88A2
:10127000F11706EB5161C1F3C71001F08FFE4C4826
:10128000008801F08BFA06461F224B4900F076FFDA
:1012900018B104203D490870EFE603204349087067
:1012A00004F132003A4908606EE0404800780328B3
:1012B0002ED13F48008801F071FA0646202206A987
:1012C00000F09AFF28B91F223B4906A8FEF757FFF6
:1012D00018B104202D490870CFE6A5208DF818001C
:1012E0003348008801F05AFA00F11F06012206A9CE
:1012F000304600F043FF18B1042024490870BCE6D2
:1013000004202A49087004F13200214908603BE0BA
:101310002748008801F042FA0646202206A900F07C
:101320006BFF20B901A906A8FFF794FD18B10420AE
:1013300016490870A1E61E4800881A4908801F480F
:1013400000681749086015480088401C1349088048
:1013500017490888C11700EB5161C911124A32F8C8
:101360001110491C124A1088C21700EB5262D211A8
:101370000D4B23F81210114801680D48008801F048
:10138000CDF902200149087000BF76E688000020F0
:10139000A00000208C0000204C4F4731920000201C
:1013A00098000020900000204C09002089000020B7
:1013B0008E000020940000202C0900202C0A002020
:1013C00038B580226B21682000F0B8FD08B10120FB
:1013D00038BD642001F0B6FD01226B21682000F0C9
:1013E000ADFD08B10120F3E70A2001F0ABFD0422B6
:1013F0001921682000F0A2FD08B10120E8E70322CE
:101400001A21682000F09AFD08B10120E0E70022CF
:101410001B21682000F092FD08B10120D8E70022CE
:101420001C21682000F08AFD08B10120D0E70A20C5
:1014300001F088FD00F068F8682801D00120C7E7B6
:10144000002410E00A48015D6A46682000F006FDAD
:1014500028B90848005D9DF80010884201D001209D
:10146000B6E7601CC4B2052CECDB0020B0E700003E
:101470003E510008435100087FB504460D4616460C
:101480000E236A463B21682000F0F3FC10B10120D6
:1014900004B070BD9DF801009DF8001040EA0120E5
:1014A00000B220809DF803009DF8021040EA012060
:1014B00000B260809DF805009DF8041040EA01200C
:1014C00000B2A0809DF807009DF8061040EA0120B8
:1014D00000B230809DF809009DF8081040EA012014
:1014E00000B228809DF80B009DF80A1040EA012008
:1014F00000B268809DF80D009DF80C1040EA0120B4
:1015000000B2A8800020C3E708B5002000906A461A
:101510007521682000F0A2FC08B1FF2008BD9DF8ED
:101520000000FBE700BFFEE77047000070B5002138
:1015300000230F22C47804B3154C246804F4E0643B
:10154000C4F5E064210AC1F10403CA40447804FAF6
:1015500003F184781440214309010E4C0678A1550B
:10156000047804F01F050124AC4005786D11AD002E
:1015700005F1E025C5F8004109E0047804F01F05F5
:101580000124AC40044D0678761145F8264070BD24
:101590000CED00E000E400E080E100E002490143DE
:1015A000024A1160704700000000FA050CED00E0EF
:1015B00000200CE0002106E00022064B03EBC013E4
:1015C0005A544A1CD1B28029F6DB421CD0B20828FA
:1015D000F0DB7047180100202DE9F04706460F4662
:1015E00090469A46002445464FEA4800C0F1030958
:1015F0004AE07A19D1B23219D0B2524600F0C6F898
:101600007A19D1B2321BD0B2524600F0BFF87A1B21
:10161000D1B23219D0B2524600F0B8F87A1BD1B22A
:10162000321BD0B2524600F0B1F83A19D1B2721959
:10163000D0B2524600F0AAF83A19D1B2721BD0B219
:10164000524600F0A3F83A1BD1B27219D0B25246FA
:1016500000F09CF83A1BD1B2721BD0B2524600F097
:1016600095F8B9F1000F05DAA000801D48440FFA83
:1016700080F907E0601B80000A3048440FFA80F9C7
:10168000681E05B2601C04B2AC42B2DDBDE8F08752
:101690002DE9F043074688461446994665421BE00B
:1016A000664215E006FB06F105FB051104EBD4725A
:1016B000521012B204FB0422914207DC08EB05022F
:1016C000D1B2BA19D0B24A4600F060F8701C06B226
:1016D000A642E7DD681C05B2A542E1DDBDE8F08366
:1016E0002DE9FF4F04460D4616461F46A046AA4662
:1016F000A64201DD301B00E0A01B8346AF4201DDA6
:10170000781B00E0E81B0390B44201DA012001E0FD
:101710004FF0FF300290BD4201DA012001E04FF0AE
:10172000FF3001900398ABEB00000FFA80F928E03E
:101730000AF0FF0108F0FF000D9A00F027F8B0450D
:1017400002D1BA4500D11DE04FEA490000B2009035
:10175000039949420098884208DD0398A9EB0000EC
:101760000FFA80F9029840440FFA80F80098584523
:1017700007DA09EB0B000FFA80F9019850440FFAD1
:1017800080FAD5E700BFBDE8FF8F000070B50B46BB
:1017900014467F2801DC3F2B00DD70BDD91003F01B
:1017A000070264B10C4D05EBC1152D5C0126964076
:1017B000F6B23543084E06EBC11635540AE0064D25
:1017C00005EBC1152E5C01259540AE43024D05EB9E
:1017D000C1152E5400BFE0E7180100202DE9F047A5
:1017E00006460F4690469946DDF820A034460CE0A8
:1017F0003D4606E0E9B2E0B25246FFF7C7FF681C7B
:1018000085B24D45F6DD601C84B24445F0DDBDE88F
:10181000F08710B5AE2002F029FDD52002F026FD9C
:10182000802002F023FDA82002F020FD3F2002F0DE
:101830001DFDD32002F01AFD002002F017FD40200C
:1018400002F014FD202002F011FD002002F00EFD38
:10185000A12002F00BFDC82002F008FDDA2002F002
:1018600005FD122002F002FD812002F0FFFCCF20D6
:1018700002F0FCFCD92002F0F9FCF12002F0F6FCA9
:10188000DB2002F0F3FC302002F0F0FCA42002F098
:10189000EDFCA62002F0EAFC8D2002F0E7FC14200B
:1018A00002F0E4FCAF2002F0E1FCFFF781FE00F063
:1018B00001F810BD10B500F005F901E000F00CF8DA
:1018C00000F004F80028F9D110BD000001480078AC
:1018D0007047000040000020F0B58BB044A103C960
:1018E000CDE909014448007808B90BB0F0BD6EE0BD
:1018F00042490878C11700EB91718D103F49087873
:10190000C11700EB91718910A0EB810149070E0E00
:101910003B48007808B9012000E000200746002479
:101920000EE0384800EBC5103119405C364901EB38
:10193000C5113219895C884200D00127601CC4B2ED
:10194000202CEEDB2D480078401C2C49087007B98C
:101950003DE08DF8266006F11F00C0B28DF827002B
:101960008DF82A508DF8295040208DF80000002471
:1019700008E0254800EBC5103119415C601C0DF8EA
:101980000010C4B2202CF4DB072209A93C2000F08F
:10199000B2FA28B9212269463C2000F0ACFA38B1ED
:1019A0000020174908701449087000F0EDF99CE711
:1019B000002409E0601C1DF80000124901EBC5116C
:1019C00032198854601CC4B2202CF3DB03E00B48AE
:1019D000007820288CDB00BF08480078202805D13B
:1019E00000200549087001200549087000BF7CE708
:1019F00000210000220000004000002041000020E3
:101A00004200002018050020180100202DE9F05F99
:101A100006468846174636E000242EE038782146F0
:101A200002F038FD8346002523E04FF000091BE05B
:101A30004FF0000A11E04BFA05F303F0010208EB46
:101A400045035344D9B206EB44034B44D8B2FFF7E5
:101A50009DFE0AF1010000F0FF0ABAF1020FEADB75
:101A600009F1010000F0FF09B9F1020FE0DB681C89
:101A7000C5B2072DD9DB601CC4B2062CCEDB06F143
:101A80000C00C6B27F1C387820B1742E02DCB8F18D
:101A9000320FC1DDBDE8F09F70B504460D46164615
:101AA000002332462946204602F046FD70BD70B53F
:101AB00004460D461646012332462946204602F0CA
:101AC0003BFD70BD0548007800B170470020044917
:101AD000087001200149087000BFF6E740000020AF
:101AE000410000207047000029B1064AD269024334
:101AF000044BDA6104E0034AD2698243014BDA61A4
:101B0000704700000010024029B1064A9269024362
:101B1000044B9A6104E0034A92698243014B9A6143
:101B2000704700000010024029B1064AD268024303
:101B3000044BDA6004E0034AD2688243014BDA6066
:101B4000704700000010024030B500210022002440
:101B500000232D4D6D6805F00C0121B1042905D03D
:101B6000082923D105E0294D056022E0274D0560B5
:101B70001FE0254D6D6805F47012234D6D6805F466
:101B80008034022505EB92421CB9214D5543056076
:101B90000BE01D4D6D6805F400351DB11C4D55431E
:101BA000056002E0194D5543056002E0174D0560E0
:101BB00000BF00BF144D6D6805F0F0010909154D17
:101BC0006B5C0568DD4045600F4D6D6805F4E061B4
:101BD000090A104D6B5C4568DD4085600A4D6D68F3
:101BE00005F46051C90A0B4D6B5C4568DD40C5606A
:101BF000054D6D6805F44041890B074D6B5CC56868
:101C0000B5FBF3F5056130BD0010024000127A000B
:101C100000093D00D8000020E800002021B1028822
:101C200042F04002028004E002884FF6BF731A407F
:101C30000280704710B50022028802F441520B88DE
:101C40004C8823438C882343CC8823430C8923432B
:101C50004C8923438C892343CC8923431A43028034
:101C6000838B4FF2FF74234083830B8A038210BD62
:101C70000021018041808180C18001814181818179
:101C8000C181072101827047704710B500F002F84A
:101C900010BD00000CB50020019000903348006892
:101CA00040F480303149086000BF3048006800F4DB
:101CB000003000900198401C0190009818B90198DC
:101CC000B0F5A06FF1D12948006800F4003010B1E0
:101CD0000120009001E0002000900098012843D1ED
:101CE0002348006840F01000214908600846006859
:101CF00020F0030008600846006840F00200086019
:101D00001A484068194948600846406848600846D3
:101D1000406840F4806048600846406820F47C10C9
:101D200048600846406840F4E8104860084600688B
:101D300040F08070086000BF0C48006800F0007040
:101D40000028F9D00948406820F00300074948609E
:101D50000846406840F00200486000BF0348406801
:101D600000F00C000828F9D10CBD00000010024062
:101D70000020024010B5044601F0CEFB6106080EBB
:101D800001F086FB10BD000010B580211948FFF757
:101D90002BF840211748FFF727F801F02BFB802193
:101DA0001448FFF716F888B900240DE040211148C7
:101DB000FFF718F801F01EFB40210E48FFF714F85A
:101DC00001F018FB601CC4B2092CEFDB802109482C
:101DD000FFF708F801F00EFB40210648FFF704F872
:101DE00001F008FB80210348FEF7FEFF01F002FB33
:101DF00010BD0000000C014010B501F0A9FB10BDA2
:101E000008B501210820FFF77FFEC020ADF80000D3
:101E100014208DF8030003208DF80200694606485F
:101E2000FEF74CFF40210448FEF7DEFF8021024808
:101E3000FEF7DAFF08BD0000000C014070B5044653
:101E400001F06AFB6106080E01F022FB054601F075
:101E50007FFB0DB9012070BD0020FCE770B5044682
:101E60000D461646012332462946204600F001F869
:101E700070BD2DE9F04105460F4690461E4601F023
:101E80004BFB6906080E01F003FB20B101F060FB7B
:101E90000120BDE8F081384601F0FAFA18B101F0EE
:101EA00057FB0120F5E701F037FB012101EB45016C
:101EB000C8B201F0EDFA18B101F04AFB0120E8E7E1
:101EC00000240CE0711EA14201DD012100E000218F
:101ED000084601F09BFA08F80400601C84B2B44282
:101EE000F0DB01F035FB0020D3E710B504462046B7
:101EF00001F0CEFA10BD2DE9F04105460E46174619
:101F000001F00AFB6906080E01F0C2FA20B101F0E7
:101F10001FFB0120BDE8F081002409E0305D01F0E5
:101F2000B7FA18B101F014FB0120F3E7601C84B28A
:101F3000BC42F3DB01F00CFB0020EBE7F8B50646F2
:101F40000C4615468DF800408DF801500222694676
:101F50003046FFF7D0FFF8BD10B500F0FFFFFEF7E9
:101F6000B9FA10BD10B51348006840F001001149DE
:101F7000086008464068104908400E494860084615
:101F800000680E4908400B4908600846006820F4C4
:101F9000802008600846406820F4FE0048604FF446
:101FA0001F008860FFF771FE4FF000600449086071
:101FB00010BD0000001002400000FFF8FFFFF6FE19
:101FC00008ED00E000BFFEE710B50A48006810B158
:101FD0000948007808B1022010BD02F0F7FA044663
:101FE0000548007808B9FF2C01D10220F4E704F07D
:101FF0000100F1E780000020840000200148006813
:10200000704700008000002010B504460E480068AC
:1020100048B10D480068844205D2C4F30B0010B9E2
:1020200002F018FD08B1012010BD012002F022FAD3
:10203000202002F073FB204600F0B8FB002002F0E5
:1020400019FA02480078EFE78000002084000020A1
:1020500001480068704700007C00002070B586B021
:102060000020414908604149086041490870012148
:1020700041F20400FFF748FD10213E48FEF7B4FE90
:102080001020ADF814008DF8170003208DF816000D
:1020900005A93848FEF712FEA020ADF8140018205C
:1020A0008DF8170005A93348FEF708FE4020ADF86B
:1020B000140004208DF8170005A92E48FEF7FEFD38
:1020C0006846FFF7D5FD4FF48270ADF802004FF47B
:1020D0000070ADF80A001820ADF80C0069462648DB
:1020E000FFF7A8FD01212448FFF798FD012002F029
:1020F000C1F9AB2002F012FB002002F0BBF90A206C
:1021000000F034FF012002F0B5F99F2002F006FB39
:10211000FF2002F003FB0646FF2002F0FFFA05460F
:10212000FF2002F0FBFA0446002002F0A3F930047D
:1021300040EA052020430C4908600D48007848B962
:10214000EF2E07D1402D01D0702D03D1122C01DBD1
:10215000182C02DD012006B070BD0120A04003490B
:1021600008600020F7E700007C00002080000020CD
:102170008400002000080140003001402DE9F041BA
:1021800005460F4614461A48006888B184B1B4F574
:10219000807F0DDCE8B22044B0F5807F08D8144879
:1021A0000068854204D212480068401BA04202D257
:1021B0000120BDE8F08102F04DFC08B10120F8E7F4
:1021C000012002F057F9022002F0A8FA284600F098
:1021D000EDFA002604E0B85D02F0A0FA701C86B2A9
:1021E000A642F8DB002002F045F902480078E0E75B
:1021F00080000020840000202DE9F04106460F46B3
:1022000014461648006860B15CB114480068864204
:1022100007D212480068801BA04202D3FFF7D4FE09
:1022200010B10120BDE8F081012002F023F9032064
:1022300002F074FA304600F0B9FA002505E0FF20FC
:1022400002F06CFA7855681C85B2A542F7DB0020D5
:1022500002F010F902480078E4E700008000002056
:10226000840000200FB4084B10B504A902AA0398FB
:1022700000F01CF8044602A9002000F042FA2046B3
:1022800010BC5DF814FB00000327000802E008C83A
:10229000121F08C1002AFAD170477047002001E0E0
:1022A00001C1121F002AFBD1704700002DE9FF4F2A
:1022B0008DB00F460546002606E025280BD0DDE947
:1022C0000F1290476D1C761C28780028F5D111B0AC
:1022D0003046BDE8F08F0024A246A1460122E9491C
:1022E00000E0044315F8013F203B02FA03F00842E6
:1022F000F7D128782A2810D06FF02F022878A0F183
:102300003001092914D80AEB8A0102EB410144F09B
:10231000020400EB010A6D1CF0E701CF5FEA000A3E
:1023200003D544F40054CAF1000A44F002046D1CC1
:1023300028782E2817D115F8010F44F004042A2814
:102340000ED06FF02F022878A0F1300109290AD8A9
:1023500009EB890102EB410100EB01096D1CF2E779
:1023600057F8049B6D1C28786C280FD006DC4C288D
:1023700017D068280DD06A2814D104E0742810D032
:102380007A280FD10DE044F400140AE044F48014DC
:1023900001E044F440146978814202D104F58014CC
:1023A0006D1C6D1C28786E281ED00CDC632830D084
:1023B00004DC00288BD0582811D19FE0642867D016
:1023C00069280CD164E073282DD004DC6F2872D00A
:1023D000702804D194E075286ED078286DD0DDE99E
:1023E0000F129047761C4BE1C4F30250022806D02E
:1023F000032809D0042801CF09D0066040E101CFAD
:10240000F117C0E900613BE101CF068038E10670B9
:1024100036E117F8040B8DF8000000208DF801005C
:10242000EB46012003E057F804BB4FF0FF30610793
:102430004FF0000102D40DE008F101018846494542
:102440000FDA8045F8DB1BF808100029F4D108E00A
:1024500008F1010188468142FADB1BF808100029C7
:10246000F6D1DDE90F23AAEB08008146214600F0F2
:1024700031F9304400EB080604E0DDE90F121BF8E7
:10248000010B9047B8F10108F7D221464846F2E027
:102490000A21C4F302524FF0000B0891022A04D023
:1024A00001CFC117032A09D00AE0FF1D27F0070753
:1024B000F7E8020108E02CE01EE01FE000B2C117BF
:1024C000042A01D140B2C117021E71F1000206DADE
:1024D0000023D0EB030063EB01012D2202E0220573
:1024E00004D52B228DF82420012203E0E20701D03D
:1024F0002022F7E7904653E00A210BE0102109E083
:1025000010214FF0000B44F004044FF0080908912B
:1025100003E008214FF0000B0891C4F30252022A95
:1025200004D001CF0021032A06D006E0FF1D27F0CA
:102530000707F7E8020103E080B2042A00D1C0B225
:102540004FF0000822072BD52A78702A07D0DDF833
:1025500020C08CF0100C5CEA0B0C05D00EE0402281
:102560008DF82420012208E050EA010306D0302330
:102570008DF824308DF8252002229046089B83F0A8
:10258000080353EA0B030BD150EA010201D16207A1
:1025900006D530228DF824204FF00108A9F1010959
:1025A0002A78582A04D038A20B9208AA0A920BE083
:1025B0003AA2F9E75B46089AFDF7F7FD0B9B9B5C97
:1025C0000A9A521E0A92137050EA0102F2D10A9836
:1025D000ADEB000000F1200B600702D524F480343D
:1025E00001E04FF00109D94502DDA9EB0B0000E045
:1025F000002000EB0B0141440890AAEB010AE00324
:1026000006D4DDE90F232146504600F063F8064466
:102610004FF0000908E009A911F80900DDE90F12DF
:10262000904709F10109761CC145F4DBE0030CD5A4
:10263000DDE90F232146504600F04CF8064404E043
:10264000DDE90F1230209047761C0899481E08904B
:102650000029F5DC08E00A980A990078491C0A91DB
:10266000DDE90F129047761CBBF10001ABF1010BC5
:10267000F1DC21465046DDE90F2300F019F806444D
:102680006D1C21E6092801003031323334353637EC
:1026900038396162636465660000000030313233AE
:1026A000343536373839414243444546000000004E
:1026B0002DE9F041044600251E461746880404D43F
:1026C00005E039462020B0476D1C641EF9D5284628
:1026D000BDE8F0812DE9F041044600251E469046F4
:1026E000C80301D5302700E02027880404D505E081
:1026F00041463846B0476D1C641EF9D52846BDE8F2
:10270000F0810A68531C0B60107070470146002965
:1027100001DA484270470846FCE7000030B503463E
:102720000A46002001E0441CE0B2194C2478A04283
:1027300005DA184C54F82040141B002CF3DD202837
:1027400000D130BD124C2478202C04DA104C2478AF
:10275000641C0F4D2C700E4C2478641EE1B20DE009
:102760004C1E0C4D55F8244045F821404C1E0A4D96
:1027700035F8144025F811404C1EE1B28142EFDCDF
:10278000044C44F82020044C24F8103000BFD8E753
:102790008A000020AC0900206C0900200146024894
:1027A000006800EB411070479C00002010B5044603
:1027B000C4F3074001F0B2FFC4F3072001F0AEFFFD
:1027C000E0B201F0ABFF10BD70B505460C4604B990
:1027D00070BDFDF783FD01200349087028190349E6
:1027E000086000BFF4E70000100000201C0000207B
:1027F0000246002106E0505CFF2801D0002070470F
:10280000481CC1B22029F6DB0120F8E72DE9F04190
:1028100005460C461646204604EBD071C1F34F071F
:10282000BD4201DA284600E0601B1FFA80F83946F5
:10283000404600F0F4FBA6F10E01090248434FF4B4
:10284000606101EB902080B2BDE8F0810146002973
:1028500006DB01F18003D81703EB1060001206E0DD
:10286000C1F18002D01702EB10600012404240B26A
:10287000704700002DE9F04706460D469046994600
:1028800040F6B830864201DD064603E0174886422E
:1028900000DA064640F6B830854201DD054603E021
:1028A0001248854200DA054606FB06F005FB0507DF
:1028B000384601F08FFD044604FB04F0B84200D214
:1028C000641C962C00D2962405EB8500800290FBB8
:1028D000F4F0C8F80000704200EB8000800290FB2A
:1028E000F4F0C9F80000BDE8F087000048F4FFFFED
:1028F0007CB505466B4601AAD5E90201FFF7BAFF90
:102900003048007898B93049019808602F490098FC
:10291000086001202B4908700198FFF797FF2C49A8
:1029200008700098FFF792FF2A49087046E02A498C
:10293000A86B0968441A642C00D9642422490198C0
:102940000968401A604304F12D0190FBF1F01E4923
:10295000096808441C4908601C4900980968401A25
:10296000604304F12D0190FBF1F018490968084417
:1029700016490860164890F9000013490968A1EB50
:102980000026A02E02DC16F1A00F05DA0E48006822
:10299000FFF75CFF0E4908700E4890F900000B49E4
:1029A0000968A1EB0026A02E02DC16F1A00F05DAC3
:1029B00006480068FFF74AFF064908700649A86BF9
:1029C00008607CBDB6000020AC000020B0000020F4
:1029D000B4000020B5000020B8000020014601220C
:1029E0000F4B1A7000220F4B1A700F4B1A700F4BBF
:1029F0001A700F4A116000200EE000220D4B43F8C0
:102A0000202047F6FF720C4B23F81020521C0B4B72
:102A100023F81020421CD0B20328EEDB70470000E0
:102A2000200000202400002023000020220000209D
:102A3000340000200C010020260000202C00002083
:102A40002DE9F04106460D4617465748007828B153
:102A500056480168304600F0DDFA08B9BDE8F0815B
:102A600006F10A005149086051480078401C50495D
:102A700008705FB34F480078401C4E49087000242E
:102A800022E04D4850F8240035F9141008444A4912
:102A900041F8240035F91400484931F914108842EE
:102AA00004DA35F81400454921F8140035F914000A
:102AB000434931F91410884204DD35F814004049C7
:102AC00021F81400601CC4B2032CDADB384800780B
:102AD000642800DAC2E7374800785A2801DB012071
:102AE00000E000208046B8F1000F1CD000240DE06B
:102AF000334830F91400314931F91410401AB0F557
:102B0000966F01DD4FF00008601CC4B2032CEFDBB0
:102B1000294880682749097890FBF1F0B0F5FA5F01
:102B200001DA4FF0000800201F490870B8F1000FCB
:102B300030D0214800681F49097890FBF1F0214905
:102B400008601D4840681B49097890FBF1F01E4958
:102B50000860194880681749097890FBF1F01B4913
:102B6000086000240CE0144850F82400114909784A
:102B700090FBF1F00002164941F82400601CC4B239
:102B8000032CF0DB0120134908701349087000F092
:102B900019FE06E001201149087006F57A70104907
:102BA000086000BF5AE70000200000203400002029
:102BB00023000020240000200C010020260000201B
:102BC0002C0000200000002004000020080000204D
:102BD00000010020210000200C0000202200002025
:102BE000380000202DE9F04105460C462046FDF74F
:102BF000BFFA00EB40004006060E802E05DAC6F153
:102C0000800707EBD771491000E00021C8B22246C7
:102C10002946FEF741FFBDE8F08100001FB5FDF732
:102C20004DFD044621A211210620FEF735FF21A209
:102C300011214A20FEF730FF207AA8B1B4F9001024
:102C40000022684600F07CFA6A461F210320FEF746
:102C5000DDFE61880022684600F072FA6A461F2194
:102C60004420FEF7D3FE09E014A21F210F20FEF737
:102C7000CDFE12A21F215320FEF7C8FE10A2342160
:102C80000820FEF709FF0FA234214C20FEF704FFB5
:102C9000607A48B1207A08B10BA000E00BA0024690
:102CA00001216220FEF7F8FE1FBD000054454D5083
:102CB0000000000048554D49440000002D2D000043
:102CC00043000000255248004F4C440057414954EE
:102CD0000000000030B503460C464FF0FF310022E3
:102CE00011E0985C4140002509E001F0010008B1C5
:102CF000074800E0002080EA5101681CC5B2082D99
:102D0000F3DB501CC2B2A242EBDBC84330BD000073
:102D10002083B8ED38B504460220ADF800008DF8E8
:102D200003408DF8020069460148FDF7C7FF38BD32
:102D30000008014070B58EB00546FDF7BFFC0446A3
:102D4000E07C60B1A07C617C227CCDE90021029016
:102D5000E37BA27B2AA104A8FFF784FA03E02FA15A
:102D600004A8FFF77FFA04AA0E210420FEF794FEC0
:102D7000A0894FF47A7190FBF1F201FB1206E07A20
:102D8000CDE90006A37A627A29A104A8FFF76AFABE
:102D900004AA17210420FEF77FFE2A48008800902D
:102DA0002848001F0388001F028827A104A8FFF7F6
:102DB00059FA04AA20210420FEF76EFEFDF798FAC6
:102DC0000646688E298ECDE900102348006800F081
:102DD0000302334621A104A8FFF744FA04AA2921DB
:102DE0000420FEF759FE22A104A86A6BFFF73AFA05
:102DF00004AA35210420FEF74FFE0EB070BD00007E
:102E0000443A253032582025303258202530325867
:102E1000202530325820253032580000443A4E4F99
:102E200020434F4D504C455445204652414D45009E
:102E3000452575204E25752050257520545259255D
:102E4000750000003C2C0140522534752047253484
:102E50007520422534750000080C0140414225755B
:102E6000204B257520532575204625750000000050
:102E70004D50552045525220256C750070B586B0D6
:102E800001A8FEF761FE039CDDE90210884200D034
:102E9000640001210846FEF727FE00204FF0804124
:102EA00008801E48B4FBF0F0401E08854FF6FF7006
:102EB000888501208882002008828884012008807B
:102EC000002017490860174800684FF47A72B0FB79
:102ED000F2F1B1F1807F00D31DE021F07F40401E70
:102EE0004FF0E022506150170F22002807DA130735
:102EF0001E0E0D4B00F00F052D1F5E5503E013074E
:102F00001D0E0A4B1D5400BF00204FF0E0229061BF
:102F10000720106100BF06B070BD000040420F00E6
:102F20003C000020EC00002018ED00E000E400E090
:102F30004FF08040808C7047014800687047000067
:102F40003C00002000B50146FFF7F6FF024600BF37
:102F5000FFF7F2FF801A8842FAD300BD02480068EA
:102F6000401C0149086070473C00002013E04EF609
:102F70006023984200D900E0034699B24FF08043A5
:102F80009A8C00BF4FF080439B8C9B1A9BB28B4264
:102F9000F8DB401A00BF0028E9D1704710B50146A0
:102FA0000022174B33F81130164C2488E31A154CC5
:102FB00023800023124C24F81130002018E0124C1A
:102FC00034F81030DC1703EB5464B1EBE41F0DD080
:102FD0000D4B33F810300C4C24F812300B4B53F8D7
:102FE00020300A4C44F82230531CDAB2431CD8B2C9
:102FF000074B1B789842E2DB054B1A7010BD0000AE
:103000004C090020920000206C090020AC0900202F
:103010008A0000200246501AC017401C704710B5A5
:1030200002469002B0FBF1F303FB03F05C00C4F531
:1030300040646043000D10BD70B5044620211E4859
:10304000FDF78BF81D491C4801F022F91A48001DB4
:10305000216801F01DF918480830616801F018F97D
:10306000208981B214480C3001F00EF9E189124830
:103070000E3001F009F9608981B20F48103001F07B
:1030800003F9A08981B20C48123001F0FDF8207CD0
:1030900000F003010848143001F0FAF8182106483E
:1030A000FFF718FE054629460348183001F0F0F8EE
:1030B000FF200149C87770BD2C0900204C4F4731D3
:1030C00070B5054604261C48007890B100240EE037
:1030D0001A4951F8242035F91410C2EB0120FFF7EA
:1030E00015FBB0F5163F00DD0226601CC4B2032CB0
:1030F000EEDB00241AE035F9141008020E490978B5
:1031000019B90E4941F824000EE00C4951F8241079
:10311000421A0121B14092FBF1F1084A52F82420F1
:103120001144064A42F82410601CC4B2032CE2DBAE
:1031300001200149087070BD0C0000200001002032
:103140002DE9F84307460C461646002C01DA60428A
:1031500000E020460546A6B10A20B5FBF0F100FBD1
:103160001158B5FBF0F9CDF80080002C01DA2D20C4
:1031700000E02B2002464B460DA13846FFF772F8BF
:1031800013E00A20B5FBF0F100FB1158B5FBF0F994
:10319000CDF80080002C01DA08A000E008A002466B
:1031A0004B4608A13846FFF75DF8BDE8F8830000FC
:1031B0002563256C752E256C750000002D00000020
:1031C000000000002573256C752E256C750000002D
:1031D00010B50446062C0ED2DFE804F00D030507F7
:1031E000090B0BA010BD0CA0FCE70DA0FAE70EA088
:1031F000F8E70FA0F6E7FEF72BFF38B1FEF728FF40
:103200006FF07F41884201D00BA0EBE70CA0E9E70B
:103210005343414E00000000524541445900000014
:10322000534156494E4700004552524F520000004C
:103230004C4F434B45440000554E53555000000041
:10324000414253454E540000014608784A7840EA0E
:1032500002207047014608784A7840EA02208A78BE
:1032600040EA0240CA7840EA0260704770B598B000
:103270000446FDF7A3FE88B947A214210420FEF7F7
:10328000C5FBFDF7E9FE0646FFF7A2FF05462A4605
:103290002A210A20FEF700FC18B070BDA07813A9FF
:1032A000FDF766FE68B1FDF7D7FE042801D13DA009
:1032B00000E03FA005462A4616210420FEF7A6FBA3
:1032C000EAE7FDF77BFE0546A078421C2B463AA1B3
:1032D00009A8FEF7C7FF09AA01215C20FEF7DCFB65
:1032E00037A211210620FEF7D7FB37A211214A2071
:1032F000FEF7D2FB9DF85C0000F0010060B1BDF963
:103300005410002205A8FFF71BFFBDF85A10002239
:1033100001A8FFF715FF07E02DA105A8FCF73CFF6A
:103320002BA101A8FCF738FF05AA1D210320FEF7F9
:103330006DFB01AA1D214420FEF768FB9DF85C008F
:1033400000F0020090B1BDF95610012205A8FFF768
:10335000F7FEBDF95810012201A8FFF7F1FE01ABFD
:1033600005AA1CA109A8FEF77DFF03E01BA109A87F
:10337000FEF778FF09AA2F210420FEF78DFB1AA182
:1033800009A8DDE91323FEF76DFF09AA39210420FE
:10339000FEF782FB00BF7FE74E4F205245434F525E
:1033A0004453000052454144204552524F520000C0
:1033B00052454144494E470025752F2575000000B0
:1033C00054454D502043000048554D202500000035
:1033D0002D2D000050257320522573004C45564575
:1033E0004C202D2D0000000023256C7520256C75C8
:1033F0005300000008B50820009000BF9DF80000B1
:10340000411EC9B200910028F8D108BD70B505462B
:10341000002480211D48FDF7E7FC002616E0600629
:10342000040E40211948FDF7DFFCFFF7E3FF802180
:103430001648FDF7CEFC08B144F0010440211348C2
:10344000FDF7D0FCFFF7D6FF701CC6B2082EE6DBF6
:1034500025B180210D48FDF7C5FC03E080210B4814
:10346000FDF7C2FCFFF7C6FF40210848FDF7BCFC92
:10347000FFF7C0FF40210548FDF7B4FCFFF7BAFF96
:1034800080210248FDF7B0FC204670BD000C0140D1
:1034900070B5044600251DE004F0800020B18021B5
:1034A0001C48FDF7A1FC03E080211A48FDF79AFCB7
:1034B000FFF7A0FF40211748FDF796FCFFF79AFFA2
:1034C00040211448FDF78EFCFFF794FF6006040EC0
:1034D000681CC5B2082DDFDB80210E48FDF784FC97
:1034E000FFF788FF40210B48FDF77EFCFFF782FFC6
:1034F00080210848FDF76DFC08B1012000E00020A4
:10350000064640210348FDF76DFCFFF773FF304688
:1035100070BD0000000C014010B580210B48FDF784
:1035200063FCFFF767FF40210848FDF75DFCFFF7EC
:1035300061FF80210548FDF755FCFFF75BFF402147
:103540000248FDF74FFCFFF755FF10BD000C01408E
:1035500010B580210848FDF745FCFFF74BFF4021DF
:103560000548FDF741FCFFF745FF80210248FDF7C4
:103570003BFCFFF73FFF10BD000C01402DE9F0417F
:1035800086B00446E07800283AD17749087077A1E0
:103590000920FFF727FB207908B176A004E06079C5
:1035A00008B177A000E079A001461C20FFF71AFBC4
:1035B000207910B3A079642801DD642000E0A079AF
:1035C000074601202D236722194600901820FEF798
:1035D00087F88FB1C7EB071000EB87106421B0FBB1
:1035E000F1F0183000F0FF0801202E2342462C2174
:1035F00000901820FEF7F2F800BF06B0BDE8F08199
:103600002046FFF775F9654800781F30C5B2644859
:1036100000782030C6B201231C2220211F20FDF794
:10362000DBFF012018231A22194600901720FEF70D
:1036300057F801201B231722182100901046FEF78F
:103640004FF8012018232722194600902420FEF766
:1036500047F801201B232722182100901046FEF76F
:103660003FF8012028231A22194600901720FEF760
:1036700037F8012028231722252100901046FEF755
:103680002FF8012028232722194600902420FEF736
:1036900027F8012028232722252100901046FEF735
:1036A0001FF80023072231462846FDF7F1FF0123CA
:1036B000062231462846FDF7EBFF0023042231465F
:1036C0002846FDF7E5FF0120B21ED3B2D1B2AA1EF3
:1036D0000090D0B22A46FEF703F8721ED1B2AA1E9D
:1036E000D0B20122FEF752F8E07908B11FA000E045
:1036F0002CA0024601214420FEF7CEF92BA20B217B
:103700004420FEF7C9F9002202A82169FFF718FD3D
:103710002069B0F57A7F03DA206910F57A7F01DC41
:1037200024A000E002A8024614214220FEF76EF910
:1037300022A226214420FEF7AFF9002202A86169E7
:10374000FFF7FEFC6069B0F57A7F03DA606910F577
:103750007A7F01DC17A000E002A802462F21422058
:10376000FEF754F900BF48E7B60000204C45564527
:103770004C000000484F4C44205354494C4C00002E
:10378000504C41434520464C41540000434845437A
:103790004B2053454E534F5200000000B400002010
:1037A000B500002054494C540000000050495443D7
:1037B000480000004F56455200000000524F4C4C4C
:1037C0000000000010B50020054908700549087088
:1037D0000549087005490870FCF776FD10BD00002A
:1037E000100000200F0000200E0000200D0000201F
:1037F0002DE9F04104460D4616462846FEF786FFA1
:103800000A2806DC3046FEF781FF0A2801DC012089
:1038100000E0002007462846FEF778FF142804DA67
:103820003046FEF773FF142801DB012000E0002082
:103830008046BFB11B48007820B91B4804600120B6
:10384000184908701948007878B917480068201A94
:1038500064280AD301201549087064212046FEF728
:10386000B3FF02E000200F490870B8F1000F13D039
:103870000F48007820B90F48046001200C490870F7
:103880000A48007858B10B480068201A642806D30B
:1038900000200649087002E0002005490870BDE8D4
:1038A000F08100000E000020140000200D00002018
:1038B0000F0000201800002010B586B001A8FEF708
:1038C00043F9049C02990498884200D064000121C5
:1038D000C802FEF719F90121C802FEF725F90021F7
:1038E0004FF40060FEF720F91B48B4FBF0F0401ED7
:1038F0001A49088040F60F60091D0880002017490A
:1039000014310880091F0880091F088046F66800E6
:103910001249103908806820091D088040F21110F2
:10392000091D088080200D492839088001200B4995
:10393000143908800020091F08804FF4004007490F
:103940001C31088005482838008840F001000349F0
:103950002839088006B010BD00DD6D00282C01401C
:103960007CB5804805780020009001907E48008852
:1039700020B17D480088401E7B4908807B48007844
:10398000032805D17848008810B1022D00D0032506
:103990007648007885421BD0744805700020744931
:1039A0000880002407E0734830F81400724921F8B9
:1039B0001400601CC4B2032CF5DB032D03D14FF4BB
:1039C000FA7069490880022D02D100206B490880F5
:1039D00067480088B0F5967F04D265480088401C8F
:1039E0006349088066480088401C40F6B83190FB67
:1039F000F1F201FB12006249088060480088401C17
:103A00004FF4C86190FBF1F201FB12005B490880A2
:103A10005C480078401CC0B25A490870052800DA9A
:103A20007CBD002057490870012D09D18C2240F639
:103A3000B83153480088FEF7E9FEADF8020038E0DF
:103A4000022D09D1AA224FF4C8614C480088FEF724
:103A5000DDFEADF800002CE0032D08D14FF4C84086
:103A6000ADF802004FF4F040ADF8040021E0042D61
:103A700016D145490888BE21414309029622B1FB6F
:103A8000F2F189B2ADF80010C0F196018C225143D9
:103A900009029622B1FBF2F189B2ADF8021008E0FA
:103AA000B42240F6B83136480088FEF7AFFEADF8D4
:103AB00004004FF496712E480088FFF7B0FA0646CE
:103AC000002436E0042D1FD129480088B0F5967FE8
:103AD0001AD13DF81410274A32F81420881A002809
:103AE00005DB00F10B010C2291FBF2F104E0A0F1E7
:103AF0000B010C2291FBF2F11E4A32F81420114402
:103B00001C4A22F8141012E03DF814101A4A32F838
:103B10001420891A01FB06F0C11700EB9151164AD7
:103B200032F8142002EBA121124A22F81410601C72
:103B3000C4B2032CC6DB0F49088800F0B5FB13495B
:103B400008800C49488800F0AFFB1049091D088027
:103B50000849888800F0A8FB0C490831088000BF9C
:103B60005EE70000460000205600002058000020BC
:103B7000540000205A000020600000205200002065
:103B8000500000205900002066000020342C014025
:103B9000ACB000202890012525901E901D901C900F
:103BA0001B901890179014901290119010903C2137
:103BB00001A8FCF7D2FAFCF731FFFCF767FBFDF731
:103BC00017F9FCF79FFBFFF759F93C20FCF751FB75
:103BD000FEF716F9FEF7D8F84FF49670FFF7B2F932
:103BE0003C20FEF72BF92B906820FEF727F92A904E
:103BF0002B98F8B91DE0002000900DE0FDF71AF9B0
:103C00005020FFF79FF9FDF70BF97820FFF79AF99D
:103C10000098401CC0B200902A9808B1032100E02F
:103C2000052100988142E9DC4FF49660FFF78AF99C
:103C300000BFE0E7FDF7EDFDFFF77EF90446204603
:103C4000FCF740FD2046FDF74BF9FDF7B9FB08B93D
:103C5000012000E000202990FFF76EF90446299822
:103C600010B12046FEF7BAFEA3462746A24604F549
:103C70007A70169015904EF66020204413902646D8
:103C800000208DF806008DF805008DF80400DCE2B8
:103C9000FFF752F904462046FCF770FDFE48007815
:103CA00050B1FE4801682046FFF7B4F920B1FCF797
:103CB0000BFB0020F8490870289840B12046149961
:103CC000FFF7A8F918B1FDF7ABF8002028902046BF
:103CD0001599FFF79FF948B1FDF7ACF8012028903E
:103CE00004F11E00149004F57A701590FCF7DEFBC9
:103CF0002490FCF7C9FB2690269800F0020060B1E2
:103D000000208DF806008DF805008DF80400274688
:103D1000E3A0109004F2DC5012902498B8B39DF800
:103D20000500D8B19DF80610249801EB0008B8F101
:103D3000000F01DA4FF00008FDF740F9404508DCBC
:103D4000FDF73CF918B1FDF739F9401E00E00020FD
:103D5000804608F0FF008DF8060017E09DF804107B
:103D6000249801EB000803E008F107000FFA80F83F
:103D7000B8F1000FF8DB072098FBF0F100FB118091
:103D8000C0B28DF8040000208DF806002746269862
:103D900000F0010000283ED09DF80400022813D155
:103DA000FDF70CF950B19DF8050008B9012000E0BD
:103DB00000208DF80500002010902BE0BAA0109094
:103DC00004F5FA60129025E0BA48007810B10DB9F8
:103DD000012000E0002003462046DDE91B2100F021
:103DE0000FFB38B9B4A0109001202590FDF7BAF868
:103DF00011900CE0FDF730F908B9B1A006E0FDF72D
:103E00002BF9052801D1B1A000E0B2A0109004F573
:103E1000FA601290274651462046FFF7FBF800282B
:103E20007ED004F1050A299838B11FAA20A922A83A
:103E3000FDF722FB08B9012000E000202790279819
:103E4000002872D01E98401C80B21E904FF00009CE
:103E50000FE022A830F8191009A820F8191020A89E
:103E600030F81910563820F8191009F1010000F047
:103E7000FF09B9F1030FECDBBDF97C00ADF83000B0
:103E80001DB1002096490870002522A8FFF718F9F7
:103E9000A346012222A92046FEF7D2FD85480078DC
:103EA000F0B390490868C11700EB11618E4A12689F
:103EB000C2EB212141F2626251438C4A126891FBAC
:103EC000F2F149421A9187494868C11700EB116124
:103ED000874A1268C2EB212141F262625143834A50
:103EE000126891FBF2F119910A201A9991FBF0F0F6
:103EF0001C900A20199991FBF0F01B9018991A98C0
:103F000000F04BFB18901799199800F046FB17909A
:103F1000DDE91B10FCF77CFA2046DDE91B2101E0FE
:103F200012E002E0FFF764FC0EE0299810B10E9851
:103F3000401C0E9000206F4908706F4908700022E5
:103F400022A92046FEF77CFDA4EB0B00642819D3C0
:103F50000DB9FFF737FC012520461699FFF75AF8EF
:103F600080B1FCF763FB68B9FDF70EFFFDF728FA97
:103F700008B9012000E000202990FEF7DDFF00F5E0
:103F80007A7016904B48007870B95C48007858B940
:103F9000299848B145B95A4801682046FFF73AF8D0
:103FA00010B12046FEF71AFD4248007810B10DB955
:103FB000012000E0002003462046DDE91B21FCF73C
:103FC00043FDA01BB0F57A7F17D34FF47A711E988A
:103FD0004843A11BB0FBF1F080B2ADF834004FF4C0
:103FE0007A711D984843A11BB0FBF1F080B2ADF887
:103FF000360000201D901E9026462046FDF732F820
:1040000020461399FFF706F8E8B1FDF725F80228D6
:1040100019D1FCF753FB007AA8B1FCF74FFB407AAB
:1040200088B92448007810B10DB9012000E00020C3
:1040300003462046DDE91B2100F0E2F918B94EF6EF
:104040006020204413902598B8B1FCF78BFF11999C
:10405000884207D02BA0109004F2DC501290002070
:1040600025900AE0FCF7F8FF042806D127A010905D
:1040700004F6B830129000202590109830B12046F8
:104080001299FEF7C7FF08B100201090FCF796FFC9
:104090009DF8061088423FE0100000201C00002020
:1040A000484F4D45000000004E4F205245434F52AF
:1040B0004453000021000020534156494E47000060
:1040C0004E4F20464C415348000000004C4F434B9C
:1040D000454400004E4F54205245414459000000D1
:1040E0000C0000200001002000000020080000203B
:1040F000040000200F0000200E00002020000020FF
:1041000038000020534156454400000053415645B5
:10411000204552524F52000002DC00208DF806006C
:10412000FCF79AFF032802D1FCF7A8F93CE09DF8C0
:10413000040030B94548007800B115B14448007812
:10414000D0B19DF80400012803D1FCF7B7FA407AFA
:1041500090B99DF80400022803D09DF804000328BC
:104160000ED1FCF779FF042806D0FCF775FF05286F
:1041700002D0FCF771FF18B90220FCF77FF913E0B9
:104180009DF8040038B93148007820B11DB90420E9
:10419000FCF774F908E02F49097809B1012100E022
:1041A00000210846FCF76AF9FDF790FBB8BB3946D9
:1041B0002046FEF72FFF90B32448007810B10DB9C8
:1041C000012000E000208DF80700214800788DF8DC
:1041D0000800214800788DF80900299810B10DB920
:1041E000012000E000208DF832001C4800788DF896
:1041F0000A00184800788DF80B001C9803901B9853
:10420000049018980590179806904FF47A70B4FBB4
:10421000F0F00790FCF76CF810B111A001E012E08B
:10422000109808900F9401A8FCF77CFBFDF74AFC5E
:104230001D98401C80B21D909DF8040008B92120F3
:1042400000E032200719FDF747FB21E5210000209F
:10425000200000200D00002022000020230000206C
:104260004B455920444F574E0000000010B50446FE
:104270003C20FDF77FFD0020FDF737FE2046FDF7CF
:1042800034FEFDF7B9FD10BD01700A12427070478F
:104290000246002005E0C30021FA03F31354431C37
:1042A000D8B20428F7DB7047014688024FF47F43F9
:1042B000B0FBF3F202FB02F04FF4616358434FF698
:1042C000FF7303EA1050704730B587B0054630A23F
:1042D00010210420FDF7E0FB2EA210214420FDF761
:1042E000DBFB00243DE095F82E0050B105F12000E5
:1042F00030F9143004F1580228A101A8FDF7B2FFEB
:1043000005E004F1580227A101A8FDF7ABFF04EB7B
:1043100084001B2202EB4000C1B201AA0420FDF779
:10432000BBFB95F82E0050B105F1260030F9143092
:1043300004F1580219A101A8FDF794FF05E004F16A
:10434000580218A101A8FDF78DFF04EB84001B2281
:1043500002EB4000C1B201AA4420FDF79DFB601CA6
:10436000C4B2032CBFDB95F82E0030B1B5F92C2078
:104370000FA101A8FDF776FF03E010A101A8FDF74A
:1043800071FF01AA39210420FDF786FB07B030BD7B
:10439000414343004759524F000000002563253632
:1043A000640000002563202020202D2D0000000047
:1043B00054454D5020524157202564004D50552002
:1043C0004441544120554E415641494C41424C458F
:1043D00000000000024600204FF0804100E0890804
:1043E0009142FCD809E04318934204D84318D21AEA
:1043F00001EB500000E0400889080029F3D1704724
:104400002DE9F04186B005460E4617469846FCF762
:1044100055F90446002001904FF47A70B5FBF0F096
:10442000029000208DF814002088ADF80C00608800
:10443000ADF8120030B2ADF80E0038B2ADF8100091
:10444000207A38B1607A28B99DF8140040F0010054
:104450008DF81400B8F1000F05D09DF8140040F05D
:1044600002008DF8140001A8FCF7AEFD06B0BDE80F
:10447000F081000010B5044624B110210448FCF777
:10448000B1FC03E010210248FCF7AEFC10BD0000B7
:10449000000801400246052901DB00207047412A3F
:1044A00009DB5A2A07DCA2F1410000EB80001E4B19
:1044B0001844405CF2E7302A09DB392A07DCA2F114
:1044C000300000EB8000194B1844405CE6E72D2AD1
:1044D00001D10820E2E72B2A05D1022901D13E2093
:1044E000DCE70820DAE72E2A05D1022901D1602075
:1044F000D4E70020D2E73A2A05D1022901D136209B
:10450000CCE70020CAE72F2A02D140200841C5E7A6
:10451000252A02D10648405CC0E7232A02D105487B
:10452000405CBBE70020B9E780500008025100085A
:1045300034510008395100082DE9F04704468846F7
:1045400015469A4620E0002619E028783146FFF704
:10455000A1FF814600270EE049FA07F303F00103AB
:1045600083EA0A0208EB0703D9B2A319D8B2FDF710
:104570000DF9781CC7B2072FEEDB701CC6B2062EF1
:10458000E3DBA01DC4B26D1C287820B17A2C02DCBC
:10459000B8F1390FD7DDBDE8F08770B504460D4698
:1045A00005EB8501A4EB4100FEF7B0F80F2801DA16
:1045B000284670BD002C04DB601D0A2190FBF1F041
:1045C000F7E7601F0A2190FBF1F0F2E710B5012038
:1045D000FFF750FF052000F0A1F8FF2000F09EF843
:1045E00004460020FFF746FF204610BD2DE9F041AC
:1045F00086B00446FCF762F80546FDF7FFFC064668
:1046000034A16846A269FDF72DFE6846FBF7B0FDB0
:1046100000EB40007C21A1EB4000C7B26A460121BB
:104620003846FDF739FAE07808B12CA000E02CA05C
:1046300002462DA16846FDF715FE6A4612210420A8
:10464000FDF72AFA287A18B1687A08B923A000E0A1
:1046500023A0024626A16846FDF704FE6A46122101
:104660004420FDF719FA24A220210420FDF714FAB2
:10467000FCF7F2FC8046FEF7ABFD07463A462021E8
:104680004420FDF709FAB20A1DA16846FDF7EAFDCC
:104690006A462C210420FDF7FFF9FCF7D5FB0746FD
:1046A0003A4619A16846FDF7DDFD6A462C214420F3
:1046B000FDF7F2F9FDF7CCFC07463A4614A168462F
:1046C000FDF7D0FD6A4638210420FDF7E5F906B074
:1046D000BDE8F081555020256C7553004F4B00000C
:1046E00057414954000000004D50552025730000EB
:1046F0004448542025730000464C415348000000B4
:10470000256C754B420000002575204C4F4700007A
:104710004944202530366C580000000070B504462E
:10472000FEF706FC05461848007808B1FF2070BD6A
:104730000BE0FEF7FDFB401B80B2B0F57A7F04DD95
:10474000012011490870FF20F1E71048008900F0AE
:1047500002000028EDD00D4884810BE0FEF7E8FB55
:10476000401B80B2B0F57A7F04DD01200649087055
:10477000FF20DCE70548008900F001000028EDD0AB
:1047800002488089C0B2D2E7840000200030014096
:1047900070B58AB0044600F0CFF80546E07850B115
:1047A00001226846A168FEF7CBFC6A4620A104A856
:1047B000FDF758FD03E020A104A8FDF753FD04AA6E
:1047C0000D210420FDF768F90A2095FBF0F632462A
:1047D0001BA104A8FDF746FD04AA01215020FDF706
:1047E0005BF9E07850B101226846E168FEF7A8FC69
:1047F0006A4615A104A8FDF735FD03E014A104A83D
:10480000FDF730FD04AA26210420FDF745F912A288
:1048100026216820FDF740F92A461D210F4800F0A7
:1048200021F82A4637210E4800F01CF80AB070BD66
:10483000502025730000000050202D2D00000000A6
:104840002B2F2D25754400005220257300000000F9
:1048500052202D2D0000000031325300400A00206C
:10486000300B00202DE9FE4F81460D469246002078
:1048700002900190834601200090A81DC3B2A81F9A
:10488000C1B203221046FCF72BFF042407E00122EB
:1048900029462046FCF77AFF04F10800C4B27C2CBC
:1048A000F5DB00243BE02148007878302049097886
:1048B000401A2044782190FBF1F201FB120000F035
:1048C000FF081B480078C0F17C002044C6B219489C
:1048D00010F8080010B94FF0000B1EE039F918006D
:1048E00000EB4000400090FBFAF0281AC7B2BBF181
:1048F000000F08D001203B4632460090DDE9011050
:10490000FCF7EEFE04E0012239463046FCF73EFF9C
:10491000029601974FF0010B00BF601CC4B204481F
:1049200000788442BFDBBDE8FE8F0000A4000020B9
:10493000A5000020200C00200023002126E01D48B7
:10494000405C08B31C4830F91100002804DA1A480A
:1049500030F91100404202E0174830F9110082B2EC
:104960009A4200DD1346154830F91100002804DA98
:10497000124830F91100404202E0104830F91100AD
:1049800082B29A4200DD1346481CC1B20C4800783E
:104990008142D4DB002101E0481CC1B2062904DABF
:1049A000084830F811009842F6DB064830F811004C
:1049B00070470000200C0020400A0020300B00202F
:1049C000A50000205851000830B540F6B833984291
:1049D00001DD184603E0194B984200DA184640F60C
:1049E000B833994201DD194603E0144B994200DACD
:1049F000194603B2124C134D2D7824F815300BB222
:104A0000114C104D2D7824F81530104B0D4C247896
:104A10001A550C4B1B785B1C782493FBF4F504FBB4
:104A20001533084C23700A4B1B78782B04DA084B9B
:104A30001B785B1C064C237030BD000048F4FFFF60
:104A4000400A0020A4000020300B0020200C002091
:104A5000A500002010B5FDF7B7FA08B1012010BD80
:104A60000120FFF707FD0620FFF758FE0020FFF7A3
:104A700001FDFFF7ABFD04460448007810B904F0CF
:104A8000020008B90120EAE70020E8E784000020DE
:104A90000000000000000000000000000000000016
:104AA000000000F8000000000000003330000000AB
:104AB00000100C06100C06000000000000000000B2
:104AC00040C07840C0784000043F04043F04040024
:104AD000007088FC08300000001820FF211E000034
:104AE000F008F000E018000000211C031E211E0049
:104AF00000F00888700000001E21232419272110CF
:104B000010160E0000000000000000000000000071
:104B1000000000E018040200000000071820400018
:104B200000020418E0000000004020180700000008
:104B3000404080F0804040000202010F010202006C
:104B4000000000F0000000000101011F0101010050
:104B5000000000000000000080B0700000000000B5
:104B6000000000000000000000010101010101013E
:104B700000000000000000000030300000000000D5
:104B800000000000806018040060180601000000AA
:104B900000E010080810E000000F102020100F00A7
:104BA000001010F8000000000020203F202000002E
:104BB0000070080808887000003028242221300086
:104BC00000300888884830000018202020110E008E
:104BD0000000C02010F8000000070424243F240037
:104BE00000F80888880808000019212020110E000C
:104BF00000E0108888180000000F112020110E001E
:104C000000380808C83808000000003F0000000015
:104C10000070880808887000001C222121221C00D6
:104C200000E010080810E0000000312222110F00FF
:104C3000000000C0C0000000000000303000000094
:104C40000000008000000000000080600000000004
:104C5000000080402010080000010204081020001D
:104C60004040404040404000040404040404040068
:104C700000081020408000000020100804020100FD
:104C8000007048080808F0000000003036010000FD
:104C9000C030C828E810E0000718272423140B00B0
:104CA0000000C038E0000000203C2302022738202A
:104CB00008F8888888700000203F202020110E000E
:104CC000C030080808083800071820202010080005
:104CD00008F808080810E000203F202020100F00EE
:104CE00008F88888E8081000203F202023201800BA
:104CF00008F88888E8081000203F20000300000022
:104D0000C03008080838000007182020221E0200C2
:104D100008F808000008F808203F210101213F2081
:104D2000000808F8080800000020203F20200000AC
:104D300000000808F8080800C08080807F0000009C
:104D400008F888C028180800203F200126382000D5
:104D500008F8080000000000203F2020202030003C
:104D600008F8F800F8F80800203F003F003F200056
:104D700008F830C00008F808203F200007183F005E
:104D8000E01008080810E0000F10202020100F008D
:104D900008F808080808F000203F21010101000080
:104DA000E01008080810E0000F18242438504F00C5
:104DB00008F8888888887000203F2000030C302085
:104DC00000708808080838000038202121221C00C3
:104DD000180808F8080818000000203F200000000C
:104DE00008F808000008F808001F202020201F00F5
:104DF0000878880000C83808000007380E01000055
:104E0000F80800F80008F800033C0700073C03001E
:104E1000081868808068180820302C03032C302084
:104E20000838C800C83808000000203F20000000F3
:104E300010080808C838080020382621202018004B
:104E4000000000FE020202000000007F404040001F
:104E5000000C30C000000000000000010638C00057
:104E600000020202FE000000004040407F000000FF
:104E70000000040202020400000000000000000024
:104E80000000000000000000808080808080808022
:104E9000000202040000000000000000000000000A
:104EA00000008080808000000019242222223F2000
:104EB00008F8008080000000003F112020110E0043
:104EC0000000008080800000000E112020201100D2
:104ED000000000808088F800000E112020103F2084
:104EE0000000808080800000001F22222222130008
:104EF000008080F0888888180020203F2020000053
:104F00000000808080808000006B94949493600007
:104F100008F8008080800000203F210000203F2012
:104F200000809898000000000020203F2020000012
:104F3000000000809898000000C08080807F000002
:104F400008F8000080808000203F24022D302000DF
:104F5000000808F8000000000020203F202000008A
:104F60008080808080808000203F20003F20003FA4
:104F70008080008080800000203F210000203F20B2
:104F80000000808080800000001F202020201F0063
:104F9000808000808000000080FFA12020110E0092
:104FA0000000008080808000000E112020A0FF8083
:104FB000808080008080800020203F212000010030
:104FC0000000808080808000003324242424190085
:104FD000008080E0808000000000001F2020000092
:104FE0008080000000808000001F202020103F20D3
:104FF000808080000080808000010E300806010063
:1050000080800080008080800F300C030C300F0007
:1050100000808000808080000020312E0E31200032
:10502000808080000080808080818E701806010062
:1050300000808080808080000021302C2221300080
:1050400000000000807C020200000000003F4040A1
:1050500000000000FF00000000000000FF00000052
:105060000002027C800000000040403F0000000081
:10507000000601010202040400000000000000001C
:105080007E1111117E7F494949363E414141227FBF
:105090004141221C7F494949417F090909013E419B
:1050A00049497A7F0808087F00417F41002040413C
:1050B0003F017F081422417F404040407F020C02A4
:1050C0007F7F0408107F3E4141413E7F0909090668
:1050D0003E4151215E7F091929464649494931011E
:1050E000017F01013F4040403F1F2040201F3F40C3
:1050F00038403F631408146307087008076151497A
:1051000045433E4141413E00427F4000426151499A
:10511000462141454B311814127F1027454545392A
:105120003C4A494930017109050336494949360667
:105130004949291E6313086463147F147F146B1993
:105140001A1B1C010403000000FF0100010000FF06
:10515000FF0000010001FF00140032006400C800DD
:10516000F401E803B80B0000524157204441544178
:10517000000000005452454E44000000434C494D8D
:105180004154450044454255470000004C455645B2
:105190004C00000053595354454D000048495354A6
:1051A0004F525900C45100080000002000010000C7
:1051B0008C220008C452000800010020980F000053
:1051C0009C22000800000000000000000000000019
:1051D00000000000000000000000000000000000CF
:1051E00000000000000000000000000000000000BF
:1051F00000000000000000000000000000000000AF
:10520000000000000000000000000000000000009E
:10521000000000000000000000000000000000008E
:10522000000000000000000000000000000000007E
:10523000000000000000000000000000000000006E
:10524000000000000000000000000000000000005E
:10525000000000000000000000000000000000004E
:10526000000000000000000000000000000000003E
:10527000000000000000000000000000000000002E
:105280008C5100087C5100089C5100089451000882
:1052900068510008745100088451000800000000A3
:1052A00001020304010203040607080902040608B8
:1052B00000A24A04000000000000000001020304F4
:0452C00006070809CC
:04000005080000ED02
:00000001FF
