:020000040800F2
:10000000C01000200501000829150008ED0D0008AA
:10001000251500086F0200081121000800000000EB
:10002000000000000000000000000000FD1D0008AE
:10003000C10A000800000000591C0008A5200008A3
:100040001F0100081F0100081F0100081F01000810
:100050001F0100081F0100081F010008C50A000851
:100060001F0100081F0100081F0100081F010008F0
:100070001F0100081F0100081F0100081F010008E0
:100080001F0100081F0100081F0100081F010008D0
:100090001F0100081F0100081F0100081F010008C0
:1000A0001F0100081F0100081F0100081F010008B0
:1000B0001F0100081F0100081F0100081F010008A0
:1000C0001F0100081F0100081F0100081F01000890
:1000D0001F0100081F0100081F0100081F01000880
:1000E0001F0100081F0100081F010008DFF810D0E1
:1000F00000F08CF8004800478D3D0008AFF3008009
:10010000C01000200648804706480047FEE7FEE78B
:10011000FEE7FEE7FEE7FEE7FEE7FEE7FEE7FEE7B7
:10012000B1200008ED00000840EA01039B0703D05E
:1001300009E008C9121F08C0042AFAD203E011F826
:10014000013B00F8013B521EF9D27047D2B201E0E8
:1001500000F8012B491EFBD270470022F6E710B5CC
:1001600013460A4604461946FFF7F0FF204610BD25
:10017000421C10F8011B0029FBD1801A704730B5D2
:1001800004460020034600E05B1C934203D2E05C7F
:10019000CD5C401BF8D030BD034611F8012B00F8B0
:1001A000012B002AF9D1184670472DE9F05F05466A
:1001B000002092469B4688460646814640241BE026
:1001C000284641464746224600F041F853465A46E3
:1001D000C01A914110D311461846224600F028F863
:1001E0002D1A67EB01084F4622460120002100F03E
:1001F0001FF817EB00094E41201EA4F10104DFDCBB
:10020000484631462A464346BDE8F09F064C074D16
:1002100006E0E06840F0010394E8070098471034D6
:10022000AC42F6D3FFF766FFCC550008EC5500084A
:10023000202A04DB203A00FA02F1002070479140A6
:10024000C2F1200320FA03F3194390407047202A9B
:1002500004DB203A21FA02F00021704721FA02F370
:10026000D040C2F12002914008431946704700BFB8
:10027000FEE710B5044604B910BD00F02FF8204683
:1002800002F004FF00F020F800BFF5E708B50121F7
:10029000082001F0F3FC4FF48070ADF8000010204E
:1002A0008DF8030003208DF802004FF4807105489B
:1002B00000F09AFD6946034800F000FD00F004F8E4
:1002C00008BD0000000C014010B54FF480710248D9
:1002D00000F08AFD10BD0000000C014010B54FF485
:1002E0008071024800F07EFD10BD0000000C01404E
:1002F0000348007808B9012070470020FCE700009F
:100300006F00002008B501210C2001F0B7FC40F27D
:100310000340ADF8000048208DF8030002208DF85E
:1003200002006946254800F0C9FC002024490870F5
:100330002449087024490870244908702449087029
:1003400024490870244908802449088024490880E9
:1003500024490880244908802449087024490870E9
:10036000244908802449888048800880234988805F
:10037000488008804FF4E061214800F033FD4FF4DD
:10038000E060ADF8000018208DF8030069461C48B5
:1003900000F094FC03F08EFB08480830006800F081
:1003A000030018490870054808300068C0F3802031
:1003B000154908701549087008BD0000000C01407F
:1003C0006E0000206D0000206A00002069000020FF
:1003D00068000020700000207A00002078000020D3
:1003E0007600002074000020720000207C000020B5
:1003F0007D0000208A0000207E0000208400002074
:10040000000801406B0000206C0000206F000020FD
:1004100070B5034600224FF08040962B01DD9623F5
:1004200004E013F1960F01DA6FF09503962901DDD0
:10043000962104E011F1960F01DA6FF0950103FBAC
:1004400003F501FB015400E08008A042FCD809E05C
:100450001518A54204D81518641B00EB520200E0E1
:10046000520880080028F3D1962A01D9962500E089
:100470001546014E358070BD8A0000200149087084
:10048000704700006A00002000BFEFF310800146B3
:1004900072B6054802780020034B1870084680F3B6
:1004A000108800BF104670476900002000BFEFF3BE
:1004B0001080014672B6064890F900200020044BD7
:1004C0001870084680F3108800BF1046704700007F
:1004D0006800002070B54A48006800F003054948EC
:1004E000007885423FD0474800786840032803D110
:1004F0000020454908700BE04248007845EA80003A
:100500004249085C40490978084440B23E490870B5
:100510003C4805703C4890F9000004280EDB3C483C
:1005200090F90000142805DA39480078401C40B2E0
:100530003749087000203449087014E0324890F9B7
:10054000000010F1040F0EDC314890F9000010F1AA
:10055000140F05DD2E480078401E40B22C4908706B
:1005600000202949087026480068C0F380242948E3
:100570000078844205D0274804700020264908707E
:1005800008E025480078142804DA23480078401C45
:100590002149087020480078142815D11F48007898
:1005A000844211D01D4804702CB900201C490880D9
:1005B0001C49087008E01B48007828B91A480078E0
:1005C00040F001001849087014480078A0B9154897
:1005D000007888B912480088401C80B21049088011
:1005E000B0F5487F08DB1048007840F002000E4963
:1005F000087001200B49087003F0B0FA70BD0000CC
:10060000080C01406B0000207000002070550008AD
:10061000680000206C0000206D0000206F000020AA
:10062000720000206E00002069000020034800785E
:1006300008B1012070470020FCE700009600002070
:1006400070B503460C46154618785E7830449E789F
:100650003044DE783044C0B21E79B04201D001206F
:1006600070BD5878092804DCD87800F07F0009288C
:1006700001DD0220F4E758781E7806EB860600EBD1
:100680004602D87800F07F009E7806EB860600EBE5
:100690004601D87800F0800008B1484201B2B2F5B6
:1006A0007A7F05DC11F1C80F02DBB1F5167F01DDA1
:1006B0000220D5E721802A800020D1E7004870473A
:1006C0003C0900203EB5044614212548FFF745FDAE
:1006D0000020244908702449087024490870012129
:1006E000052001F0CBFA0221214800F07DFB4820D3
:1006F00002F0B4FB0121002000F0C0FA02200190BA
:1007000000208DF808000C208DF8090001208DF8DC
:100710000A0001A800F068FA1648006820F00200FC
:1007200014490860022000F045FA4FF4A06000F080
:1007300035FF07208DF8000001208DF80100002012
:100740008DF8020001208DF80300684600F0EEFEEF
:1007500004F5FA60084908600020014948723EBD6E
:100760003C09002096000020920000209300002009
:100770000008014000040140980000207CB50446B8
:100780005E48007860BB5E480068201A28D45D4847
:10079000006820F002005B49086000205A49087098
:1007A0005A4908705A480068C0F340005949C87255
:1007B00008468089401C8881142002F04FFB0221EA
:1007C0005348083800F00EFB04F114005249086049
:1007D00004F6C4104A4908600120484908707EE0C8
:1007E00046480078012828D14B480068201A24D4B4
:1007F0004A480021016001710020444908704849BD
:100800000870022000F0D6F901203F4908703D48E9
:10081000006840F002003B49086002213C4808386B
:1008200000F0E2FA482002F019FB04F10A003A490C
:10083000086002203149087051E0304800780228F1
:100840004DD13248007818B933480068201A46D490
:100850002C48006820F002002A49086000202A493C
:1008600008702F4800782B498872284800780128A2
:1008700000D100E000202749C874244800780128EE
:1008800016D100250AE02548405D0DF805001DF849
:10089000051020480E304155681CC5B2052DF2DB0D
:1008A0001C4A921C911E6846FFF7CAFE06460BE0E2
:1008B0001648007808B1042005E01648C07A08B14F
:1008C000032000E0052006461248467226B90120A2
:1008D00010490872084644600020084908700D4815
:1008E000007A48B10B484068201A41F27071884282
:1008F00002D90020074908727CBD00009600002044
:100900009800002000040140930000209200002085
:10091000080801403C0900209C0000208C000020B9
:100920009100002038B504462078072800DB38BD48
:1009300000F03EFE207890B1002034490870207805
:10094000022803D1607808B131A003E02078324951
:1009500051F8200002460121042001F051F92078CD
:1009600018B9204602F0F2FE24E02078012802D1D6
:1009700002F0FAF91EE02078022803D1204602F0A6
:1009800019FD17E02078032803D1204604F020F851
:1009900010E02078042803D1204603F051FE09E03E
:1009A0002078052803D1204604F0E6F802E020462E
:1009B00002F064FAE06930B3207838B900200823E7
:1009C0007F2201460090402000F008FFE069FFF719
:1009D000CFFB00EB4000042101EB4000C5B27C2DB1
:1009E00000DD7C250120C5F180010090C8B20823FC
:1009F0007F22002100F0F2FEC5F18201C8B2012180
:100A0000E26901F008F900BF91E70000DA00002078
:100A100042524F5753450000E00000200020054996
:100A200008700549087005490870054908600549BE
:100A300008707047CA000020C9000020C8000020CC
:100A4000CC000020DA0000202DE9F04704460F46D4
:100A5000904699461848007820B901201649087038
:100A60001648046015480068201A01D5BDE8F087D3
:100A700012480068201A6421B0FBF1F0461C0125E1
:100A800005E000221146104604F092F96D1CB542B3
:100A900001D2782DF5D34A464146384604F088F90C
:100AA00006EBC60000EB06100449096801EB800064
:100AB0000249086000BFD9E7CA000020CC0000202E
:100AC000704700002DE9F041022000F079F808B9E4
:100AD000BDE8F081022000F06DF83048007800B9E0
:100AE000F6E702F0C9FA06462D490988701A85B260
:100AF0002B490E802B48007818B90120294908702D
:100B0000E6E72848007801280ED1782D01DBD22DA8
:100B100006DD00202149087002202349087002E008
:100B2000022020490870D3E7372D01DB962D06DD22
:100B300000201A49087002201B490870C8E71948AC
:100B40000078801EC4B22146E21704EB5272D21024
:100B5000164B9A5C642D01DB012300E0002343EA7D
:100B600042022046E31704EB5373DB100F4FFA5495
:100B70000C480078401CC0B20A4908702A280BD1E2
:100B800000200649087001200749087008480068DD
:100B900020F002000649086000BF99E7930000209A
:100BA0009400002091000020920000208C00002082
:100BB000000401400149086070470000140401402E
:100BC000014600200022074B1B6803EA0102054B87
:100BD00014331B680B4013B10AB1012000E0002060
:100BE0007047000000040140002123498279002A57
:100BF0003AD00A46126803689A430B461A600A1DE7
:100C0000126803689A430B1D1A60027911440A683E
:100C100003681A430A60184A0832126803689A4344
:100C2000154B08331A601A1D126803689A43124B59
:100C30000C331A604279102A0ED11A1F1268036809
:100C40001A430D4B08331A601A1D126803681A43C1
:100C5000094B0C331A600DE00749427911440A68C8
:100C600003681A430A6005E0027911440A680368C0
:100C70009A430A60704700000004014030B500222A
:100C80008B071C0F0F2303FA04F20B4B8C1053F845
:100C900024309343084C8D1044F8253023468C10A3
:100CA00053F824308C07240F00FA04F42343024C39
:100CB0008D1044F8253030BD080001402DE9F04189
:100CC000024600250026002000230024002791F87A
:100CD00003C00CF00F0591F803C00CF0100CBCF130
:100CE000000F03D091F802C04CEA050591F800C04E
:100CF000BCF1000F31D0146800202BE04FF0010C44
:100D00000CFA00F3B1F800C00CEA03069E4220D1B1
:100D100083004FF00F0C0CFA03F7BC4305FA03FCF9
:100D20004CEA040491F803C0BCF1280F06D14FF03F
:100D3000010C0CFA00FCC2F814C00AE091F803C0E0
:100D4000BCF1480F05D14FF0010C0CFA00FCC2F8C1
:100D500010C0401C0828D1D31460B1F800C0BCF109
:100D6000FF0F34DD546800202EE000F1080C4FF036
:100D7000010808FA0CF3B1F800C00CEA03069E4221
:100D800021D183004FF00F0C0CFA03F7BC4305FA96
:100D900003FC4CEA040491F803C0BCF1280F05D110
:100DA00000F1080C08FA0CF8C2F8148091F803C09E
:100DB000BCF1480F07D100F1080C4FF0010808FA08
:100DC0000CF8C2F81080401C0828CED35460BDE84F
:100DD000F0810246002093680B400BB1012000E037
:100DE00000207047416170470161704700BFFEE716
:100DF00008B50121102000F041FF4FF40050ADF87C
:100E0000000010208DF8030003208DF802006946D1
:100E10000248FFF753FF00F003F808BD001001403F
:100E200010B54FF400510248FFF7DEFF10BD00007F
:100E30000010014010B54FF400510248FFF7D2FFF7
:100E400010BD0000001001400148008870470000FC
:100E5000B600002070B504460D46204602F09EFA0A
:100E60001E49884213D1E07FA52810D104F1180053
:100E700002F094FA06461821204601F0CFFF864280
:100E800005D104F1140002F089FA032801D90120E8
:100E900070BD201D02F082FA286004F1080002F003
:100EA0007DFA686004F10C0002F072FA00B2288149
:100EB00004F10E0002F06CFAE88104F1100002F077
:100EC00067FA00B2688104F1120002F061FA00B220
:100ED000A881207D28740020DAE700004C4F4731BC
:100EE00010B50446002015490870154908701549C9
:100EF000087015490880154908801549088015496A
:100F0000086020211448FFF728F901F04DF920B9B5
:100F100001F01AF9B0F5803F00D210BD01F014F9CC
:100F2000A0F580300D49086001200449087004F5DF
:100F3000FA600B49086000BFEFE70000AC0000203A
:100F4000AE000020AD000020B4000020B60000205C
:100F5000B0000020BC00002070090020C00000206C
:100F6000C40000200148006870470000BC00002059
:100F700070B588B004460D460D48007884420EDAFC
:100F80000C48007801280AD00B4931F8140001F010
:100F9000ABFC06462022694601F0D4F910B10120CD
:100FA00008B070BD29466846FFF754FFF8E7000017
:100FB000AE000020AC00002090090020014800781D
:100FC00070470000AE00002010B504461A480078B3
:100FD000022803D1207C00F0030008B9012010BDD5
:100FE000142221461548FFF79FF815480068401C59
:100FF000124908601349098811B91149096849B1B2
:1010000011490988481CC11700EB5151C912A0EBC6
:10101000C12100E000210D4A118000200C49088008
:1010200001200C490870032003490870034802F0AE
:10103000A7F80020D3E70000AC000020500A0020F1
:10104000BC000020B6000020B4000020B200002048
:10105000B8000020AD000020014800787047000073
:10106000AC00002070B58EB00446C8480078012856
:1010700005D0C6480078032801D00EB070BD01F03D
:1010800049F80546022D03D10420C0490870F4E751
:10109000BE480078012863D13DB1BD480068201AE0
:1010A00002D40420B9490870E7E7BA48008801F083
:1010B0001BFC0646202206A901F044F918B10420C1
:1010C000B2490870D9E706A801F038FCD8BB06A8D9
:1010D00002F064F9B049884203D00520AB4908709A
:1010E000CBE701A906A8FFF7B5FE60BBAB480088B7
:1010F00028B1AB4901980968401A002806DDA849C3
:1011000001980860A3480088A6490880A348008881
:10111000401CA24908809F490888C11700EB516113
:10112000C911A14A32F81110491C9A4A1088C217F5
:1011300000EB5262D2119C4B23F8121095480088A4
:10114000019901F091FB93480088401C80B29149BD
:101150000880B0F5006F02D102208C4908708CE73E
:1011600092480078012808D03DB189480068201ACB
:1011700002D40420854908707FE78C480078012854
:101180005ED105B179E78A490888C11700EB516142
:10119000C911A0EBC11199B98548008801F0A4FBE1
:1011A000064600F0D7FF18B104207849087064E7BC
:1011B00002207E49087004F2DC50754908605CE743
:1011C0007B48008801F090FB0646202206A901F02A
:1011D000B9F818B104206D4908704EE706A801F06F
:1011E000ADFBB8B972490988481CC11700EB5151D1
:1011F000C912A0EBC1216E4A11806E480088401CC4
:1012000080B26C490880B0F5006F02DB04205F49B2
:10121000087032E76648008801F066FB06461F2228
:10122000654901F051F818B104205849087024E7C5
:1012300003205E49087004F1320055490860A3E0BC
:101240005A480078022830D15948008801F04CFBF8
:101250000646202206A901F075F818B906A801F083
:101260006DFB18B904204949087006E750490E88FB
:10127000F11706EB5161C1F3C71001F033FF4C4881
:10128000008801F031FB06461F224B4901F01CF893
:1012900018B104203D490870EFE603204349087067
:1012A00004F132003A4908606EE0404800780328B3
:1012B0002ED13F48008801F017FB0646202206A9E0
:1012C00001F040F828B91F223B4906A8FEF757FF56
:1012D00018B104202D490870CFE6A5208DF818001C
:1012E0003348008801F000FB00F11F06012206A927
:1012F000304600F0E9FF18B1042024490870BCE62C
:1013000004202A49087004F13200214908603BE0BA
:101310002748008801F0E8FA0646202206A901F0D5
:1013200011F820B901A906A8FFF794FD18B104200F
:1013300016490870A1E61E4800881A4908801F480F
:1013400000681749086015480088401C1349088048
:1013500017490888C11700EB5161C911124A32F8C8
:101360001110491C124A1088C21700EB5262D211A8
:101370000D4B23F81210114801680D48008801F048
:1013800073FA02200149087000BF76E6AC00002025
:10139000C4000020B00000204C4F4731B6000020B0
:1013A000BC000020B400002070090020AD00002027
:1013B000B2000020B800002050090020500A002090
:1013C00038B580226B21682000F05EFE08B1012054
:1013D00038BD642001F05AFE01226B21682000F024
:1013E00053FE08B10120F3E70A2001F04FFE04226A
:1013F0001921682000F048FE08B10120E8E7032227
:101400001A21682000F040FE08B10120E0E7002228
:101410001B21682000F038FE08B10120D8E7002227
:101420001C21682000F030FE08B10120D0E70A201E
:1014300001F02CFE00F068F8682801D00120C7E711
:10144000002410E00A48015D6A46682000F0B2FD01
:1014500028B90848005D9DF80010884201D001209D
:10146000B6E7601CC4B2052CECDB0020B0E700003E
:10147000665500086B5500087FB504460D461646B4
:101480000E236A463B21682000F09FFD10B1012029
:1014900004B070BD9DF801009DF8001040EA0120E5
:1014A00000B220809DF803009DF8021040EA012060
:1014B00000B260809DF805009DF8041040EA01200C
:1014C00000B2A0809DF807009DF8061040EA0120B8
:1014D00000B230809DF809009DF8081040EA012014
:1014E00000B228809DF80B009DF80A1040EA012008
:1014F00000B268809DF80D009DF80C1040EA0120B4
:1015000000B2A8800020C3E708B5002000906A461A
:101510007521682000F04EFD08B1FF2008BD9DF840
:101520000000FBE700BFFEE77047000070B5002138
:1015300000230F22C47804B3154C246804F4E0643B
:10154000C4F5E064210AC1F10403CA40447804FAF6
:1015500003F184781440214309010E4C0678A1550B
:10156000047804F01F050124AC4005786D11AD002E
:1015700005F1E025C5F8004109E0047804F01F05F5
:101580000124AC40044D0678761145F8264070BD24
:101590000CED00E000E400E080E100E002490143DE
:1015A000024A1160704700000000FA050CED00E0EF
:1015B00000200CE0002106E00022064B03EBC013E4
:1015C0005A544A1CD1B28029F6DB421CD0B20828FA
:1015D000F0DB70473C0100202DE9F04706460F463E
:1015E00090469A46002445464FEA4800C0F1030958
:1015F0004AE07A19D1B23219D0B2524600F0C6F898
:101600007A19D1B2321BD0B2524600F0BFF87A1B21
:10161000D1B23219D0B2524600F0B8F87A1BD1B22A
:10162000321BD0B2524600F0B1F83A19D1B2721959
:10163000D0B2524600F0AAF83A19D1B2721BD0B219
:10164000524600F0A3F83A1BD1B27219D0B25246FA
:1016500000F09CF83A1BD1B2721BD0B2524600F097
:1016600095F8B9F1000F05DAA000801D48440FFA83
:1016700080F907E0601B80000A3048440FFA80F9C7
:10168000681E05B2601C04B2AC42B2DDBDE8F08752
:101690002DE9F043074688461446994665421BE00B
:1016A000664215E006FB06F105FB051104EBD4725A
:1016B000521012B204FB0422914207DC08EB05022F
:1016C000D1B2BA19D0B24A4600F060F8701C06B226
:1016D000A642E7DD681C05B2A542E1DDBDE8F08366
:1016E0002DE9FF4F04460D4616461F46A046AA4662
:1016F000A64201DD301B00E0A01B8346AF4201DDA6
:10170000781B00E0E81B0390B44201DA012001E0FD
:101710004FF0FF300290BD4201DA012001E04FF0AE
:10172000FF3001900398ABEB00000FFA80F928E03E
:101730000AF0FF0108F0FF000D9A00F027F8B0450D
:1017400002D1BA4500D11DE04FEA490000B2009035
:10175000039949420098884208DD0398A9EB0000EC
:101760000FFA80F9029840440FFA80F80098584523
:1017700007DA09EB0B000FFA80F9019850440FFAD1
:1017800080FAD5E700BFBDE8FF8F000070B50B46BB
:1017900014467F2801DC3F2B00DD70BDD91003F01B
:1017A000070264B10C4D05EBC1152D5C0126964076
:1017B000F6B23543084E06EBC11635540AE0064D25
:1017C00005EBC1152E5C01259540AE43024D05EB9E
:1017D000C1152E5400BFE0E73C0100202DE9F04781
:1017E00006460F4690469946DDF820A034460CE0A8
:1017F0003D4606E0E9B2E0B25246FFF7C7FF681C7B
:1018000085B24D45F6DD601C84B24445F0DDBDE88F
:10181000F087000010B5CF201649087016490870EF
:1018200000201649086016490870164908701649C4
:10183000087016490870164908701649087016494C
:10184000087000240EE01548025D04EB4400144BC0
:10185000C1183C2000F0F5FB10B102F091FE03E04E
:10186000601CC4B2102CEED300BFFFF7A1FE00F045
:1018700019F810BD55000020540000205800002029
:101880005C0000205F0000205E0000205D00002062
:1018900062000020610000206000002098540008D1
:1018A0006854000810B500F0C1F901E000F00CF830
:1018B00000F004F80028F9D110BD000001480078BC
:1018C000704700005D000020F0B58BB042A103C955
:1018D000CDE909014248007808B90BB0F0BD69E0D4
:1018E00040490878C11700EB91718D103D49087887
:1018F000C11700EB91718910A0EB810149070E0E11
:101900003948007808B9012000E00020074600248B
:101910000EE0364800EBC5103119405C344901EB4C
:10192000C5113219895C884200D00127601CC4B2FD
:10193000202CEEDB2B480078401C2A49087007B9A0
:1019400038E08DF8266006F11F00C0B28DF8270040
:101950008DF82A508DF8295040208DF80000002481
:1019600008E0234800EBC5103119415C601C0DF8FC
:101970000010C4B2202CF4DB072209A93C2000F09F
:1019800060FB28B9212269463C2000F05AFB10B1C7
:1019900002F0F6FDA1E7002409E0601C1DF800003C
:1019A000124901EBC51132198854601CC4B2202CB5
:1019B000F3DB03E00B480078202891DB00BF0948E7
:1019C0000078202805D1002005490870012006492B
:1019D000087000BF81E70000002100002200000025
:1019E0005D0000205E0000205F0000203C0500201C
:1019F0003C01002038B5044647A0006800904748E5
:101A00000078002841D04648007838B904F5FA70CB
:101A10004449086001204249087038BD41480068C7
:101A2000201A00D5F9E74048404B1B78C25C3F487C
:101A3000007800EB40003E4BC1183C2000F001FB59
:101A400048B100203949087004F5FA70354908603A
:101A500000F04AFAE1E73348046034480078401C5B
:101A6000C0B23249087010280ED100202C490870ED
:101A70002A490870CF202F49087000202E4908708D
:101A80002E49087000F0D2F8C7E72D48007860B9F9
:101A9000284800782B490978884206D026480078E3
:101AA00020B129480068201A00D5B6E725480078FB
:101AB00020490978884202DD224800780DE01D485F
:101AC000007820490978401A082803DD1948007871
:101AD000083801E01B480078C0B205468DF8025076
:101AE000032269463C2000F0ACFA48B102F048FD00
:101AF00004F5FA700B4908600120094908708CE769
:101B00000C48057004F128000F49086001200A49BB
:101B1000087000BF81E70000008100006000002025
:101B2000620000206400002098540008610000203A
:101B300068540008540000205C0000205F00002072
:101B40005D000020550000205800002008B1282228
:101B500000E0CF221146054A1278914204D0034A90
:101B600011700022024B1A707047000055000020CF
:101B70005C0000202DE9F05F06468846174636E0F7
:101B800000242EE03878214602F076FE83460025B8
:101B900023E04FF000091BE04FF0000A11E04BFA80
:101BA00005F303F0010208EB45035344D9B206EBF9
:101BB00044034B44D8B2FFF7E9FD0AF1010000F0FD
:101BC000FF0ABAF1020FEADB09F1010000F0FF0998
:101BD000B9F1020FE0DB681CC5B2072DD9DB601C30
:101BE000C4B2062CCEDB06F10C00C6B27F1C3878DE
:101BF00020B1742E02DCB8F1320FC1DDBDE8F09FD8
:101C000070B504460D461646002332462946204646
:101C100002F084FE70BD70B504460D4616460123E1
:101C200032462946204602F079FE70BD074800780A
:101C300010B90748007800B17047002005490870C6
:101C400001200249087000BFF6E700005D00002097
:101C5000600000205E0000207047000029B1064AA5
:101C6000D2690243044BDA6104E0034AD269824339
:101C7000014BDA61704700000010024029B1064AAA
:101C800092690243044B9A6104E0034A92698243D9
:101C9000014B9A61704700000010024029B1064ACA
:101CA000D2680243044BDA6004E0034AD2688243FC
:101CB000014BDA60704700000010024030B500218F
:101CC0000022002400232D4D6D6805F00C0121B188
:101CD000042905D0082923D105E0294D056022E01B
:101CE000274D05601FE0254D6D6805F47012234DEA
:101CF0006D6805F48034022505EB92421CB9214D34
:101D0000554305600BE01D4D6D6805F400351DB1B0
:101D10001C4D5543056002E0194D5543056002E036
:101D2000174D056000BF00BF144D6D6805F0F00150
:101D30000909154D6B5C0568DD4045600F4D6D6808
:101D400005F4E061090A104D6B5C4568DD40856073
:101D50000A4D6D6805F46051C90A0B4D6B5C45680E
:101D6000DD40C560054D6D6805F44041890B074DA8
:101D70006B5CC568B5FBF3F5056130BD0010024032
:101D800000127A0000093D00FC0000200C01002038
:101D900021B1028842F04002028004E002884FF63E
:101DA000BF731A400280704710B50022028802F407
:101DB00041520B884C8823438C882343CC8823438F
:101DC0000C8923434C8923438C892343CC892343A7
:101DD0001A430280838B4FF2FF74234083830B8A64
:101DE000038210BD0021018041808180C18001817A
:101DF00041818181C181072101827047704710B5FF
:101E000000F002F810BD00000CB500200190009019
:101E10003348006840F480303149086000BF3048E2
:101E2000006800F4003000900198401C0190009878
:101E300018B90198B0F5A06FF1D12948006800F4F5
:101E4000003010B10120009001E0002000900098C7
:101E5000012843D12348006840F010002149086060
:101E60000846006820F0030008600846006840F05B
:101E7000020008601A4840681949486008464068EE
:101E800048600846406840F4806048600846406802
:101E900020F47C1048600846406840F4E810486030
:101EA0000846006840F08070086000BF0C48006879
:101EB00000F000700028F9D00948406820F00300C5
:101EC000074948600846406840F00200486000BF8B
:101ED0000348406800F00C000828F9D10CBD000050
:101EE000001002400020024010B580211948FEF782
:101EF0007BFF40211748FEF777FF01F03BFB802175
:101F00001448FEF766FF88B900240DE0402111480F
:101F1000FEF768FF01F02EFB40210E48FEF764FF3C
:101F200001F028FB601CC4B2092CEFDB80210948BA
:101F3000FEF758FF01F01EFB40210648FEF754FF54
:101F400001F018FB80210348FEF74EFF01F012FB61
:101F500010BD0000000C014008B501210820FFF76A
:101F60008DFEC020ADF8000014208DF80300032082
:101F70008DF8020069460648FEF7A0FE402104489D
:101F8000FEF732FF80210248FEF72EFF08BD000059
:101F9000000C014070B5044601F07EFB6106080E9E
:101FA00001F036FB054601F093FB0DB9012070BD31
:101FB0000020FCE770B504460D4616460123324664
:101FC0002946204600F001F870BD2DE9F041054694
:101FD0000F4690461E4601F05FFB6906080E01F0B1
:101FE00017FB20B101F074FB0120BDE8F0813846F9
:101FF00001F00EFB18B101F06BFB0120F5E701F0D9
:102000004BFB012101EB4501C8B201F001FB18B106
:1020100001F05EFB0120E8E700240CE0711EA14204
:1020200001DD012100E00021084601F0AFFA08F8C7
:102030000400601C84B2B442F0DB01F049FB0020D4
:10204000D3E72DE9F04105460E46174601F024FB83
:102050006906080E01F0DCFA20B101F039FB01201D
:10206000BDE8F081002409E0305D01F0D1FA18B13B
:1020700001F02EFB0120F3E7601C84B2BC42F3DBCD
:1020800001F026FB0020EBE7F8B506460C461546A6
:102090008DF800408DF80150022269463046FFF766
:1020A000D0FFF8BD10B500F0FDFFFEF713FA10BD2C
:1020B00010B51348006840F0010011490860084657
:1020C0004068104908400E494860084600680E49BB
:1020D00008400B4908600846006820F4802008602A
:1020E0000846406820F4FE0048604FF41F008860F6
:1020F000FFF785FE4FF000600449086010BD000046
:10210000001002400000FFF8FFFFF6FE08ED00E0BF
:1021100000BFFEE710B50A48006810B10948007812
:1021200008B1022010BD02F043FC044605480078C7
:1021300008B9FF2C01D10220F4E704F00100F1E717
:10214000A4000020A800002001480068704700009B
:10215000A400002010B504460E48006848B10D48A0
:102160000068844205D2C4F30B0010B902F066FE89
:1021700008B1012010BD012002F06EFB202002F00A
:10218000C1FC204600F0B8FB002002F065FB0248CD
:102190000078EFE7A4000020A800002001480068B4
:1021A00070470000A000002070B586B000204149B3
:1021B00008604149086041490870012141F204006A
:1021C000FFF75CFD10213E48FEF70EFE1020ADF833
:1021D00014008DF8170003208DF8160005A9384863
:1021E000FEF76CFDA020ADF8140018208DF8170044
:1021F00005A93348FEF762FD4020ADF81400042025
:102200008DF8170005A92E48FEF758FD6846FFF720
:10221000E9FD4FF48270ADF802004FF40070ADF8A4
:102220000A001820ADF80C0069462648FFF7BCFDEF
:1022300001212448FFF7ACFD012002F00DFBAB208B
:1022400002F060FC002002F007FB0A2000F032FFE1
:10225000012002F001FB9F2002F054FCFF2002F05D
:1022600051FC0646FF2002F04DFC0546FF2002F01F
:1022700049FC0446002002F0EFFA300440EA052051
:1022800020430C4908600D48007848B9EF2E07D16B
:10229000402D01D0702D03D1122C01DB182C02DD52
:1022A000012006B070BD0120A04003490860002055
:1022B000F7E70000A0000020A4000020A8000020F4
:1022C00000080140003001402DE9F04105460F466D
:1022D00014461A48006888B184B1B4F5807F0DDCDB
:1022E000E8B22044B0F5807F08D8144800688542E1
:1022F00004D212480068401BA04202D20120BDE86F
:10230000F08102F09BFD08B10120F8E7012002F006
:10231000A3FA022002F0F6FB284600F0EDFA0026B0
:1023200004E0B85D02F0EEFB701C86B2A642F8DB5A
:10233000002002F091FA02480078E0E7A4000020B3
:10234000A80000202DE9F04106460F461446164825
:10235000006860B15CB114480068864207D2124838
:102360000068801BA04202D3FFF7D4FE10B1012009
:10237000BDE8F081012002F06FFA032002F0C2FBF9
:10238000304600F0B9FA002505E0FF2002F0BAFB64
:102390007855681C85B2A542F7DB002002F05CFA94
:1023A00002480078E4E70000A4000020A800002014
:1023B0000FB4084B10B504A902AA039800F01CF84A
:1023C000044602A9002000F042FA204610BC5DF845
:1023D00014FB00004F28000802E008C8121F08C1C3
:1023E000002AFAD170477047002001E001C1121F96
:1023F000002AFBD1704700002DE9FF4F8DB00F463A
:102400000546002606E025280BD0DDE90F1290478F
:102410006D1C761C28780028F5D111B03046BDE837
:10242000F08F0024A246A1460122E94900E00443BE
:1024300015F8013F203B02FA03F00842F7D1287853
:102440002A2810D06FF02F022878A0F13001092936
:1024500014D80AEB8A0102EB410144F0020400EBBC
:10246000010A6D1CF0E701CF5FEA000A03D544F4CE
:102470000054CAF1000A44F002046D1C28782E288A
:1024800017D115F8010F44F004042A280ED06FF07C
:102490002F022878A0F1300109290AD809EB890117
:1024A00002EB410100EB01096D1CF2E757F8049BB8
:1024B0006D1C28786C280FD006DC4C2817D06828B3
:1024C0000DD06A2814D104E0742810D07A280FD1D6
:1024D0000DE044F400140AE044F4801401E044F4F4
:1024E00040146978814202D104F580146D1C6D1C82
:1024F00028786E281ED00CDC632830D004DC00283D
:102500008BD0582811D19FE0642867D069280CD15E
:1025100064E073282DD004DC6F2872D0702804D1B9
:1025200094E075286ED078286DD0DDE90F129047C1
:10253000761C4BE1C4F30250022806D0032809D0D0
:10254000042801CF09D0066040E101CFF117C0E9AE
:1025500000613BE101CF068038E1067036E117F8F3
:10256000040B8DF8000000208DF80100EB460120DF
:1025700003E057F804BB4FF0FF3061074FF0000154
:1025800002D40DE008F10101884649450FDA804583
:10259000F8DB1BF808100029F4D108E008F101016C
:1025A00088468142FADB1BF808100029F6D1DDE9E4
:1025B0000F23AAEB08008146214600F031F9304490
:1025C00000EB080604E0DDE90F121BF8010B904751
:1025D000B8F10108F7D221464846F2E00A21C4F3D7
:1025E00002524FF0000B0891022A04D001CFC1170C
:1025F000032A09D00AE0FF1D27F00707F7E80201C8
:1026000008E02CE01EE01FE000B2C117042A01D14F
:1026100040B2C117021E71F1000206DA0023D0EBAE
:10262000030063EB01012D2202E0220504D52B22D9
:102630008DF82420012203E0E20701D02022F7E7F1
:10264000904653E00A210BE0102109E010214FF0E1
:10265000000B44F004044FF00809089103E008213E
:102660004FF0000B0891C4F30252022A04D001CFAC
:102670000021032A06D006E0FF1D27F00707F7E830
:10268000020103E080B2042A00D1C0B24FF000087A
:1026900022072BD52A78702A07D0DDF820C08CF0CD
:1026A000100C5CEA0B0C05D00EE040228DF82420C3
:1026B000012208E050EA010306D030238DF82430CF
:1026C0008DF8252002229046089B83F0080353EAE8
:1026D0000B030BD150EA010201D1620706D530226B
:1026E0008DF824204FF00108A9F101092A78582A11
:1026F00004D038A20B9208AA0A920BE03AA2F9E79A
:102700005B46089AFDF751FD0B9B9B5C0A9A521E93
:102710000A92137050EA0102F2D10A98ADEB000060
:1027200000F1200B600702D524F4803401E04FF063
:102730000109D94502DDA9EB0B0000E0002000EB08
:102740000B0141440890AAEB010AE00306D4DDE93D
:102750000F232146504600F063F806444FF000096D
:1027600008E009A911F80900DDE90F12904709F105
:102770000109761CC145F4DBE0030CD5DDE90F232C
:102780002146504600F04CF8064404E0DDE90F1203
:1027900030209047761C0899481E08900029F5DCE7
:1027A00008E00A980A990078491C0A91DDE90F129D
:1027B0009047761CBBF10001ABF1010BF1DC214627
:1027C0005046DDE90F2300F019F806446D1C21E6A0
:1027D00009280100303132333435363738396162F7
:1027E00063646566000000003031323334353637BB
:1027F0003839414243444546000000002DE9F0418C
:10280000044600251E461746880404D405E03946D0
:102810002020B0476D1C641EF9D52846BDE8F08124
:102820002DE9F041044600251E469046C80301D517
:10283000302700E02027880404D505E041463846CB
:10284000B0476D1C641EF9D52846BDE8F0810A68C2
:10285000531C0B60107070470146002901DA484292
:1028600070470846FCE7000030B503460A460020E2
:1028700001E0441CE0B2194C2478A04205DA184C5F
:1028800054F82040141B002CF3DD202800D130BD6B
:10289000124C2478202C04DA104C2478641C0F4D40
:1028A0002C700E4C2478641EE1B20DE04C1E0C4DD1
:1028B00055F8244045F821404C1E0A4D35F8144087
:1028C00025F811404C1EE1B28142EFDC044C44F883
:1028D0002020044C24F8103000BFD8E7AE000020C0
:1028E000D00900209009002001460248006800EB52
:1028F00041107047C000002010B50446C4F30740E3
:1029000002F000F9C4F3072002F0FCF8E0B202F094
:10291000F9F810BD70B505460C4604B970BDFDF759
:10292000DDFC01200349087028190349086000BF35
:10293000F4E70000100000201C00002002460021E7
:1029400006E0505CFF2801D000207047481CC1B24F
:102950002029F6DB0120F8E72DE9F04105460C4679
:102960001646204604EBD071C1F34F07BD4201DA91
:10297000284600E0601B1FFA80F83946404600F008
:10298000F2FBA6F10E01090248434FF4606101EB2E
:10299000902080B2BDE8F0810146002906DB01F1FC
:1029A0008003D81703EB1060001206E0C1F180022B
:1029B000D01702EB10600012404240B27047000096
:1029C0002DE9F04706460D469046994640F6B83048
:1029D000864201DD064603E01748864200DA0646D5
:1029E00040F6B830854201DD054603E012488542D5
:1029F00000DA054606FB06F005FB0507384601F040
:102A0000A5FE044604FB04F0B84200D2641C962CD8
:102A100000D2962405EB8500800290FBF4F0C8F804
:102A20000000704200EB8000800290FBF4F0C9F8D7
:102A30000000BDE8F087000048F4FFFF7CB50546C4
:102A40006B4601AAD5E90201FFF7BAFF30480078CA
:102A500098B93049019808602F4900980860012012
:102A60002B4908700198FFF797FF2C4908700098D0
:102A7000FFF792FF2A49087046E02A49A86B0968C7
:102A8000441A642C00D96424224901980968401A28
:102A9000604304F12D0190FBF1F01E4909680844E0
:102AA0001C4908601C4900980968401A604304F1F9
:102AB0002D0190FBF1F01849096808441649086097
:102AC000164890F9000013490968A1EB0026A02ED2
:102AD00002DC16F1A00F05DA0E480068FFF75CFF74
:102AE0000E4908700E4890F900000B490968A1EBE7
:102AF0000026A02E02DC16F1A00F05DA06480068B9
:102B0000FFF74AFF064908700649A86B08607CBDBC
:102B1000DA000020D0000020D4000020D8000020DF
:102B2000D9000020DC000020014601220F4B1A7062
:102B300000220F4B1A700F4B1A700F4B1A700F4A6E
:102B4000116000200EE000220D4B43F8202047F6D4
:102B5000FF720C4B23F81020521C0B4B23F8102053
:102B6000421CD0B20328EEDB70470000200000209A
:102B70002400002023000020220000203400002038
:102B800030010020260000202C0000202DE9F0411B
:102B900006460D4617465748007828B15648016842
:102BA000304600F0DBFA08B9BDE8F08106F10A0012
:102BB0005149086051480078401C504908705FB383
:102BC0004F480078401C4E490870002422E04D48D0
:102BD00050F8240035F9141008444A4941F82400FB
:102BE00035F91400484931F91410884204DA35F8EF
:102BF0001400454921F8140035F91400434931F90E
:102C00001410884204DD35F81400404921F81400FE
:102C1000601CC4B2032CDADB38480078642800DA80
:102C2000C2E7374800785A2801DB012000E0002085
:102C30008046B8F1000F1CD000240DE0334830F975
:102C40001400314931F91410401AB0F5966F01DDC6
:102C50004FF00008601CC4B2032CEFDB29488068E9
:102C60002749097890FBF1F0B0F5FA5F01DA4FF0EF
:102C7000000800201F490870B8F1000F30D021482B
:102C800000681F49097890FBF1F0214908601D4850
:102C900040681B49097890FBF1F01E49086019480B
:102CA00080681749097890FBF1F01B4908600024FF
:102CB0000CE0144850F824001149097890FBF1F019
:102CC0000002164941F82400601CC4B2032CF0DB5A
:102CD0000120134908701349087000F071FE06E0E6
:102CE00001201149087006F57A701049086000BF8C
:102CF0005AE70000200000203400002023000020BC
:102D00002400002030010020260000202C0000209C
:102D10000000002004000020080000202401002002
:102D2000210000200C00002022000020380000209C
:102D30002DE9F04105460C462046FDF719FA00EB57
:102D400040004006060E802E05DAC6F1800707EB2C
:102D5000D771491000E00021C8B222462946FEF78B
:102D60004FFFBDE8F08100001FB5FDF7A7FC04464A
:102D700020A211210620FEF743FF20A211214A20A4
:102D8000FEF73EFF207A98B1B4F90010684600F0D3
:102D9000B5FC6A461F210320FEF7ECFE61886846F9
:102DA00000F0ACFC6A461F214420FEF7E3FE09E078
:102DB00014A21F210F20FEF7DDFE12A21F215320B7
:102DC000FEF7D8FE10A234210820FEF719FF0FA24B
:102DD00034214C20FEF714FF607A48B1207A08B104
:102DE0000BA000E00BA0024601216220FEF708FFC5
:102DF0001FBD000054454D500000000048554D498E
:102E0000440000002D2D0000430000002552480022
:102E10004F4C4400574149540000000030B5034670
:102E20000C464FF0FF31002211E0985C4140002534
:102E300009E001F0010008B1074800E0002080EA45
:102E40005101681CC5B2082DF3DB501CC2B2A2426E
:102E5000EBDBC84330BD00002083B8ED38B5044635
:102E60000220ADF800008DF803408DF8020069469D
:102E70000148FDF723FF38BD0008014070B58EB052
:102E80000546FDF71BFC0446E07C60B1A07C617C3C
:102E9000227CCDE900210290E37BA27B2AA104A839
:102EA000FFF786FA03E02FA104A8FFF781FA04AA2E
:102EB0000E210420FEF7A4FEA0894FF47A7190FB46
:102EC000F1F201FB1206E07ACDE90006A37A627AFC
:102ED00029A104A8FFF76CFA04AA17210420FEF721
:102EE0008FFE2A48008800902848001F0388001F92
:102EF000028827A104A8FFF75BFA04AA2021042076
:102F0000FEF77EFEFDF7F4F90646688E298ECDE9C0
:102F100000102348006800F00302334621A104A8F2
:102F2000FFF746FA04AA29210420FEF769FE22A130
:102F300004A86A6BFFF73CFA04AA35210420FEF7C7
:102F40005FFE0EB070BD0000443A25303258202597
:102F50003032582025303258202530325820253044
:102F600032580000443A4E4F20434F4D504C455488
:102F700045204652414D4500452575204E2575207A
:102F80005025752054525925750000003C2C0140F5
:102F900052253475204725347520422534750000AC
:102FA000080C014041422575204B2575205325759D
:102FB00020462575000000004D50552045525220F6
:102FC000256C750070B586B001A8FEF777FE039CEE
:102FD000DDE90210884200D0640001210846FEF7B6
:102FE0003DFE00204FF0804108801E48B4FBF0F009
:102FF000401E08854FF6FF708885012088820020DA
:10300000088288840120088000201749086017483A
:1030100000684FF47A72B0FBF2F1B1F1807F00D317
:103020001DE021F07F40401E4FF0E022506150171C
:103030000F22002807DA13071E0E0D4B00F00F05B4
:103040002D1F5E5503E013071D0E0A4B1D5400BFD4
:1030500000204FF0E02290610720106100BF06B011
:1030600070BD000040420F00500000201001002001
:1030700018ED00E000E400E04FF08040808C7047E5
:1030800001480068704700005000002000B501466C
:10309000FFF7F6FF024600BFFFF7F2FF801A8842F3
:1030A000FAD300BD02480068401C0149086070471F
:1030B0005000002013E04EF66023984200D900E053
:1030C000034699B24FF080439A8C00BF4FF0804383
:1030D0009B8C9B1A9BB28B42F8DB401A00BF0028E6
:1030E000E9D1704710B501460022174B33F8113073
:1030F000164C2488E31A154C23800023124C24F824
:103100001130002018E0124C34F81030DC1703EBBB
:103110005464B1EBE41F0DD00D4B33F810300C4C60
:1031200024F812300B4B53F820300A4C44F822306C
:10313000531CDAB2431CD8B2074B1B789842E2DB2F
:10314000054B1A7010BD000070090020B600002069
:1031500090090020D0090020AE0000200246501A3D
:10316000C017401C704710B502469002B0FBF1F347
:1031700003FB03F05C00C4F540646043000D10BD28
:1031800070B5044620211E48FCF7E7FF1D491C4886
:1031900001F03AFA1A48001D216801F035FA184882
:1031A0000830616801F030FA208981B214480C308F
:1031B00001F026FAE18912480E3001F021FA608907
:1031C00081B20F48103001F01BFAA08981B20C487F
:1031D000123001F015FA207C00F003010848143089
:1031E00001F012FA18210648FFF718FE0546294695
:1031F0000348183001F008FAFF200149C87770BD74
:10320000500900204C4F473170B5054604261C4834
:10321000007890B100240EE01A4951F8242035F9C5
:103220001410C2EB0120FFF717FBB0F5163F00DDCD
:103230000226601CC4B2032CEEDB00241AE035F930
:10324000141008020E49097819B90E4941F82400F2
:103250000EE00C4951F82410421A0121B14092FBB2
:10326000F1F1084A52F824201144064A42F8241089
:10327000601CC4B2032CE2DB01200149087070BD60
:103280000C000020240100202DE9F84307460C46DD
:103290001646002C01DA604200E020460546A6B141
:1032A0000A20B5FBF0F100FB1158B5FBF0F9CDF8A1
:1032B0000080002C01DA2D2000E02B2002464B4636
:1032C0000DA13846FFF774F813E00A20B5FBF0F1C2
:1032D00000FB1158B5FBF0F9CDF80080002C01DAA5
:1032E00008A000E008A002464B4608A13846FFF7B8
:1032F0005FF8BDE8F88300002563256C752E256C0A
:10330000750000002D000000000000002573256CF2
:10331000752E256C7500000010B50446062C0ED2E3
:10332000DFE804F00D030507090B0BA010BD0CA08E
:10333000FCE70DA0FAE70EA0F8E70FA0F6E7FEF70E
:103340002DFF38B1FEF72AFF6FF07F41884201D090
:103350000BA0EBE70CA0E9E75343414E000000004F
:103360005245414459000000534156494E47000020
:103370004552524F520000004C4F434B4544000011
:10338000554E535550000000414253454E540000E5
:10339000014608784A7840EA0220704701460878DA
:1033A0004A7840EA02208A7840EA0240CA7840EA35
:1033B0000260704770B598B00446FDF7FFFD88B90C
:1033C00046A214210420FEF7D5FBFDF745FE064674
:1033D000FFF7A2FF05462A462A210A20FEF710FC25
:1033E00018B070BDA07813A9FDF7C2FD68B1FDF754
:1033F00033FE042801D13CA000E03EA005462A4649
:1034000016210420FEF7B6FBEAE7FDF7D7FD0546D7
:10341000A078421C2B4639A109A8FEF7C9FF09AACA
:1034200001215C20FEF7ECFB36A211210620FEF7FD
:10343000E7FB36A211214A20FEF7E2FB9DF85C0073
:1034400000F0010050B1BDF9541005A800F056F984
:10345000BDF85A1001A800F051F907E02DA105A808
:10346000FCF79AFE2BA101A8FCF796FE05AA1D21E8
:103470000320FEF77FFB01AA1D214420FEF77AFB03
:103480009DF85C0000F0020090B1BDF956100122D9
:1034900005A8FFF7F9FEBDF95810012201A8FFF7B2
:1034A000F3FE01AB05AA1CA109A8FEF781FF03E00A
:1034B0001BA109A8FEF77CFF09AA2F210420FEF713
:1034C0009FFB1AA109A8DDE91323FEF771FF09AAE2
:1034D00039210420FEF794FB00BF81E74E4F2052B4
:1034E00045434F52445300005245414420455252F7
:1034F0004F52000052454144494E470025752F2543
:103500007500000054454D502043000048554D20A3
:10351000250000002D2D000050257320522573003A
:103520004C4556454C202D2D0000000023256C7580
:1035300020256C755300000010B503460B48007839
:1035400058B11878022808D1587830B92AB10848FB
:103550000068081AB0F5487F01D2002010BD012094
:1035600058700020014C20700120F7E74C0000202B
:103570004800002008B50820009000BF9DF800001A
:10358000411EC9B200910028F8D108BD70B50546AA
:10359000002480211D48FDF727FC002616E0600668
:1035A000040E40211948FDF71FFCFFF7E3FF8021BF
:1035B0001648FDF70EFC08B144F001044021134801
:1035C000FDF710FCFFF7D6FF701CC6B2082EE6DB35
:1035D00025B180210D48FDF705FC03E080210B4853
:1035E000FDF702FCFFF7C6FF40210848FDF7FCFB92
:1035F000FFF7C0FF40210548FDF7F4FBFFF7BAFFD6
:1036000080210248FDF7F0FB204670BD000C014010
:1036100070B5044600251DE004F0800020B1802133
:103620001C48FDF7E1FB03E080211A48FDF7DAFBB7
:10363000FFF7A0FF40211748FDF7D6FBFFF79AFFE1
:1036400040211448FDF7CEFBFFF794FF6006040EFF
:10365000681CC5B2082DDFDB80210E48FDF7C4FBD6
:10366000FFF788FF40210B48FDF7BEFBFFF782FF05
:1036700080210848FDF7ADFB08B1012000E00020E3
:10368000064640210348FDF7ADFBFFF773FF3046C8
:1036900070BD0000000C014010B580210B48FDF703
:1036A000A3FBFFF767FF40210848FDF79DFBFFF7ED
:1036B00061FF80210548FDF795FBFFF75BFF402187
:1036C0000248FDF78FFBFFF755FF10BD000C0140CE
:1036D00010B580210848FDF785FBFFF74BFF40211F
:1036E0000548FDF781FBFFF745FF80210248FDF704
:1036F0007BFBFFF73FFF10BD000C01402DE9FF41B0
:1037000005460F46002239466846FFF7BDFD68466C
:10371000FCF72EFDC6B2052E05DD0AA12846FCF7F2
:103720003BFDBDE8FF81C6F10500C4B22022214661
:103730002846FCF70BFD28196946FCF72DFD00BF54
:10374000EFE70000204F5645520000002DE9F04100
:1037500086B00446E078002846D17C4908707CA1F8
:103760000920FFF7E5FA207908B17BA010E0607925
:1037700008B17CA00CE094F82F00012801D17CA0B6
:1037800006E094F82F00022801D17CA000E07EA082
:1037900001461C20FFF7CCFA207910B3A0796428E9
:1037A00001DD642000E0A079074601202D23672277
:1037B000194600901820FDF793FF8FB1C7EB071053
:1037C00000EB87106421B0FBF1F0183000F0FF0827
:1037D00001202E2342462C2100901820FDF7FEFFE9
:1037E00000BF06B0BDE8F0812046FFF727F96A4820
:1037F00000781F30C5B2694800782030C6B2012376
:103800001C2220211F20FDF7E7FE012018231A2289
:10381000194600901720FDF763FF01201B23172294
:10382000182100901046FDF75BFF01201823272286
:10383000194600902420FDF753FF01201B23272267
:10384000182100901046FDF74BFF012028231A2273
:10385000194600901720FDF743FF01202823172267
:10386000252100901046FDF73BFF01202823272249
:10387000194600902420FDF733FF0120282327223A
:10388000252100901046FDF72BFF0023072231462B
:103890002846FDF7FDFE0123062231462846FDF7A6
:1038A000F7FE0023042231462846FDF7F1FE0120F1
:1038B000B21ED3B2D1B2AA1E0090D0B22A46FDF7F2
:1038C0000FFF721ED1B2AA1ED0B20122FDF75EFF19
:1038D000E07908B11EA000E031A002460121442099
:1038E000FEF78EF930A20B214420FEF789F902A8D9
:1038F0002169FFF703FF2069B0F57A7F03DA2069B9
:1039000010F57A7F01DC2AA000E002A8024614210B
:103910004220FEF72FF928A226214420FEF770F955
:1039200002A86169FFF7EAFE6069B0F57A7F03DA01
:10393000606910F57A7F01DC1DA000E002A8024654
:103940002F214220FEF716F900BF4AE7DA000020D7
:103950004C4556454C000000484F4C4420535449B8
:103960004C4C0000504C41434520464C4154000013
:10397000464C495020424F415244000054494C5457
:103980002052414E47450000434845434B20534594
:103990004E534F5200000000D8000020D9000020F4
:1039A00054494C5400000000504954434800000062
:1039B000204F564552000000524F4C4C0000000072
:1039C00010B50020054908700549087005490870C0
:1039D00005490870FCF778FC10BD000010000020BD
:1039E0000F0000200E0000200D0000202DE9F04106
:1039F00004460D4616462846FEF72EFF0A2806DC2A
:103A00003046FEF729FF0A2801DC012000E00020F3
:103A100007462846FEF720FF142804DA3046FEF752
:103A20001BFF142801DB012000E000208046BFB10D
:103A30001B48007820B91B48046001201849087011
:103A40001948007878B917480068201A64280AD302
:103A500001201549087064212046FEF75BFF02E053
:103A600000200F490870B8F1000F13D00F480078FC
:103A700020B90F48046001200C4908700A480078FA
:103A800058B10B480068201A642806D30020064964
:103A9000087002E0002005490870BDE8F0810000D0
:103AA0000E000020140000200D0000200F00002058
:103AB0001800002010B586B001A8FEF7FFF8049C9E
:103AC00002990498884200D064000121C802FEF7E0
:103AD000D5F80121C802FEF7E1F800214FF400609B
:103AE000FEF7DCF81B48B4FBF0F0401E1A490880D2
:103AF00040F60F60091D0880002017491431088026
:103B0000091F0880091F088046F66800124910390D
:103B100008806820091D088040F21110091D0880E6
:103B200080200D492839088001200B49143908806C
:103B30000020091F08804FF4004007491C3108800D
:103B400005482838008840F00100034928390880DA
:103B500006B010BD00DD6D00282C01407CB580480A
:103B600005780020009001907E48008820B17D48B3
:103B70000088401E7B4908807B480078032805D1D7
:103B80007848008810B1022D00D0032576480078CF
:103B900085421BD0744805700020744908800024B9
:103BA00007E0734830F81400724921F81400601CD3
:103BB000C4B2032CF5DB032D03D14FF4FA7069492D
:103BC0000880022D02D100206B49088067480088D8
:103BD000B0F5967F04D265480088401C6349088090
:103BE00066480088401C40F6B83190FBF1F201FBBA
:103BF00012006249088060480088401C4FF4C86188
:103C000090FBF1F201FB12005B4908805C480078F0
:103C1000401CC0B25A490870052800DA7CBD00205B
:103C200057490870012D09D18C2240F6B83153480C
:103C30000088FEF791FEADF8020038E0022D09D1B0
:103C4000AA224FF4C8614C480088FEF785FEADF803
:103C500000002CE0032D08D14FF4C840ADF802005D
:103C60004FF4F040ADF8040021E0042D16D1454991
:103C70000888BE21414309029622B1FBF2F189B2C4
:103C8000ADF80010C0F196018C2251430902962232
:103C9000B1FBF2F189B2ADF8021008E0B42240F6AF
:103CA000B83136480088FEF757FEADF804004FF4EF
:103CB00096712E480088FFF756FA0646002436E033
:103CC000042D1FD129480088B0F5967F1AD13DF800
:103CD0001410274A32F81420881A002805DB00F156
:103CE0000B010C2291FBF2F104E0A0F10B010C227C
:103CF00091FBF2F11E4A32F8142011441C4A22F8BA
:103D0000141012E03DF814101A4A32F81420891ADF
:103D100001FB06F0C11700EB9151164A32F814204E
:103D200002EBA121124A22F81410601CC4B2032C29
:103D3000C6DB0F49088800F073FC134908800C4962
:103D4000488800F06DFC1049091D088008498888E2
:103D500000F066FC0C490831088000BF5EE70000F7
:103D60006A0000207A0000207C00002078000020FB
:103D70007E000020840000207600002074000020D7
:103D80007D0000208A000020342C0140B0B00020CB
:103D90002C900125299000262890219020901F909A
:103DA0001E901B901A9017901590149013903C2120
:103DB00004A8FCF7D2F9FCF731FEFCF767FAFDF72F
:103DC00017F8FCF79FFAFFF7FDF83C20FCF751FAD3
:103DD000FEF7C2F8FEF788F84FF49670FFF756F931
:103DE0003C20FEF7D7F82F906820FEF7D3F82E90EE
:103DF0002F98F8B91DE0002003900DE0FDF71AF8A8
:103E00005020FFF743F9FDF70BF87820FFF73EF954
:103E10000398401CC0B203902E9808B1032100E023
:103E2000052103988142E9DC4FF49660FFF72EF9F3
:103E300000BFE0E7FDF7EEFCFFF722F9044620465D
:103E4000FCF740FC2046FDF74BF8FDF7B9FA08B93E
:103E5000012000E000202D90FFF712F904462D9874
:103E600010B12046FEF760FEA346A046A24604F528
:103E70007A70199018904EF6602020441690F648FB
:103E8000274604600020F5490860F54908608DF870
:103E900012008DF811008DF810001BE3FFF7F0F809
:103EA00004462046FCF76AFCEE48007850B1EE4824
:103EB00001682046FFF752F920B1FCF705FA00200F
:103EC000E84908702C9840B120461799FFF746F949
:103ED00018B1FCF7A5FF00202C9020461899FFF799
:103EE0003DF948B1FCF7A6FF01202C9004F11E001B
:103EF000179004F57A701890FCF7D8FA2790FCF721
:103F0000C3FA2A902A9800F0020070B10020D74925
:103F100008708DF812008DF811008DF81000A04681
:103F2000D3A0139004F2DC501590279848B1FDF708
:103F300045F803462246039004A8279900F0E2FAC8
:103F4000A0462A9800F00100002841D09DF81000FA
:103F5000022815D1FDF732F860B19DF8110008B9BB
:103F6000012000E000208DF811000020BF490870FA
:103F700013902CE0C0A0139004F5FA60159026E091
:103F8000C048007818B115B90EB1012000E000203A
:103F900003462046DDE91E2100F0EEFB38B9BAA049
:103FA000139001202990FCF7DDFF14900CE0FDF741
:103FB00053F808B9B6A006E0FDF74EF8052801D180
:103FC000B6A000E0B7A0139004F5FA601590A046E3
:103FD000FCF7F4FF02462146039004A8FFF7ACFA71
:103FE00000B1A04651462046FFF7B8F800287DD022
:103FF00004F1050A2D9838B122AA23A925A8FDF7B6
:104000003BFA08B9012000E000202B902B980028F3
:104010006ED02198401C80B221904FF000090FE033
:1040200025A830F819100CA820F8191023A830F88A
:104030001910563820F8191009F1010000F0FF0995
:10404000B9F1030FECDBBDF98800ADF83C001DB100
:10405000002097490870002525A8FFF7D5F8A3464A
:10406000012225A92046FEF791FD86480078E8B395
:10407000BDF9980000F0A0FA2890289808B901200E
:1040800000E00020064696B38A490868C11700EB95
:104090001161894A1268C2EB212141F262625143E7
:1040A000864A126891FBF2F149421D9181494868A4
:1040B000C11700EB1161824A1268C2EB212141F263
:1040C000626251437D4A126891FBF2F11C910A2011
:1040D0001D9991FBF0F01F900A201C9991FBF0F0C4
:1040E0001E901B991D9800F04AFC02E023E010E0AE
:1040F00012E01B901A991C9800F041FC1A90DDE91F
:104100001E10FCF785F92046DDE91E21FFF76EFC45
:1041100011E0FFF755FC0EE02D9810B11198401CEE
:10412000119000206749087067490870002225A98E
:104130002046FEF72BFDA4EB0B00642819D30DB924
:10414000FFF73EFC012520461999FFF707F880B1DB
:10415000FCF76CFA68B9FDF7C7FEFDF731F908B94D
:10416000012000E000202D90FEF78AFF00F57A7014
:1041700019904448007870B95448007858B92D987F
:1041800048B145B9524801682046FEF7E7FF10B133
:104190002046FEF7C9FC3B48007818B115B90EB1AE
:1041A000012000E0002003462046DDE91E21FCF747
:1041B0004BFCE01BB0F57A7F17D34FF47A7121984E
:1041C0004843E11BB0FBF1F080B2ADF840004FF482
:1041D0007A7120984843E11BB0FBF1F080B2ADF852
:1041E000420000202090219027462046FCF73AFF0D
:1041F00020461699FEF7B2FFF0B1FCF72DFF02281A
:104200001AD1FCF75BFA007AB0B1FCF757FA407AA2
:1042100090B91C48007818B115B90EB1012000E022
:10422000002003462046DDE91E2100F0A5FA18B95A
:104230004EF6602020441690299860B1FCF792FE5B
:10424000149988424AD023A0139004F2DC501590B0
:10425000002029904DE04CE03C000020440000206C
:1042600040000020100000201C0000204C00002016
:10427000484F4D45000000004E4F205245434F52DD
:104280004453000021000020534156494E4700008E
:104290004E4F20464C415348000000004C4F434BCA
:1042A000454400004E4F54205245414459000000FF
:1042B0000C00002024010020000000200800002045
:1042C000040000200F0000200E000020200000202D
:1042D000380000205341564544000000FCF7BCFE66
:1042E000042806D17CA0139004F6B8301590002065
:1042F0002990139830B120461599FEF72FFF08B189
:10430000002013907748007800B3FDB9F6B17648E5
:104310000078D8B91398C8B99DF81000012803D1C6
:10432000FCF7CCF9407A88B99DF81000022803D038
:104330009DF81000032807D1FCF78EFE042805D055
:10434000FCF78AFE052801D0012000E00020039040
:10435000279820B92A9810B9FBF7CAFF08B10120A5
:1043600000E0002002901E98009020461F9BDDE98F
:10437000021200F03BFAFCF721FE9DF81210884271
:1043800002DC00208DF81200FCF766FE032802D143
:10439000FCF774F83EE09DF8100038B951480078F9
:1043A00008B105B916B950480078D0B19DF8100091
:1043B000012803D1FCF782F9407A90B99DF81000EA
:1043C000022803D09DF8100003280ED1FCF744FE0C
:1043D000042806D0FCF740FE052802D0FCF73CFE7E
:1043E00018B90220FCF74AF814E09DF8100040B913
:1043F0003C48007828B125B91EB10420FCF73EF8EE
:1044000008E03A49097809B1012100E00021084695
:10441000FCF734F8FDF752FAE8BB41462046FEF7B8
:104420009DFEC0B32F48007818B115B90EB1012018
:1044300000E000208DF813002B4800788DF8140060
:104440002B4800788DF815000DB1002000E0289869
:104450008DF83F002D9810B10DB9012000E000202B
:104460008DF83E00234800788DF816001F4800782C
:104470008DF817001F9806901E9807901B980890BB
:104480001A9809904FF47A70B4FBF0F00A90FBF799
:104490002FFF18B100E015E017A000E013980B9073
:1044A000129404A8FCF73EFAFDF7C0FB2098401CCC
:1044B00080B220909DF8100008B9212000E0322041
:1044C00000EB0408FCF7B2F810B92046FDF792FAA9
:1044D000FDF7FAF9E2E400005341564520455252F7
:1044E0004F52000021000020200000200D0000207D
:1044F00022000020230000204B455920444F574EF6
:104500000000000070B50C4604B970BD0578022D9E
:1045100015D145789DB185782919002903DB994289
:1045200001DA8170F1E7002901DA012500E00325B5
:1045300005700025457085700F4E357019E00578BF
:10454000291901E0CD1D29B20029FBDB072591FBCC
:10455000F5F605FB16150570002545708570057884
:10456000022D01D1012500E00025034E3570034DD9
:104570002A6000BFC9E700004C000020480000206E
:1045800010B5002007490870074908700120074945
:10459000087000200649087006490870FDF7A4FC61
:1045A00010BD00005F0000205D00002060000020C2
:1045B000620000206100002030B50146002901DAC8
:1045C000012030BD0C4C2368DC1703EB9474A4105D
:1045D0008C420DDC094CA268D41702EB146424123F
:1045E000054D2868C51700EB9575AD10AC4201DA92
:1045F0000220E6E70020E4E7080000202401002074
:1046000001700A12427070470246002005E0C300A4
:1046100021FA03F31354431CD8B20428F7DB704784
:10462000014688024FF47F43B0FBF3F202FB02F035
:104630004FF4616358434FF6FF7303EA105070471D
:1046400030B587B0054630A210210420FDF7D8FA16
:104650002EA210214420FDF7D3FA00243DE095F866
:104660002E0050B105F1200030F9143004F1580249
:1046700028A101A8FDF79CFE05E004F1580227A13E
:1046800001A8FDF795FE04EB84001B2202EB40001D
:10469000C1B201AA0420FDF7B3FA95F82E0050B17B
:1046A00005F1260030F9143004F1580219A101A8CF
:1046B000FDF77EFE05E004F1580218A101A8FDF700
:1046C00077FE04EB84001B2202EB4000C1B201AA7A
:1046D0004420FDF795FA601CC4B2032CBFDB95F8AB
:1046E0002E0030B1B5F92C200FA101A8FDF760FE16
:1046F00003E010A101A8FDF75BFE01AA3921042007
:10470000FDF77EFA07B030BD414343004759524F91
:10471000000000002563253664000000256320208A
:1047200020202D2D0000000054454D5020524157AF
:10473000202564004D5055204441544120554E41A0
:104740005641494C41424C450000000002460020C1
:104750004FF0804100E089089142FCD809E04318FD
:10476000934204D84318D21A01EB500000E04008ED
:1047700089080029F3D170472DE9F04186B005463C
:104780000E4617469846FBF799FF04460020019015
:104790004FF47A70B5FBF0F0029000208DF8140011
:1047A0002088ADF80C006088ADF8120030B2ADF88A
:1047B0000E0038B2ADF81000207A38B1607A28B90E
:1047C0009DF8140040F001008DF81400B8F1000FBE
:1047D00005D09DF8140040F002008DF8140001A8E7
:1047E000FCF7F2FB06B0BDE8F08100002DE9F041D6
:1047F00004460E4617461D46DDF818807EB977B18F
:1048000012490968681AFEF727F8032807DA1049E1
:104810000968A8EB0100FEF71FF8032806DB0D4826
:1048200004600A4805600A48C0F800800949096820
:10483000611A4AF6C872914201D3012100E00021B9
:104840000846FDF783F9BDE8F08100004000002034
:10485000440000203C00002010B5044624B1102183
:104860000448FCF7BFFA03E010210248FCF7BCFA49
:1048700010BD0000000801400246052901DB0020B0
:104880007047412A09DB5A2A07DCA2F1410000EBFC
:1048900080001E4B1844405CF2E7302A09DB392ABD
:1048A00007DCA2F1300000EB8000194B1844405C9B
:1048B000E6E72D2A01D10820E2E72B2A05D10229BB
:1048C00001D13E20DCE70820DAE72E2A05D10229B3
:1048D00001D16020D4E70020D2E73A2A05D102298D
:1048E00001D13620CCE70020CAE72F2A02D1402090
:1048F0000841C5E7252A02D10648405CC0E7232AC3
:1049000002D10548405CBBE70020B9E7A854000885
:104910002A5500085C550008615500082DE9F0474C
:104920000446884615469A4620E0002619E0287875
:104930003146FFF7A1FF814600270EE049FA07F351
:1049400003F0010383EA0A0208EB0703D9B2A319B3
:10495000D8B2FCF71BFF781CC7B2072FEEDB701C28
:10496000C6B2062EE3DBA01DC4B26D1C287820B1B0
:104970007A2C02DCB8F1390FD7DDBDE8F08770B5CD
:1049800004460D4605EB8501A4EB4100FDF764FFED
:104990000F2801DA284670BD002C04DB601D0A21B7
:1049A00090FBF1F0F7E7601F0A2190FBF1F0F2E7CE
:1049B00010B50120FFF750FF052000F0A3F8FF20FD
:1049C00000F0A0F804460020FFF746FF204610BD87
:1049D0002DE9F04186B00446FBF770FE0546FDF771
:1049E000B3FB064635A16846A269FDF7E1FC6846BF
:1049F000FBF7BEFB00EB40007C21A1EB4000C7B2FF
:104A00006A4601213846FDF7FBF894F82E0008B1FC
:104A10002CA000E02CA002462DA16846FDF7C8FCA2
:104A20006A4612210420FDF7EBF8287A18B1687A5B
:104A300008B924A000E024A0024627A16846FDF79B
:104A4000B7FC6A4612214420FDF7DAF824A220219F
:104A50000420FDF7D5F8FCF7FFFA8046FEF75CFC72
:104A600007463A4620214420FDF7CAF8B20A1EA1A3
:104A70006846FDF79DFC6A462C210420FDF7C0F82E
:104A8000FCF7E2F907463A4619A16846FDF790FCA3
:104A90006A462C214420FDF7B3F8FDF77FFB07465B
:104AA0003A4615A16846FDF783FC6A463821042082
:104AB000FDF7A6F806B0BDE8F081000055502025AE
:104AC0006C7553004F4B00005741495400000000E3
:104AD0004D50552025730000444854202573000094
:104AE000464C415348000000256C754B42000000C5
:104AF0002575204C4F4700004944202530366C581E
:104B00000000000070B50446FEF7B6FA05461848E6
:104B1000007808B1FF2070BD0BE0FEF7ADFA401B36
:104B200080B2B0F57A7F04DD012011490870FF20C2
:104B3000F1E71048008900F002000028EDD00D4890
:104B400084810BE0FEF798FA401B80B2B0F57A7FC3
:104B500004DD012006490870FF20DCE705480089D4
:104B600000F001000028EDD002488089C0B2D2E7F1
:104B7000A80000200030014070B58AB0044600F063
:104B8000CFF80546E07850B101226846A168FEF7EB
:104B90007BFB6A4620A104A8FDF70AFC03E020A1E4
:104BA00004A8FDF705FC04AA0D210420FDF728F850
:104BB0000A2095FBF0F632461BA104A8FDF7F8FB8E
:104BC00004AA01215020FDF71BF8E07850B1012222
:104BD0006846E168FEF758FB6A4615A104A8FDF790
:104BE000E7FB03E014A104A8FDF7E2FB04AA2621D9
:104BF0000420FDF705F812A226216820FDF700F831
:104C00002A461D210F4800F021F82A4637210E4878
:104C100000F01CF80AB070BD5020257300000000A1
:104C200050202D2D000000002B2F2D257544000055
:104C3000522025730000000052202D2D000000009E
:104C400031325300640A0020540B00202DE9FE4F3E
:104C500081460D4692460020029001908346012035
:104C60000090A81DC3B2A81FC1B203221046FCF7D2
:104C700037FD042407E0012229462046FCF786FD83
:104C800004F10800C4B27C2CF5DB00243BE0214891
:104C90000078783020490978401A2044782190FB28
:104CA000F1F201FB120000F0FF081B480078C0F190
:104CB0007C002044C6B2194810F8080010B94FF023
:104CC000000B1EE039F9180000EB4000400090FB9B
:104CD000FAF0281AC7B2BBF1000F08D001203B46FA
:104CE00032460090DDE90110FCF7FAFC04E00122F5
:104CF00039463046FCF74AFD029601974FF0010B0A
:104D000000BF601CC4B2044800788442BFDBBDE829
:104D1000FE8F0000C8000020C9000020440C0020C5
:104D20000023002126E01D48405C08B31C4830F9F0
:104D30001100002804DA1A4830F91100404202E05C
:104D4000174830F9110082B29A4200DD1346154827
:104D500030F91100002804DA124830F911004042FD
:104D600002E0104830F9110082B29A4200DD134689
:104D7000481CC1B20C4800788142D4DB002101E01C
:104D8000481CC1B2062904DA084830F811009842DC
:104D9000F6DB064830F8110070470000440C002094
:104DA000640A0020540B0020C90000208055000830
:104DB00030B540F6B833984201DD184603E0194B90
:104DC000984200DA184640F6B833994201DD194698
:104DD00003E0144B994200DA194603B2124C134D0A
:104DE0002D7824F815300BB2114C104D2D7824F885
:104DF0001530104B0D4C24781A550C4B1B785B1C4E
:104E0000782493FBF4F504FB1533084C23700A4B0C
:104E10001B78782B04DA084B1B785B1C064C23703C
:104E200030BD000048F4FFFF640A0020C8000020E5
:104E3000540B0020440C0020C900002010B5FDF7E1
:104E400069F908B1012010BD0120FFF705FD06201A
:104E5000FFF758FE0020FFF7FFFCFFF7A9FD04460F
:104E60000448007810B904F0020008B90120EAE70C
:104E70000020E8E7A800002000000000000000007B
:104E80000000000000000000000000F8000000002A
:104E9000000000333000000000100C06100C06006B
:104EA000000000000000000040C07840C0784000D2
:104EB000043F04043F040400007088FC0830000034
:104EC000001820FF211E0000F008F000E01800008C
:104ED00000211C031E211E0000F008887000000045
:104EE0001E2123241927211010160E000000000097
:104EF0000000000000000000000000E018040200B4
:104F0000000000071820400000020418E000000024
:104F10000040201807000000404080F08040400022
:104F20000202010F01020200000000F00000000078
:104F30000101011F0101010000000000000000004C
:104F400080B07000000000000000000000000000C1
:104F5000000101010101010100000000000000004A
:104F600000303000000000000000000080601804E5
:104F7000006018060100000000E010080810E000C2
:104F8000000F102020100F00001010F8000000008B
:104F90000020203F202000000070080808887000D2
:104FA0000030282422213000003008888848300052
:104FB0000018202020110E000000C02010F8000072
:104FC00000070424243F240000F80888880808000B
:104FD0000019212020110E0000E010888818000020
:104FE000000F112020110E0000380808C8380800F2
:104FF0000000003F00000000007088080888700072
:10500000001C222121221C0000E010080810E000F2
:105010000000312222110F00000000C0C00000007B
:1050200000000030300000000000008000000000A0
:105030000000806000000000000080402010080098
:105040000001020408102000404040404040400061
:10505000040404040404040000081020408000003C
:105060000020100804020100007048080808F00041
:105070000000003036010000C030C828E810E00011
:105080000718272423140B000000C038E00000009C
:10509000203C23020227382008F888888870000006
:1050A000203F202020110E00C030080808083800DA
:1050B000071820202010080008F808080810E00051
:1050C000203F202020100F0008F88888E8081000F2
:1050D000203F20202320180008F88888E8081000C6
:1050E000203F200003000000C030080808380000FE
:1050F00007182020221E020008F808000008F808FF
:10510000203F210101213F20000808F80808000085
:105110000020203F2020000000000808F8080800B8
:10512000C08080807F00000008F888C02818080030
:10513000203F20012638200008F808000000000069
:10514000203F20202020300008F8F800F8F8080060
:10515000203F003F003F200008F830C00008F8085A
:10516000203F200007183F00E01008080810E0006A
:105170000F10202020100F0008F808080808F00081
:10518000203F210101010000E01008080810E000A4
:105190000F18242438504F0008F888888888700039
:1051A000203F2000030C30200070880808083800D9
:1051B0000038202121221C00180808F808081800CF
:1051C0000000203F2000000008F808000008F80850
:1051D000001F202020201F000878880000C8380801
:1051E000000007380E010000F80800F80008F80079
:1051F000033C0700073C0300081868808068180813
:1052000020302C03032C30200838C800C838080090
:105210000000203F2000000010080808C8380800DF
:105220002038262120201800000000FE0202020083
:105230000000007F40404000000C30C00000000033
:10524000000000010638C00000020202FE0000005B
:10525000004040407F000000000004020202040001
:10526000000000000000000000000000000000003E
:105270008080808080808080000202040000000026
:10528000000000000000000000008080808000001E
:105290000019242222223F2008F80080800000000C
:1052A000003F112020110E000000008080800000CF
:1052B000000E112020201100000000808088F800DE
:1052C000000E112020103F20000080808080000010
:1052D000001F222222221300008080F08888881874
:1052E0000020203F2020000000008080808080007F
:1052F000006B94949493600008F800808080000014
:10530000203F210000203F200080989800000000EE
:105310000020203F2020000000000080989800001E
:1053200000C08080807F000008F80000808080003E
:10533000203F24022D302000000808F80000000063
:105340000020203F2020000080808080808080001E
:10535000203F20003F20003F8080008080800000B0
:10536000203F210000203F2000008080808000003E
:10537000001F202020201F0080800080800000006F
:1053800080FFA12020110E0000000080808080009E
:10539000000E112020A0FF8080808000808080008F
:1053A00020203F21200001000000808080808000BC
:1053B0000033242424241900008080E08080000031
:1053C0000000001F2020000080800000008080007E
:1053D000001F202020103F208080800000808080DF
:1053E00000010E300806010080800080008080806F
:1053F0000F300C030C300F00008080008080800094
:105400000020312E0E3120008080800000808080BE
:1054100080818E701806010000808080808080006E
:105420000021302C2221300000000000807C02028C
:1054300000000000003F404000000000FF000000AE
:1054400000000000FF0000000002027C800000005D
:105450000040403F00000000000601010202040479
:10546000000000000000000000AE0000D58000A891
:105470003F00D30000400000200000A10000C80051
:1054800000DA120081CF00D9F100DB3000A4000067
:10549000A600008D1400AF00020303030203020202
:1054A00003030303020203027E1111117E7F4949A7
:1054B00049363E414141227F4141221C7F494949B1
:1054C000417F090909013E4149497A7F0808087F5F
:1054D00000417F41002040413F017F081422417F6D
:1054E000404040407F020C027F7F0408107F3E4115
:1054F00041413E7F090909063E4151215E7F09195C
:105500002946464949493101017F01013F40404058
:105510003F1F2040201F3F4038403F631408146362
:10552000070870080761514945433E4141413E002B
:10553000427F400042615149462141454B31181498
:10554000127F1027454545393C4A494930017109C8
:1055500005033649494936064949291E631308643B
:1055600063147F147F146B191A1B1C0104030000C1
:1055700000FF0100010000FFFF0000010001FF002B
:10558000140032006400C800F401E803B80B000006
:105590005241572044415441000000005452454EAE
:1055A00044000000434C494D415445004445425598
:1055B000470000004C4556454C00000053595354D9
:1055C000454D0000484953544F525900EC550008CE
:1055D0000000002024010000D82300081057000814
:1055E000240100209C0F0000E823000800000000B8
:1055F00000000000000000000000000000000000AB
:10560000000000000000000000000000000000009A
:10561000000000000000000000000000000000008A
:10562000000000000000000000000000000000007A
:10563000000000000000000000000000000000006A
:10564000CFCF0000000000000000000000000000BC
:10565000000000000000000000000000000000004A
:10566000000000000000000000000000000000003A
:10567000000000000000000000000000000000002A
:10568000000000000000000000000000000000001A
:10569000000000000000000000000000000000000A
:1056A00000000000000000000000000000000000FA
:1056B00000000000000000000000000000000000EA
:1056C000000000000000000000000000B4550008C9
:1056D000A4550008C4550008BC55000890550008A2
:1056E0009C550008AC5500080000000001020304AE
:1056F00001020304060708090204060800A24A047E
:105700000000000000000000010203040607080971
:04000005080000ED02
:00000001FF
