:020000040800F2
:100000003008002005010008AB040008EF020008DA
:10001000A70400084D010008050D000800000000BD
:10002000000000000000000000000000A909000816
:10003000BD0100080000000087090008A10C0008AD
:100040001F0100081F0100081F0100081F01000810
:100050001F0100081F0100081F0100081F01000800
:100060001F0100081F0100081F0100081F010008F0
:100070001F0100081F0100081F0100081F010008E0
:100080001F0100081F0100081F0100081F010008D0
:100090001F0100081F0100081F0100081F010008C0
:1000A0001F0100081F0100081F0100081F010008B0
:1000B0001F0100081F0100081F0100081F010008A0
:1000C0001F0100081F0100081F0100081F01000890
:1000D0001F0100081F0100081F0100081F01000880
:1000E0001F0100081F0100081F010008DFF810D0E1
:1000F00000F01AF800480047DD100008AFF3008058
:10010000300800200648804706480047FEE7FEE723
:10011000FEE7FEE7FEE7FEE7FEE7FEE7FEE7FEE7B7
:10012000A50C0008ED000008064C074D06E0E0684D
:1001300040F0010394E8070098471034AC42F6D32E
:10014000FFF7D8FFB81A0008D81A000800BFFEE76A
:1001500010B5044600F028F8204600F00DFE00F02F
:1001600019F810BD08B50121082000F00DFC4FF46E
:100170008070ADF8000010208DF8030003208DF88A
:1001800002006946024800F01AF800F003F808BDC2
:10019000000C014010B54FF48071024800F0A5F842
:1001A00010BD0000000C014010B54FF480710248F2
:1001B00000F099F810BD0000000C014070472DE9D7
:1001C000F0410246002500260020002300240027DD
:1001D00091F803C00CF00F0591F803C00CF0100C5F
:1001E000BCF1000F03D091F802C04CEA050591F86C
:1001F00000C0BCF1000F31D0146800202BE04FF09C
:10020000010C0CFA00F3B1F800C00CEA03069E42A0
:1002100020D183004FF00F0C0CFA03F7BC4305FA12
:1002200003FC4CEA040491F803C0BCF1280F06D18A
:100230004FF0010C0CFA00FCC2F814C00AE091F86F
:1002400003C0BCF1480F05D14FF0010C0CFA00FCC3
:10025000C2F810C0401C0828D1D31460B1F800C007
:10026000BCF1FF0F34DD546800202EE000F1080CD3
:100270004FF0010808FA0CF3B1F800C00CEA0306CD
:100280009E4221D183004FF00F0C0CFA03F7BC43C0
:1002900005FA03FC4CEA040491F803C0BCF1280FF2
:1002A00005D100F1080C08FA0CF8C2F8148091F896
:1002B00003C0BCF1480F07D100F1080C4FF0010852
:1002C00008FA0CF8C2F81080401C0828CED35460FD
:1002D000BDE8F0810246002093680B400BB101207D
:1002E00000E000207047416170470161704700BF26
:1002F000FEE7000008B50121102000F045FB4FF497
:100300000050ADF8000010208DF8030003208DF898
:10031000020069460248FFF752FF00F003F808BDEB
:100320000010014010B54FF400510248FFF7DDFF07
:1003300010BD00000010014010B54FF400510248FC
:10034000FFF7D1FF10BD00000010014010B5802262
:100350006B21682000F082FC642000F00DFD01227A
:100360006B21682000F07AFC0A2000F005FD0422D1
:100370001921682000F072FC03221A21682000F085
:100380006DFC00221B21682000F068FC00221C216B
:10039000682000F063FC0A2000F0EEFC00F075F825
:1003A000682801D0012010BD0020FCE77CB5044680
:1003B0000D46164606236A463B21682000F0E9FBFD
:1003C00008B101207CBD9DF801009DF8001040EAB5
:1003D000012000B220809DF803009DF8021040EA41
:1003E000012000B228809DF805009DF8041040EA25
:1003F000012000B230800020E4E77FB504460D46BE
:1004000016460E236A463B21682000F0C2FB10B15D
:10041000012004B070BD9DF801009DF8001040EA75
:10042000012000B220809DF803009DF8021040EAF0
:10043000012000B260809DF805009DF8041040EA9C
:10044000012000B2A0809DF807009DF8061040EA48
:10045000012000B230809DF809009DF8081040EAA4
:10046000012000B228809DF80B009DF80A1040EA98
:10047000012000B268809DF80D009DF80C1040EA44
:10048000012000B2A8800020C3E708B5002000903A
:100490006A467521682000F071FB08B1FF2008BD95
:1004A0009DF80000FBE700BFFEE7704700200CE06E
:1004B000002106E00022064B03EBC0135A544A1CED
:1004C000D1B28029F6DB421CD0B20828F0DB70479D
:1004D000300000202DE9F04706460F4690469A4628
:1004E000002445464FEA4800C0F103094AE07A1962
:1004F000D1B23219D0B2524600F0C6F87A19D1B250
:10050000321BD0B2524600F0BFF87A1BD1B232197A
:10051000D0B2524600F0B8F87A1BD1B2321BD0B23A
:10052000524600F0B1F83A19D1B27219D0B252461F
:1005300000F0AAF83A19D1B2721BD0B2524600F0BC
:10054000A3F83A1BD1B27219D0B2524600F09CF80F
:100550003A1BD1B2721BD0B2524600F095F8B9F1F5
:10056000000F05DAA000801D48440FFA80F907E06B
:10057000601B80000A3048440FFA80F9681E05B2FB
:10058000601C04B2AC42B2DDBDE8F0872DE9F04357
:10059000074688461446994665421BE0664215E0C8
:1005A00006FB06F105FB051104EBD472521012B2E2
:1005B00004FB0422914207DC08EB0502D1B2BA1910
:1005C000D0B24A4600F060F8701C06B2A642E7DDE1
:1005D000681C05B2A542E1DDBDE8F0832DE9FF4FBF
:1005E00004460D4616461F46A046AA46A64201DD11
:1005F000301B00E0A01B8346AF4201DD781B00E00A
:10060000E81B0390B44201DA012001E04FF0FF3013
:100610000290BD4201DA012001E04FF0FF3001906D
:100620000398ABEB00000FFA80F928E00AF0FF0115
:1006300008F0FF000D9A00F027F8B04502D1BA4546
:1006400000D11DE04FEA490000B2009003994942F1
:100650000098884208DD0398A9EB00000FFA80F9A2
:10066000029840440FFA80F80098584507DA09EBE1
:100670000B000FFA80F9019850440FFA80FAD5E781
:1006800000BFBDE8FF8F000070B50B4614467F2801
:1006900001DC3F2B00DD70BDD91003F0070264B10F
:1006A0000C4D05EBC1152D5C01269640F6B2354385
:1006B000084E06EBC11635540AE0064D05EBC11590
:1006C0002E5C01259540AE43024D05EBC1152E541D
:1006D00000BFE0E73000002010B5AE2000F0E6FEDD
:1006E000D52000F0E3FE802000F0E0FEA82000F01E
:1006F000DDFE3F2000F0DAFED32000F0D7FE002020
:1007000000F0D4FE402000F0D1FE202000F0CEFE0C
:10071000002000F0CBFEA12000F0C8FEC82000F0B1
:10072000C5FEDA2000F0C2FE122000F0BFFE8120DC
:1007300000F0BCFECF2000F0B9FED92000F0B6FEDC
:10074000F12000F0B3FEDB2000F0B0FE302000F01E
:10075000ADFEA42000F0AAFEA62000F0A7FE8D208A
:1007600000F0A4FE142000F0A1FEAF2000F09EFED9
:10077000FFF79CFE00F002F810BD000070B52020CD
:1007800000F094FE002000F091FE212000F08EFE8B
:10079000002000F08BFE7F2000F088FE222000F079
:1007A00085FE002000F082FE072000F07FFE3C2046
:1007B00000F070F9402000F028FA00240DE0002538
:1007C00007E0084901EBC411485D00F01EFA681CFF
:1007D000C5B2802DF5DB601CC4B2082CEFDB00F045
:1007E0009BF970BD300000202DE9F0430746884694
:1007F0001646202E01DB7E2E01DDBDE8F083A6F13A
:100800002000C6B2002530E01A4800EB061010F8B0
:10081000059000240CE049FA04F303F0010208EB10
:100820000403D9B27B19D8B2FFF72EFF601CC4B203
:10083000082CF0DB0F4800EB061105F1080011F859
:10084000009000240DE049FA04F303F0010208F1DE
:1008500008032344D9B27B19D8B2FFF715FF601CF7
:10086000C4B2082CEFDB681CC5B2082DCCDB00BF7E
:10087000C3E70000C81400082DE9F0430546884688
:1008800016461C460CB1062C01DDBDE8F083002E97
:1008900001DA704200E030460746002E01DA2D20D2
:1008A00000E02B20024641462846FFF79DFF0A2024
:1008B000B7FBF0F905F10801C8B223464A464146A4
:1008C00000F01BF805F1080101EBC401C8B22E22AB
:1008D0004146FFF789FF0A20B7FBF0F100FB1170DA
:1008E00000F1300905F1100101EBC401C8B24A461C
:1008F0004146FFF779FF00BFC7E72DE9FE410746F4
:10090000884616461C460CB10A2C01DDBDE8FE8166
:1009100000200DF8040000250EE00A20B6FBF0F1DF
:1009200000FB11603030611E491B0DF801000A20E8
:10093000B6FBF0F6681CC5B2A542EEDB6A4641463E
:10094000384600F002F800BFE0E770B505460E46F5
:10095000144613E0302E00DD13E0782D04DD002571
:1009600006F11000C6B209E0227831462846FFF7AA
:100970003BFF05F10800C5B2641C00BF20780028C9
:10098000E8D100BF70BD704729B1064A92690243A1
:10099000044B9A6104E0034A92698243014B9A61D5
:1009A0007047000000100240704710B500F002F8D8
:1009B00010BD00000CB50020019000903348006885
:1009C00040F480303149086000BF3048006800F4CE
:1009D000003000900198401C0190009818B90198CF
:1009E000B0F5A06FF1D12948006800F4003010B1D3
:1009F0000120009001E0002000900098012843D1E0
:100A00002348006840F0100021490860084600684B
:100A100020F0030008600846006840F0020008600B
:100A20001A484068194948600846406848600846C6
:100A3000406840F4806048600846406820F47C10BC
:100A400048600846406840F4E8104860084600687E
:100A500040F08070086000BF0C48006800F0007033
:100A60000028F9D00948406820F003000749486091
:100A70000846406840F00200486000BF03484068F4
:100A800000F00C000828F9D10CBD00000010024055
:100A90000020024010B5044600F0D0FA6106080EAE
:100AA00000F088FA10BD000010B580211948FFF74A
:100AB0001CFC40211748FFF718FC00F02DFA80219C
:100AC0001448FFF707FC88B900240DE040211148C5
:100AD000FFF709FC00F020FA40210E48FFF705FC63
:100AE00000F01AFA601CC4B2092CEFDB802109481F
:100AF000FFF7F9FB00F010FA40210648FFF7F5FB7D
:100B000000F00AFA80210348FFF7EFFB00F004FA37
:100B100010BD0000000C014010B500F0ABFA10BD94
:100B200008B501210820FFF72FFFC020ADF8000015
:100B300014208DF8030003208DF802006946064852
:100B4000FFF73DFB40210448FFF7CFFB802102481F
:100B5000FFF7CBFB08BD0000000C014070B5044658
:100B600000F06CFA6106080E00F024FA054600F069
:100B700081FA0DB9012070BD0020FCE770B5044674
:100B80000D461646012332462946204600F001F85C
:100B900070BD2DE9F04105460F4690461E4600F017
:100BA0004DFA6906080E00F005FA20B100F062FA6D
:100BB0000120BDE8F081384600F0FCF918B100F0E2
:100BC00059FA0120F5E700F039FA012101EB45015E
:100BD000C8B200F0EFF918B100F04CFA0120E8E7D4
:100BE00000240CE0711EA14201DD012100E0002182
:100BF000084600F09DF908F80400601C84B2B44275
:100C0000F0DB00F037FA0020D3E710B504462046A9
:100C100000F0D0F910BD2DE9F04105460E4617460B
:100C200000F00CFA6906080E00F0C4F920B100F0DB
:100C300021FA0120BDE8F081002409E0305D00F0D8
:100C4000B9F918B100F016FA0120F3E7601C84B27C
:100C5000BC42F3DB00F00EFA0020EBE7F8B50646E5
:100C60000C4615468DF800408DF801500222694669
:100C70003046FFF7D0FFF8BD042808D14FF0E0213F
:100C8000096941F004014FF0E022116107E04FF0E3
:100C9000E021096921F004014FF0E0221161704761
:100CA0007047000010B51348006840F0010011497A
:100CB000086008464068104908400E4948600846E8
:100CC00000680E4908400B4908600846006820F497
:100CD000802008600846406820F4FE0048604FF419
:100CE0001F008860FFF761FE4FF000600449086054
:100CF00010BD0000001002400000FFF8FFFFF6FEEC
:100D000008ED00E000BFFEE702E008C8121F08C1BE
:100D1000002AFAD170477047002001E001C1121F7C
:100D2000002AFBD1704770B506460C46154609E00F
:100D3000FFF702FB204600F01FF8FFF7F3FA284602
:100D400000F01AF8301EA6F10101CEB2F0D170BD4C
:100D500010B56FF00400FFF78FFF044800680449E6
:100D6000B0FBF1F00349087010BD00001000002036
:100D700000127A000F00002010B5044603E04FF483
:100D80007A7000F005F8201EA4F10104F7D110BD1F
:100D900010B1194A127802B97047174A127800FB4D
:100DA00002F1B1F1807F01D36FF07F414FF0E0227B
:100DB000516100224FF0E0239A611A46126942F015
:100DC00001021A6100BF4FF0E022126902F0010235
:100DD00032B14FF0E022126902F48032002AF2D0E0
:100DE0004FF0E022126922F001024FF0E0231A6175
:100DF00000229A6100BFCFE70F0000202DE9F84FD5
:100E000007468846924601231D2220211F20FFF716
:100E100061FB01230C2220211F20FFF75BFB012037
:100E200009231F22042100901046FFF7D7FB012061
:100E30003C231F22372100901046FFF7CFFB0120F3
:100E400020230822194600900320FFF7C7FB01204A
:100E500020233B22194600903620FFF7BFFBBAF152
:100E6000000F06D00123032220211F20FFF78EFB55
:100E700005E00123032220211F20FFF72BFB08EBB5
:100E80004800C000962190FBF1F507EB4700C00039
:100E900090FBF1F405FB05F004FB0409B9F5107FA4
:100EA0000FDD484600F003F90646002E09DD05EB8C
:100EB0004500C00090FBF6F504EB4400C00090FB39
:100EC000F6F4C4F12002D1B205F11F02D0B2012321
:100ED0000422FFF75BFB0CA200214220FFF735FD47
:100EE00002233A4610214220FFF7C6FC08A2202127
:100EF0004220FFF72AFD0223424630214220FFF71D
:100F0000BBFCBDE8F88F0000504954434800000086
:100F1000524F4C4C0000000008B50820009000BF64
:100F20009DF80000411EC9B200910028F8D108BD0B
:100F300070B50546002480211D48FFF7D6F900262C
:100F400016E06006040E40211948FFF7CEF9FFF7BE
:100F5000E3FF80211648FFF7BDF908B144F0010412
:100F600040211348FFF7BFF9FFF7D6FF701CC6B248
:100F7000082EE6DB25B180210D48FFF7B4F903E028
:100F800080210B48FFF7B1F9FFF7C6FF4021084861
:100F9000FFF7ABF9FFF7C0FF40210548FFF7A3F9C2
:100FA000FFF7BAFF80210248FFF79FF9204670BD86
:100FB000000C014070B5044600251DE004F08000DF
:100FC00020B180211C48FFF790F903E080211A48E6
:100FD000FFF789F9FFF7A0FF40211748FFF785F9D0
:100FE000FFF79AFF40211448FFF77DF9FFF794FFC0
:100FF0006006040E681CC5B2082DDFDB80210E4898
:10100000FFF773F9FFF788FF40210B48FFF76DF9F1
:10101000FFF782FF80210848FFF75CF908B1012043
:1010200000E00020064640210348FFF75CF9FFF787
:1010300073FF304670BD0000000C014010B58021E8
:101040000B48FFF752F9FFF767FF40210848FFF709
:101050004CF9FFF761FF80210548FFF744F9FFF7DE
:101060005BFF40210248FFF73EF9FFF755FF10BD37
:10107000000C014010B580210848FFF734F9FFF754
:101080004BFF40210548FFF730F9FFF745FF80216E
:101090000248FFF72AF9FFF73FFF10BD000C01409F
:1010A0000146002901DA484270470846FCE702463B
:1010B00000204FF0804100E089089142FCD809E00F
:1010C0004318934204D84318D21A01EB500000E0B1
:1010D000400889080029F3D1704700008AB0002039
:1010E000089007900120069000200190FFF73AF841
:1010F000FFF700F9FFF720F9FFF72AFE3C20FFF782
:1011000027F8FFF70DFDFFF7CFFC4FF49670FFF7C0
:1011100033FE3C20FFF722FD09906820FFF71EFDFB
:101120000646099880B9FFF7FDF80CE00EB10321DF
:1011300000E00521084678225021FFF7F4FD4FF426
:101140009660FFF719FEF1E7FFF7C6FA16B1FFF751
:101150009CF900E00020074636B1682F04D1FFF764
:10116000F5F808B9012000E0002004461CB100F0A9
:10117000FFF800B10024FFF7D5F8CEE0002007907B
:1011800000F086F901200690D4B14FF0000814E079
:1011900001AA02A904A8FFF730F938B904A80699F2
:1011A00000F042F900200690012007900520FFF78B
:1011B000E3FD08F1010000F0FF08B8F1080FE7DBDC
:1011C000FFF774F9002C7AD00798002877D0002018
:1011D00000F054F951490968A0EB0109012000F021
:1011E0004DF94F490968A0EB010A40F23D2009FB87
:1011F00000F04C49096890FBF1F0C0F1000B40F29F
:101200003D200AFB00F04749096890FBF1F558467C
:10121000FFF746FF0A2806DC2846FFF741FF0A28A9
:1012200001DC012000E00020009029465846009A89
:10123000FFF7E4FD009848B13B480078FF2808DA42
:1012400039480078401C3849087002E000203649CF
:1012500008705846FFF724FF142804DA2846FFF7E1
:101260001FFF142809DB31480078FF2808DA2F48CF
:101270000078401C2D49087002E000202B490870BE
:101280002B48007860B128480078022808DB7820D5
:10129000FEF75EFF002026490870234908702AE007
:1012A0002348007838BB21480078022823DB01203E
:1012B0001F49087000201D4908701CE0FFE754B169
:1012C0001CA200210846FFF740FB1DA218210020A8
:1012D000FFF73BFB0FE01EA200210846FFF735FB9E
:1012E00003233A4600216020FFF707FB1BA21821C9
:1012F0000020FFF72AFBFFF741FA0898401CC0B214
:101300000890042808DB00200890FFF715F8282033
:10131000FFF732FDFFF706F800BF2FE700000020BF
:1013200004000020080000200D0000200E00002016
:101330000C0000205245414420455252000000005C
:10134000434845434B20574952494E47000000004F
:101350004D505536303530204552520049442053C7
:10136000484F554C442042452031303400000000A5
:101370002DE9FE43002400270026A046FFF796F83B
:101380001FA208211420FFF7E0FA20A220210C2040
:10139000FFF7DBFAFFF7F2F9002515E06A4601A92D
:1013A00002A8FFF703F850B9BDF908000744BDF9DA
:1013B00004000644BDF900008044601CC4B20A2049
:1013C000FFF7DAFC681CC5B2642DE7DB14B9012015
:1013D000BDE8FE8397FBF4F01049086096FBF4F03B
:1013E0000F49086098FBF4F00E4908600846006851
:1013F000B0F5FA5F02DA4FF4FA5008600020E7E730
:1014000043414C4942524154494E47004B45455097
:10141000204954204C4556454C0000000000002057
:10142000040000200800002010B5024661B1002031
:1014300007E032F910301B020F4C44F82030431CF7
:10144000D8B20328F5DB10BD002010E00A4B53F89A
:10145000203032F91040C3EB0423074C54F82040ED
:1014600004EB6313044C44F82030431CD8B2032827
:10147000ECDB00BFE7E70000240000200146034842
:1014800050F82100001200B2704700002400002034
:10149000002005E00021044A42F82010411CC8B297
:1014A0000328F7DB704700002400002010B5044635
:1014B0003C20FFF7EFFA0020FFF7A7FB2046FFF7DD
:1014C000A4FBFFF729FB10BD000000000000000096
:1014D0000000000000000000000000F80000000014
:1014E000000000333000000000100C06100C060055
:1014F000000000000000000040C07840C0784000BC
:10150000043F04043F040400007088FC083000001D
:10151000001820FF211E0000F008F000E018000075
:1015200000211C031E211E0000F00888700000002E
:101530001E2123241927211010160E000000000080
:101540000000000000000000000000E0180402009D
:10155000000000071820400000020418E00000000E
:101560000040201807000000404080F0804040000C
:101570000202010F01020200000000F00000000062
:101580000101011F01010100000000000000000036
:1015900080B07000000000000000000000000000AB
:1015A0000001010101010101000000000000000034
:1015B00000303000000000000000000080601804CF
:1015C000006018060100000000E010080810E000AC
:1015D000000F102020100F00001010F80000000075
:1015E0000020203F202000000070080808887000BC
:1015F000003028242221300000300888884830003C
:101600000018202020110E000000C02010F800005B
:1016100000070424243F240000F8088888080800F4
:101620000019212020110E0000E010888818000009
:10163000000F112020110E0000380808C8380800DB
:101640000000003F0000000000708808088870005B
:10165000001C222121221C0000E010080810E000DC
:101660000000312222110F00000000C0C000000065
:10167000000000303000000000000080000000008A
:101680000000806000000000000080402010080082
:10169000000102040810200040404040404040004B
:1016A0000404040404040400000810204080000026
:1016B0000020100804020100007048080808F0002B
:1016C0000000003036010000C030C828E810E000FB
:1016D0000718272423140B000000C038E000000086
:1016E000203C23020227382008F8888888700000F0
:1016F000203F202020110E00C030080808083800C4
:10170000071820202010080008F808080810E0003A
:10171000203F202020100F0008F88888E8081000DB
:10172000203F20202320180008F88888E8081000AF
:10173000203F200003000000C030080808380000E7
:1017400007182020221E020008F808000008F808E8
:10175000203F210101213F20000808F8080800006F
:101760000020203F2020000000000808F8080800A2
:10177000C08080807F00000008F888C0281808001A
:10178000203F20012638200008F808000000000053
:10179000203F20202020300008F8F800F8F808004A
:1017A000203F003F003F200008F830C00008F80844
:1017B000203F200007183F00E01008080810E00054
:1017C0000F10202020100F0008F808080808F0006B
:1017D000203F210101010000E01008080810E0008E
:1017E0000F18242438504F0008F888888888700023
:1017F000203F2000030C30200070880808083800C3
:101800000038202121221C00180808F808081800B8
:101810000000203F2000000008F808000008F80839
:10182000001F202020201F000878880000C83808EA
:10183000000007380E010000F80800F80008F80062
:10184000033C0700073C03000818688080681808FC
:1018500020302C03032C30200838C800C83808007A
:101860000000203F2000000010080808C8380800C9
:101870002038262120201800000000FE020202006D
:101880000000007F40404000000C30C0000000001D
:10189000000000010638C00000020202FE00000045
:1018A000004040407F0000000000040202020400EB
:1018B0000000000000000000000000000000000028
:1018C0008080808080808080000202040000000010
:1018D0000000000000000000000080808080000008
:1018E0000019242222223F2008F8008080000000F6
:1018F000003F112020110E000000008080800000B9
:10190000000E112020201100000000808088F800C7
:10191000000E112020103F200000808080800000F9
:10192000001F222222221300008080F0888888185D
:101930000020203F20200000000080808080800068
:10194000006B94949493600008F8008080800000FD
:10195000203F210000203F200080989800000000D8
:101960000020203F20200000000000809898000008
:1019700000C08080807F000008F800008080800028
:10198000203F24022D302000000808F8000000004D
:101990000020203F20200000808080808080800008
:1019A000203F20003F20003F80800080808000009A
:1019B000203F210000203F20000080808080000028
:1019C000001F202020201F00808000808000000059
:1019D00080FFA12020110E00000000808080800088
:1019E000000E112020A0FF80808080008080800079
:1019F00020203F21200001000000808080808000A6
:101A00000033242424241900008080E0808000001A
:101A10000000001F20200000808000000080800067
:101A2000001F202020103F208080800000808080C8
:101A300000010E3008060100808000800080808058
:101A40000F300C030C300F0000808000808080007D
:101A50000020312E0E3120008080800000808080A8
:101A600080818E7018060100008080808080800058
:101A70000021302C2221300000000000807C020276
:101A800000000000003F404000000000FF00000098
:101A900000000000FF0000000002027C8000000047
:101AA0000040403F00000000000601010202040463
:101AB0000000000000000000D81A0008000000200C
:101AC00024000000080D0008FC1A00082400002073
:101AD0000C080000180D00080000000000000000C5
:101AE000000000000100000000A24A040000000005
:0C1AF000000000000102030406070809C2
:04000005080000ED02
:00000001FF
